:1000000000CC00203DAA020861730208FDA202088C
:1000100075730208897302089D73020800000000CE
:10002000000000000000000000000000B1730208A2
:10003000C573020800000000F14D00086BA2020821
:10004000A5AC0208A9AC0208ADAC0208CB77020847
:10005000B5AC0208B9AC0208B1750208BD76020859
:100060000D770208C9AC0208CDAC0208D1AC020879
:10007000D5AC0208D9AC0208DDAC0208E1AC02083C
:10008000E5AC0208E9AC0208EDAC0208F1AC0208EC
:10009000F5AC0208F9AC0208FDAC020801AD02089B
:1000A00005AD020809AD02080DAD020811AD020848
:1000B00015AD020819AD02081DAD020821AD0208F8
:1000C00025AD020829AD02082DAD0208DD73020836
:1000D00035AD020839AD02083DAD020841AD020858
:1000E0006F770208537802084DAD020851AD02083F
:1000F00055AD020859AD02085DAD020861AD0208B8
:1001000065AD020869AD02086DAD020871AD020867
:1001100075AD020879AD02087DAD020881AD020817
:1001200085AD020889AD02088DAD020891AD0208C7
:1001300095AD020899AD02089DAD0208A1AD020877
:10014000A5AD0208A9AD0208ADAD0208B1AD020827
:10015000B5AD0208B9AD0208BDAD0208C1AD0208D7
:10016000C5AD0208C9AD0208CDAD0208D1AD020887
:10017000D5AD0208D9AD0208DDAD0208E1AD020837
:10018000E5AD0208E9AD020838B50020ADF8000081
:10019000044601F0E0FC05464FF48051204601F092
:1001A0001BFF0A21284601F0A5FE00E0641C062C76
:1001B00012D2DFF8600D215C8DF800102018007A53
:1001C0008DF80100022300AA7221072001F093FD9F
:1001D0000028EBD1002032BD012032BD2DE9FC41C9
:1001E0000446884602F020F806460020ADF80400D8
:1001F000DFF8245D288D0746B8F1000F02D02043B8
:10020000288501E0A0432885012000900DF1060318
:10021000AB227221062001F0B0FD002801D10020A0
:100220005EE1288D0E2800F24081DFE810F00F001B
:100230003E011C003E013A003E013A003E01AB0087
:100240003E01AB003E01AB003E01AB0080208DF8CB
:10025000040000208DF805009DF8060000F0FD0068
:100260008DF8060021E181208DF8040001ACEE201C
:100270006070022301AA7221092001F03CFD0028D0
:1002800001D100202CE16078E87280208DF8040014
:10029000032060709DF8060000F0FD008DF8060058
:1002A00003E19D208DF8040001AC00206070022362
:1002B00001AA7221092001F01EFD002801D10020B1
:1002C0000EE19E208DF8040000206070022301AA38
:1002D0007221092001F00FFD002801D10020FFE06C
:1002E00081208DF80400FD206070022301AA722194
:1002F000092001F000FD002801D10020F0E0607825
:10030000E8728E208DF80400E87B002812D00C21C2
:100310008F2002F05AF804218F2002F02DF83021AE
:10032000902002F052F83021902002F025F845206C
:10033000607011E00C218F2002F047F80B218F2014
:1003400002F01AF83021902002F03FF8112190209D
:1003500002F012F882206070022301AA72210920A3
:1003600001F0C9FC002801D10020B9E080208DF8FF
:100370000400272060709DF8060000F0FD008DF855
:10038000060092E03846000701D402F0E2F881202E
:100390008DF8040001ACFE206070022301AA7221D6
:1003A000092001F0A8FC002801D1002098E0607825
:1003B000E8728E208DF80400E87B002812D00C2112
:1003C0008F2002F002F804218F2001F0D5FF3021A8
:1003D000902001F0FAFF3021902001F0CDFF4B205A
:1003E000607011E00C218F2001F0EFFF0B218F20B6
:1003F00001F0C2FF3021902001F0E7FF3121902071
:1004000001F0BAFF83206070022301AA7221092043
:1004100001F071FC002801D1002061E0380714D4FC
:10042000B6F87A00B6F87C10401AE884B6F87A106C
:100430004900A98489B2B1F5807F01D3FF21A98445
:10044000A98C80B2A1EB4000E884A6208DF80400BE
:10045000E87B00280AD06021A32001F0B6FF20210C
:10046000A32001F089FF5720607009E06021A320DC
:1004700001F0ABFF4121A32001F07EFF8B206070D3
:10048000022301AA7221092001F035FC002801D1C4
:10049000002025E080208DF80400672060709DF822
:1004A000060040F002008DF80600022301AA722126
:1004B000092001F020FC002801D1002010E0AB2031
:1004C0008DF804009DF806008DF80500022301AAAE
:1004D0007221092001F00FFC401E8041C043C00F73
:1004E000BDE8F68110B534220021DFF8E80B02F0F8
:1004F0000DFADFF8244A0120607302F011FA01F0CE
:100500008DFF0120A074E07410BD10B582B00FF211
:10051000580001F09BFB0020ADF8000080208DF812
:10052000000000AC00206070022300AA72210620A7
:1005300001F0E1FB002816D08C208DF8000000208F
:100540006070DFF8D40900218172022300AA7221B1
:10055000062001F0D0FB002805D0FFF7C3FF0121E2
:100560000020FFF73BFE13BD233E484C5300000024
:1005700010B582B00FF2400001F068FB0020ADF82A
:100580000000044600E0641C052C12D2DFF8BC0D0C
:10059000215C8DF800102018007A8DF801000223EC
:1005A00000AA7221072001F0A6FB0028EBD1002051
:1005B00016BD012016BD0000233E50525000000021
:1005C0001CB50FF2880001F041FB0020ADF80400DB
:1005D0008DF8060001F028FE80208DF8040001ACA3
:1005E00000206070022301AA7221062001F083FB23
:1005F000002801D1002016BD8C208DF804000020B9
:100600006070DFF8CC4DA072022301AA722106208F
:1006100001F071FB002801D1002016BD01202074DB
:1006200001460420FFF7DAFD002801D1002016BDA5
:10063000012000900DF10603E5227221072001F050
:100640009CFB401E8041C043C00F16BD233E50524C
:100650004F00000000B583B00FF2640001F0F6FA1D
:100660000020ADF806008DF8040001F0DDFD8020CB
:100670008DF8060000208DF8070002230DF1060218
:100680007221062001F037FB002801D100200EBDA9
:10069000DFF83C0D002101740420FFF79FFD0028C6
:1006A00001D100200EBD0120009001ABE522722196
:1006B000072001F062FB401E8041C043C00F0EBD09
:1006C000233E5052430000000120704730B583B0F4
:1006D00004460020ADF80400DFF83C58687D00288F
:1006E00028D1012000900DF10503932272210620EC
:1006F00001F043FB00280DD09DF80500800724D5AC
:100700000120009001AB9C227221062001F035FBF4
:10071000002801D100203EBD9DF80400A97E51FAB9
:1007200080F080B2400820702078A8759DF8040001
:10073000A8760AE0012808D1DFF898094169AA7E65
:100740008918491021704069A87601203EBD2DE925
:10075000F04792B00446884601F066FD054601F078
:10076000FAF906460020ADF80800ADF80C008DF847
:100770000A00012000900DF10A0393227221062045
:1007800001F0FBFA002801D1002079E1042000905B
:1007900003AB94227221062001F0EFFA002801D168
:1007A00000206DE1DFF870779DF80D009DF80C10CA
:1007B00041EA0020DFF8041D4843F97AC1F5807151
:1007C0003A7BDFF8FC3CD25C12FB01F140F2423292
:1007D0005143B0FBF1F042F2117188420AD300207C
:1007E0003875F87B00281DD10120F873FFF78DFEC6
:1007F000012045E141F65831884211D2F87B0028AA
:100800000ED09DF80A0080060CD5387D411C397544
:10081000652807D30020F873FFF777FE01202FE14A
:10082000002038759DF80A00800640F128810020DC
:1008300078754146601CFFF749FFB87C002802D05C
:100840000020B8740EE1DFF8148D607888F800009D
:10085000787B00280AD001F0EBFD002806D1787CD7
:10086000002803D0607801F0F5FD87E0387C00288F
:1008700039D0787CB97A084335D1002030758C2086
:100880008DF808000DF10809202089F80100B872E0
:10089000022302AA7221062001F02DFA002801D1BC
:1008A0000020EDE089208DF80800002089F8010083
:1008B000022302AA7221072001F01DFA002801D1AB
:1008C0000020DDE08B208DF80800B5F87A0089F86B
:1008D0000100022302AA7221072001F00CFA00286D
:1008E00001D10020CCE0787C00280ED105F17A00FF
:1008F0004288B5F87A100FF2901001F0A7F96178EC
:100900000FF2941001F0A2F938E0414684B0684635
:10091000182202F0ABFB0FBC02F013F804A802F09F
:1009200076F8DFF86C9D484604A9342202F09EFB5D
:1009300099F81C00002814D097F808A03420DFF89C
:10094000941710FB0A104946342202F08FFB0AF17B
:1009500001003872C0B2092801D3401E387201204C
:10096000787209F11C00417D88F81410817D88F8A7
:100970001510007D002801D0FFF7B4FD387C002859
:1009800070D0787C00286DD16078B5F87A108842F4
:1009900031D3307D00282ED10120B873207020780B
:1009A000307589208DF808000DF1080905F17A00ED
:1009B000408889F80100022302AA7221072001F071
:1009C0009AF9002801D100205AE08B208DF8080008
:1009D000FF2089F80100022302AA7221072001F0FA
:1009E0008AF9002801D100204AE061780FF2B400B2
:1009F00001F02CF936E005F17A00408861788842F0
:100A000030D3307D01282DD10120B8730020207013
:100A10002078307589208DF808000DF10809002034
:100A200089F80100022302AA7221072001F063F96C
:100A3000002801D1002023E08B208DF80800B5F8B4
:100A40007A0089F80100022302AA7221072001F02E
:100A500052F9002801D1002012E061780FF24C0019
:100A600001F0F4F80120009003ABE5227221072089
:100A700001F083F9401E8041C043C00F00E0002018
:100A800012B0BDE8F0870000233E55703D25642C70
:100A90004C6F3D2564000000233E505241572025F5
:100AA00064000000233E503120256400233E503274
:100AB000202564002DE9F84304460D46DFF858640C
:100AC000F07D002804D000F0FFFD00203083B3E06B
:100AD00001F0AAFB804600273846ADF800002078D8
:100AE000072823D16078FF2820D12946601CFFF712
:100AF000EDFD6078B8F87A10884208D301202070A4
:100B0000627821780FF2341001F0A0F80CE0B8F808
:100B10007C006178884207D338462070627821785B
:100B20000FF2181001F092F8012085E000203083C8
:100B300029462046FFF70BFE00280DD0307C002808
:100B40000AD0B07B002807D00FF2041001F07EF825
:100B50000020B07301207076707C002866D0DFF82A
:100B6000BC8DD8F8189009F10C00417DC068D9F807
:100B70000C20801800F0D2F9002857D001203076E0
:100B8000707A002801D000207072307C00284BD091
:100B9000D9F80C0040780DF1000989F80100B18CFA
:100BA000814212D200F0D7FF007D00280DD1F07EE7
:100BB000401CF076C0B2022821D10020F076012737
:100BC00000F0C9FF3946017519E099F80100F18C70
:100BD000884212D200F0BFFF007D01280DD1F07EC7
:100BE000401CF076C0B2022809D10020F07601271F
:100BF00000F0B1FF0021017501E00020F076002F28
:100C000012D0D8F81C8000F0A6FF007D8DF80000FF
:100C100008F10C00427D00A9C068D8F80C30C0185B
:100C200002F04FFA012070760020307203F03CFA97
:100C300000283FF47BAF707EBDE8F283233E536C07
:100C40006565702041444320256420256400000030
:100C5000233E50555000000070B582B0064600207B
:100C6000ADF8000001F0E0FA04463078A4F87A000C
:100C700004F27A0570786880B4F87A00002802D00F
:100C80006888002808D10FF25C0000F0DFFF7820B0
:100C9000A4F87A000020688089208DF8000000AE5A
:100CA00068887070022300AA7221072001F023F8DF
:100CB000002801D1002076BD8B208DF80000B4F80B
:100CC0007A007070022300AA7221072001F013F845
:100CD000002801D1002076BD0FF64C5000F0B6FF81
:100CE000012076BD233E5054483D300080B50FF2C0
:100CF0001801072003F000FE0FF230010A20BDE8C2
:100D0000044003F0F9BD000071050008C1050008AA
:100D100055060008C906000800000000B50A0008D2
:100D2000590C0008000000000000000071050008D8
:100D3000C105000855060008C906000800000000AB
:100D4000CD060008590C000800000000000000005B
:100D500010B582B00FF6D84000F078FF0020ADF853
:100D60000000FFF711FA002803D10FF6CC4000F085
:100D70006DFF002400E0641C0B2C12D2DFF8680C1D
:100D80002118097B8DF80010205C8DF801000223EA
:100D900000AA7221062000F0AEFF0028EBD100204F
:100DA00016BD012016BD10B582B00FF6984000F0B8
:100DB0004DFF0020ADF8000001F036FA80208DF8DC
:100DC000000000AC00206070022300AA72210620FF
:100DD00000F091FF002801D1002016BD8C208DF875
:100DE000000000206070DFF8044CA072022300AA0B
:100DF0007221062000F07FFF002801D1002016BDDF
:100E000001206074FFF76EFB01210820FFF7E6F96F
:100E1000401E8041C043C00F16BD80B50FF62C4068
:100E200000F014FF0020ADF8000001F0FDF9802073
:100E30008DF8000000208DF80100022300AA722125
:100E4000062000F058FF002801D1002002BDDFF885
:100E50009C0B002141740820FFF7C0F9401E80411F
:100E6000C043C00F02BD0120704770B58EB02A4C40
:100E7000607B002814D001F0DBFA002810D0DFF8E6
:100E8000DC56281D0FC801F08CFB01F0DAFA0028AF
:100E90003CD000206073012068752875A87535E086
:100EA000607B002832D1DFF8B456294684B068460A
:100EB000182202F0DBF80FBC01F076FD00A801F06B
:100EC000A6FDDFF8CC67304600A9342202F0CEF848
:100ED00006F11C00417D2975817D6975007D002822
:100EE00001D0FFF7FFFA307F00280FD0257A342099
:100EF000784910FB05103146342202F0B7F8681C1F
:100F00002072C0B2092801D3401E207201200EB009
:100F100070BD0000B4370020F4360020FEB5044652
:100F200002A8002101600846ADF8040001F07CF938
:100F30000120009001AB93227221062000F01DFFDA
:100F4000002800F0A9809DF8040010F0040005D1ED
:100F5000DFF8981A497A002900F09E80002806D010
:100F6000DFF8880A417A002901D101214175012069
:100F700000900DF10503AE227221062000F0FDFE67
:100F8000002800F089809DF80500002842D0042048
:100F9000009002ABFC227221062000F0EEFE002839
:100FA0007AD09DF80850DFF8B415DFF8400A02AA9D
:100FB000437B002B1FD0DFF8383A1E7855FA86F5B0
:100FC0006D104D6055785E7856FA85F676108E6015
:100FD00096789F7857FA86F77F10CF60D278DF78BF
:100FE00057FA82F77F100F619DF8081019705D7035
:100FF0009E70DA7006E04D6053788B609378CB601A
:10100000D2780A61C17C002902D00021C17441E07C
:10101000FFF72BFF2F4908782070486960708869B6
:10102000A0704868E07088682071C86860710869BD
:10103000A071086AE071486A2072886A6072C86AA2
:10104000A072487FE072DFF8AC0900782073DFF807
:10105000A80900786073DFF8A4090078A073DFF8AE
:10106000A0090078E073DFF89C0900782074DFF8AD
:10107000980900786074DFF894090078A074DFF8AC
:101080006C09827DE274002202720878042801D182
:10109000104608700120FEBD0020FEBDDFF84C099F
:1010A000007E704780B5052802D1084600F002F89E
:1010B000012002BD80B5017841F04103DFF8281915
:1010C000CB70027801780FF68C1000F0BFFD012084
:1010D00002BD000084A5002070B584B00446002045
:1010E000019002A8002101600E4601F09DF80FF664
:1010F000781000F0ABFD01210820FFF76FF8A02069
:101100008DF806000DF106053046687002230DF1DA
:1011100006027221062000F0EEFD002801D13046C3
:10112000B6E0A1208DF80600FF20687002230DF1C3
:1011300006027221062000F0DEFD002801D13046B3
:10114000A6E0AB208DF806000120687002230DF1A7
:1011500006027221062000F0CEFD002801D13046A3
:1011600096E00120009001AB80227221062000F061
:1011700004FE002801D130468AE080208DF8060068
:101180009DF8040040F04500687002230DF106024E
:101190007221062000F0AFFD002801D1304677E033
:1011A000012000900DF10503AF227221062000F00E
:1011B000E4FD002801D100206AE09DF80500C00789
:1011C0000BD50420009002ABFC227221062000F017
:1011D000D4FD00280CD100205AE03046461CB0F562
:1011E0007A7FDDDB0FF6880000F030FD00204FE055
:1011F0009DF80800207002A8417861708178A17084
:10120000C078E0700120009001AB8022722106209E
:1012100000F0B3FD002801D1002039E080208DF8D6
:1012200006006B48007C00289DF8040003D000F005
:10123000BF0068700CE000F0BB006870DFF8D007FA
:101240000078002804D19DF8040000F0BA0068700E
:1012500002230DF106027221062000F04CFD002849
:1012600001D1002014E0AB208DF80600002068704A
:1012700002230DF106027221062000F03CFD002839
:1012800001D1002004E000210820FEF7A7FF012083
:1012900004B070BD0FF66001062003F02DBB10B541
:1012A00082B00FF2D87000F0D1FC0020ADF8000041
:1012B000044600E0641C052C12DADFF85807215CB4
:1012C0008DF800102018007A8DF80100022300AA82
:1012D0007221092000F00FFD0028EBD1002016BD7F
:1012E000012016BD00B583B00FF2987000F0AEFC7F
:1012F0000020ADF8060000F097FF80208DF8060072
:1013000000208DF8070002230DF10602722106204D
:1013100000F0F1FC002801D100200EBDDFF8F0063E
:10132000012101700220FEF759FF002801D10020A1
:101330000EBD0120009001ABE6227221072000F0D3
:101340001CFD401E8041C043C00F0EBDC4370020AD
:1013500000B583B00FF2347000F078FC0020ADF8D7
:10136000060000F061FF80208DF8060000208DF857
:10137000070002230DF106027221062000F0BBFCDB
:10138000002801D100200EBD0120009001AB8F226A
:101390007221072000F0F1FC002801D100200EBDD1
:1013A000DFF86C06002101700220FEF717FF00280D
:1013B00001D100200EBD0120009001ABE622722178
:1013C000072000F0DAFC401E8041C043C00F0EBD74
:1013D000F4360020012070473EB504460020ADF8E9
:1013E000040002908DF80600012000900DF1060324
:1013F00093227221062000F0C0FC00283BD09DF80B
:101400000600C00744D50220009001AB962272214D
:10141000092000F0B2FC00282DD09DF804002070B7
:1014200001AD687860700220009001AB98227221B3
:10143000092000F0A2FC00281DD09DF80400A07037
:101440006878E0700220009001AB9A227221092096
:1014500000F093FC00280ED09DF8040020716878FD
:1014600060710220009001AB94227221092000F0EB
:1014700084FC002801D100203EBD9DF80400A0712D
:101480006878E071DFF86405C17A2172007B6072D0
:101490006078217841EA0020E178A27842EA0121CF
:1014A0006279237943EA0222E379A47944EA0323A7
:1014B00002AC009400F054F801203EBD6094060098
:1014C000F41A00081CB504460020ADF806008DF89B
:1014D00004000120009001AB8F227221092000F04E
:1014E0004CFC002801D1002016BD9DF8040000F03E
:1014F000FC008DF80400012C0AD0042C04D0102C20
:1015000020D0402C23D027E040F001008DF80400CB
:101510008F208DF806009DF804008DF80700DFF895
:10152000CC049DF8041001F00301017302230DF1B6
:1015300006027221092000F0DEFB401E8041C043FC
:10154000C00F16BD40F002008DF80400E0E740F047
:1015500003008DF80400DBE7002016BDACA80020D6
:101560002DE9F04114460D460646A8192018C01A68
:10157000401C47103FB2002F00D50027DFF86C1445
:10158000087B0FF27052805CC97AC1F5807110FB44
:1015900001F240F6DC2C0CFB02F88902B1F5803F29
:1015A00001D34FF6FF71C9000A22B1FBF2F11028F6
:1015B00032D18B4230D30120FFF784FF002843D083
:1015C000EA1BE11B0698B74206DA0368F61B06EB36
:1015D000460C03EB8C030360AF4205DA03684FF45B
:1015E0007A7505FB02320260A74205DA02684FF401
:1015F000DD7303FB112101600168002901D5002181
:101600000160016841F2D80251430160B1FBF8F179
:1016100001600120BDE8F081102807D1642B05D2BC
:101620004020FFF74FFF0028CAD10DE0402802D12B
:1016300064398B4203D20128C2D1642BC0D210205E
:10164000FFF740FF0028BBD10020E3E70FF2CC41B9
:10165000092003F051B910B5E44C29202070002076
:1016600060700A20A0703120E0700A2020713220C2
:101670006071A0710020E0770120E075072221460B
:10168000E54801F01EFD00206077012010BD00003C
:1016900038A6002000B583B000A800210A4606C085
:1016A0000722D2490DF1010001F00BFDA0208DF8B9
:1016B0000000082300AA7221072000F01CFB401E36
:1016C0008041C043C00F0EBD00B583B000208DF82F
:1016D0000400C648417F8177828DFF2A0BD0002A03
:1016E0000CD0C37F5B1CC377521E8285DBB299424C
:1016F00001D20021C17700F01CF80DE090F8201015
:10170000012903D100F03AF901200EBDC18D818578
:101710000021C17700F00DF80120009001ABE32219
:101720007221072000F029FB401E8041C043C00FFA
:101730000EBD38B50020ADF80000AC4CA08D0028DF
:1017400003D1E08DA085A07F60770722E07FC0EB0A
:10175000C000B1494118204601F0B3FCFFF79AFFE1
:1017600080208DF8000000AD81206870022300AA5F
:101770007221072000F0BFFA002801D1002032BDFD
:10178000A7208DF80000608D6870022300AA7221E6
:10179000072000F0B0FA401E8041C043C00F32BDA8
:1017A00030B585B0044600208DF80C0060790290B9
:1017B00020790190E0780090A378627821780FF288
:1017C000D42000F043FA0120009003AB8022722164
:1017D000072000F0D2FA002801D1002021E0834840
:1017E0009DF80C10017700F067F88C4D8122FF21E5
:1017F000284601F08BF880222146681C01F061FC2C
:101800000020287081232A467221072000F073FAF5
:10181000002805D10FF2942000F018FA002000E013
:10182000012005B030BD80B501780F2904DA6F4A78
:10183000527F521C8A4205DA0FF27C2000F006FA31
:10184000002002BDC1EBC101734A29238B548918C2
:1018500000224A7042788A7182788A70C278CA708F
:1018600002790A7140794871012002BD5F48417FC9
:10187000491C41770120704780B55C498885002864
:1018800000D0C88501460FF2402000F0DFF90120AA
:1018900002BD564981F820000120704780B560499B
:1018A000087009784900514A518501460FF22820F5
:1018B00000F0CCF9012002BD00B583B00020ADF8E6
:1018C00006008DF8040080208DF8060001208DF8B8
:1018D000070002230DF106027221072000F00BFA27
:1018E000002801D100200EBD102000904D4BA022F9
:1018F0007221072000F041FA002801D100200EBD1E
:101900000120009001AB80227221072000F035FAFF
:10191000401E8041C043C00F0EBD000000000020EB
:1019200000B587B00020ADF8000001A8142103F035
:1019300011FA80208DF8000001208DF801000223AB
:1019400000AA7221072000F0D6F9002801D100205A
:1019500012E0102233490DF1050001F0B2FBA02086
:101960008DF80400112301AA7221072000F0C3F9A9
:10197000401E8041C043C00F07B000BD1CB5002011
:10198000ADF806008DF8040000F04EFC174C217FE6
:101990000FF2541000F05AF90020E075E0776077FC
:1019A000A08584F82000FFF7BBFF80208DF806009B
:1019B000207F8DF8070002230DF106027221072017
:1019C00000F099F9002801D1002016BD01200090F7
:1019D00001ABE3227221072000F0CFF9401E8041C5
:1019E000C043C00F16BD00004C370020F436002065
:1019F00084AB0020DBAB002000AB002001AB00205B
:101A000002AB002003AB002005AB002006AB00209A
:101A1000D9AB0020D4370020DC7A0020C099002008
:101A2000DAAB002084A90020233E544853455400DB
:101A3000233E474550000000233E47504641494C55
:101A400000000000233E47454F000000233E47456D
:101A5000430000003D3E4745204355202578202582
:101A60007820257800000000233E4753454C46006F
:101A7000233E47535445525200000000233E4C4938
:101A800047500000233E4C49474F0000233E4C493D
:101A9000474300004D4244202564202564202564EE
:101AA0002025642025642025640000004D6F6265B8
:101AB000616D2057460000004D6F6265616D2048E2
:101AC0006F70204661696C004D4220486F70436F13
:101AD000756E7420256400004D6F6265616D204C49
:101AE000656E3D25640000004D4220436C6F7365B8
:101AF0002025640001041040510D0008A70D0008C6
:101B00001B0E0008670E0008000000009D10000872
:101B100000000000D9100008A51000089F1200085E
:101B2000E512000851130008D5130008000000005A
:101B3000D9130008000000000000000000000000B1
:101B400010B5DFF86C464FF48E720021204600F08D
:101B5000DDFE204610BDDFF85806704710B5FFF7D0
:101B6000EFFF044600231A461146084600F04CFADF
:101B7000C046C04601F0BCFA204600F018F801F05B
:101B8000FFFC204600F0B2F9204600F014F8204691
:101B900000F018F800F073F900206072A072E07293
:101BA0002073012060730020E075012010BD00212A
:101BB000C17101722BE010B5044601F040FB012019
:101BC000607110BD10B5044601F0A7FB0120A071A3
:101BD00010BD38B50446012501F052FC012804D19E
:101BE0002846E0700020A0700AE0022804D10020FE
:101BF000E0702846A07003E00020E070A070054669
:101C0000284632BD80B501F081FD012002BD10B52E
:101C10000446E07901F084FE0121217010BD70B509
:101C200004460025E679E171FFF7F1FF002807D0AF
:101C30002046FFF7C0FF2046FFF7C4FF012503E061
:101C4000E6712046FFF7E3FF284670BD0EB470B57D
:101C5000C1B0054600A84FF4807103F07BF8FFF790
:101C60007AFF044645AB2A464FF4807100A803F082
:101C700081F800A803F09CF8451C00A82818002152
:101C800000F8011CDFF82C653078401C307003F040
:101C90000AF97078401C7070207E2818FF2810DA2E
:101CA000207E002803D0207E00190A2101762A46D2
:101CB00000A9207E0019193001F003FA207E2818AF
:101CC00020767078401E7070C0B2002801D103F0F9
:101CD000E4F803F08BF941B070BC5DF810FB042808
:101CE000DFF8B40403D8DFF8B41401607047DFF8FC
:101CF000C814016070472DE9F84305460E461746A3
:101D00004FF0020803F0CFF8DFF8A8446078401CD9
:101D100060709DF80000401E8DF8000017F8019BD0
:101D20002846FFF7DCFF00AB4A463946304601F053
:101D30001FFE002809D06078401E6070C0B20028E5
:101D400001D103F0AAF8012015E05FFA88F84246B5
:101D500029460FF27840FFF779FF4046A0F10108CD
:101D60000028E0D16078401E6070C0B2002801D128
:101D700003F093F80020BDE8F2832DE9F047044614
:101D80000D4616461F460898DFF8148488F80000B0
:101D900003F089F8DFF81C9499F80100401C89F8D9
:101DA00001002046FFF79BFF4FF0020A43463246F0
:101DB0003946284601F086FE00280BD099F801002C
:101DC000401E89F80100C0B2002801D103F065F877
:101DD000012017E05FFA8AFA524621460FF2F830E6
:101DE000FFF734FF5046A0F1010A0028DED199F830
:101DF0000100401E89F80100C0B2002801D103F0A3
:101E00004CF80020BDE8F0872DE9F84305460E4662
:101E1000174698464FF0020903F045F8DFF894435F
:101E20006078401C60702846FFF759FF42463946EB
:101E3000304601F039FF002809D06078401E6070FC
:101E4000C0B2002801D103F028F8012015E05FFAA4
:101E500089F94A4629460FF28C30FFF7F7FE4846CB
:101E6000A0F101090028E1D16078401E6070C0B285
:101E7000002801D103F011F80020BDE8F28302F040
:101E8000A9BEF8B5044600273D46CC4E0DE03946C4
:101E90004F1EC9B200290AD1002804D120690121AE
:101EA000A9408843206100276D1C142D10DA56F8D4
:101EB0002500006E006880470128E8D121690122D1
:101EC000AA401143216156F8251001220A77E3E761
:101ED0002069032805D02069022802D02069012842
:101EE00003D1206940F480502061F1BD01F0D0BFE2
:101EF00002F04FB881B00022ADF80220ADF800200A
:101F0000C079042808D0062809D008280AD0092852
:101F10000BD00A280CD00EE04FF4C8600DE04FF44F
:101F200048600AE04FF4C85007E04FF4FA5004E06C
:101F300042F2107001E041F27070ADF802200DE045
:101F4000BDF80020521CADF80020BDF800208242F0
:101F5000F6DBBDF80220521CADF80220BDF80220CD
:101F60008A4203D20022ADF80020EEE701B07047AC
:101F7000417210B58CB003F0C5F80446FFF7EBFDD5
:101F80000021ADF82A1001910A218DF808100021D6
:101F90008DF809108DF80A10407A00280DD0002C19
:101FA00018D008468DF80000052001900B208DF810
:101FB000080000A804F05CFE0CE0002C0AD0012010
:101FC0008DF80000052001900B208DF8080000A876
:101FD00004F04EFE0CB010BD02F002B802F00AB8D8
:101FE00001210846F8E701210846F7E70221012010
:101FF000F2E702210120F1E702F006B810B504462D
:10200000FFF7A9FD447510BDF8B54FF47A743C266E
:102010004FF4616C10FB0CF511FB065545FA82F587
:1020200004FB05355F4F97F900E01EFB0CFC97F9A8
:1020300001E01EFB06C697F902C046FA8CF6B7F916
:1020400003C004FB06C4AC4206D32A4621460FF265
:10205000A010BDE8F840F9E50FD22E1BA6F2D17C06
:10206000DFF85CE1F44508D333462A4621460FF2F7
:10207000901001B0BDE8F040E8E53870002801D5C7
:10208000183038707970BA70A7F80330F1BD10B508
:1020900004002FD003F0E9F842498A68002A00D0F2
:1020A000841AB1F80320A218A1F8032012B2B2F5E5
:1020B0007A7F06DBA2F57A72A1F803208A78521C97
:1020C0008A7091F902203C2A04DB3C3A8A704A78F3
:1020D000521C4A7091F901203C2A04DB3C3A4A70B8
:1020E0000A78521C0A7091F90020182A01DB00229C
:1020F0000A70886010BD2B49052200F0A7BF0000C0
:102100000FB470B52DED028B1546274E284604F00E
:10211000E1FE0022254B04F0EBFE306171619FED82
:10212000298B069804F0D6FE53EC182B04F0E0FE41
:1021300030607160079C204604F0CCFE53EC182BF5
:1021400004F0D6FEB060F1609DF8240030769DF872
:10215000250070769DF82600B0769DF82700F07671
:102160009DF828003077BDF82900A6F81D00BDF8BD
:102170002B00A6F81F002B46224606990FF294006A
:10218000FFF764FDBDEC028B70BC5DF814FB0649E3
:10219000222200F05BBF00002C38002000540040D9
:1021A000DDAB00206CAA002058A7002000408F4023
:1021B0004C8E0020243700200058004000000020F2
:1021C0005F4C26050000000080842E4149574520C1
:1021D00025642025640000004952452025642025FF
:1021E0006400000049524F4520256420256400000A
:1021F00041542D53657454533120256420256400C7
:1022000041542D5365745453322025642025642095
:102210002564000050443A20536574506F732025A4
:10222000642025642025640000487047A0980020A1
:1022300000214FF0804200E092089042FCD3002A37
:1022400009D05318984203D3401A801A01EB420177
:1022500049089208F3E708467047002802D400F0C6
:102260007F0002E0404240F08000C0B2704700F0C2
:102270007F01802800D349420846704730B40446A5
:102280000D46A54200DA2C461546A54200DA2C463A
:10229000A34200DA1C46204630BC704730B40446E6
:1022A0000D46AC4200DA2C461546AC4200DA2C460C
:1022B0009C4200DA1C46204630BC70471849002278
:1022C0004A608A600861C860704770B50546144C62
:1022D000A0682169626823689A4214DB91FBF3F6D7
:1022E000266190FBF3F0FFF7A3FFA060072804DB53
:1022F0002846FFF7E3FF002070BDE660256100215E
:102300006160A16070BD521C626069182161E16862
:10231000491B01FB0100A060002070BD000000000F
:10232000643700200EB47FB5044608A80FC80C9D82
:1023300005FB00F6009605FB01F6019605FB03F68A
:10234000039605FB02F00290204600A9102200F03F
:102350008DFE04B070BC5DF810FB10B40C181C1995
:10236000101910BC70470A7822EA00000870704704
:102370000A7810430870704730B583B004460D46A4
:102380000020ADF806000120009001AB224672212A
:102390000720FFF7F2FC002801D100203EBD01A973
:1023A0002846FFF7E5FF8DF806409DF804008DF8FC
:1023B000070002230DF1060272210720FFF79BFCA4
:1023C000401E8041C043C00F3EBD30B583B00446BF
:1023D0000D460020ADF806000120009001AB22461A
:1023E00072210720FFF7C9FC002801D100203EBD63
:1023F00001A92846FFF7B7FF8DF806409DF80400B5
:102400008DF8070002230DF1060272210720FFF765
:1024100072FC401E8041C043C00F3EBDDFF8E404A3
:1024200000210170C17008214170817000F01DBB56
:10243000DFF8D0040078032801D101207047002084
:102440007047DFF8C0040078042801D101207047EC
:102450000020704738B50546FFF77DFBDFF8A44440
:10246000207800280ED10F219F20FFF7AEFF062114
:102470009F20FFF781FF012020700020E0700120E5
:10248000207231BD012831D1207A002833D1E07883
:1024900002280AD061784908A94206D30120E070D9
:1024A00000F0B6F8002853D10BE0012809D0A0783D
:1024B0004008A84205D20220E07000F0CBF80028C6
:1024C00046D1E078012802D10020E07031BD022021
:1024D00020700020E0700F219F20FFF776FF092178
:1024E0009F20FFF749FF0120207231BD02282FD124
:1024F000207A002802D00020207231BDE078022826
:1025000009D060784008A84205D30120E07000F0AF
:10251000C2F800281CD1E078012809D0A078400832
:10252000A84205D20220E07000F0D7F800280FD1B1
:10253000E078012802D10020E07031BD0F219F20FA
:10254000FFF743FF032020700020E070012020727D
:1025500031BD38B50020ADF80000DFF8AC4320787D
:10256000FFF785FE9D218DF8001000ADFFF775FE89
:102570006870022300AA72210720FFF7BCFB002825
:102580000ED06078FFF773FE9E218DF80010FFF7E4
:1025900064FE6870022300AA72210720FFF7ABFBDC
:1025A00031BD3FB581B0D74C207803282ED101A88A
:1025B0000FC8FFF763FE054601A80FC8FFF76EFEC0
:1025C000E17802290BD06278AA4208DB0120E07092
:1025D00001A80FC800F0A2F8002817D10CE00129CB
:1025E0000AD0A178814207DA0220E07001A80FC862
:1025F00000F010F9002809D1E078012802D100206C
:10260000E07003E0042020700020E07005B030BDD1
:1026100010B582B00020ADF80000BB4C2078FFF769
:1026200026FE10F17F0F01D1002016BD9D218DF8EF
:102630000010401EFFF711FE8DF8010020700223EC
:1026400000AA72210720FFF756FB401E8041C043BD
:10265000C00F16BD10B582B00020ADF80000AA4C26
:102660002078FFF704FE7F2801D1002016BD9D21B0
:102670008DF80010401CFFF7F0FD8DF80100207070
:10268000022300AA72210720FFF735FB401E80417C
:10269000C043C00F16BD10B582B00020ADF80000D9
:1026A000994C6078FFF7E3FD10F17F0F01D1002016
:1026B00016BD9E218DF80010401EFFF7CEFD8DF84F
:1026C00001006070022300AA72210720FFF713FBAC
:1026D000401E8041C043C00F16BD10B582B000201F
:1026E000ADF80000884C6078FFF7C1FD7F2801D16C
:1026F000002016BD9E218DF80010401CFFF7ADFD97
:102700008DF801006070022300AA72210720FFF7F4
:10271000F2FA401E8041C043C00F16BD3FB581B0E4
:1027200000252846ADF80000764C01986178884273
:1027300017DA2079FFF79BFD10F17F0F11D0A4214C
:102740008DF80010401EFFF788FD00A94870207129
:10275000022300AA72210720FFF7CDFA002853D0E8
:10276000012502986178884217DA6079FFF77FFDCA
:1027700010F17F0F11D0A5218DF80010401EFFF73A
:102780006CFD00A948706071022300AA7221072025
:10279000FFF7B1FA002837D0012503986178884205
:1027A00017DAA079FFF763FD10F17F0F11D0A72191
:1027B0008DF80010401EFFF750FD00A94870A07171
:1027C000022300AA72210720FFF795FA00281BD0E8
:1027D000012504986178884219DAE079FFF747FD0E
:1027E00010F17F0F13D0A9218DF80010401EFFF7C4
:1027F00034FD00A94870E071022300AA722107206D
:10280000FFF779FA002801D1002001E001252846D0
:1028100005B030BD3FB581B000252846ADF80000B9
:10282000384CA0780199884216DA2079FFF71FFD0D
:102830007F2811D0A4218DF80010401CFFF70DFD5A
:1028400000A948702071022300AA72210720FFF717
:1028500052FA002850D00125A0780299884216DA51
:102860006079FFF704FD7F2811D0A5218DF80010B5
:10287000401CFFF7F2FC00A948706071022300AA17
:1028800072210720FFF737FA002835D00125A078FC
:102890000399884216DAA079FFF7E9FC7F2811D066
:1028A000A7218DF80010401CFFF7D7FC00A9487045
:1028B000A071022300AA72210720FFF71CFA00284A
:1028C0001AD00125A0780499884218DAE079FFF738
:1028D000CEFC7F2813D0A9218DF80010401CFFF7F3
:1028E000BCFC00A94870E071022300AA72210720F5
:1028F000FFF701FA002801D1002001E00125284658
:1029000005B030BDFCAA002005AB002010B5044680
:1029100010460A460146204604F00EFC204610BD33
:10292000DFF800070021C161DFF8FC1600220A77FA
:1029300001224A7700221046086381F82000C877F8
:1029400070470FB410B5DFF8DC469DF81D00411E3E
:102950008941C90F6177201D03A9102200F086FB71
:10296000DFF8C4069DF81E104177002180F8201082
:1029700001779DF80810002907D1217F4A1C227792
:1029800006290ED3012101770BE000202077607F1C
:1029900000289DF8080002D100F015F901E000F0D0
:1029A0009DF810BC5DF814FB0FB438B5DFF8744621
:1029B0009DF82400411E8941C90FE177201D05A91A
:1029C000102200F053FBDFF860569DF82600687770
:1029D00005A80FC8FFF762FC60616861002085F8F8
:1029E00020002877E07F002804D105A80FC800F058
:1029F0008FF909E0A07F002805A80FC802D000F0D9
:102A0000C0F901E000F0E2F931BC5DF814FBF0B56B
:102A10000446DFF8185605F11C06DFF80806C17FEA
:102A20004A1E9241D20F7275407F411E8941C90FE3
:102A3000B175DFF8F475387F307597F82000287786
:102A4000284639461C2200F011FBB87F707005F152
:102A50002000DFF8DC15102200F008FB2046294694
:102A60003422BDE8F04000F001BB10B582B0002078
:102A7000ADF80000A0208DF8000000AC00206070D0
:102A8000DFF8B00500210170022300AA722107209F
:102A9000FFF731F9002801D1002016BDA1208DF8E3
:102AA0000000FF206070022300AA72210720FFF7B8
:102AB00022F9002801D1002016BD8021A320FFF7B4
:102AC0005BFC3C21A220FFF757FCDFF858050021F2
:102AD0008177DFF854050163012016BD10B5044667
:102AE000DFF84005807F0028204602D0BDE8104076
:102AF0000BE000F01EF8DFF83005C07F002803D19E
:102B00002046BDE8104038E010BD10B5DFF818458C
:102B1000E07F01280CD1201DDFF81C15102200F0E9
:102B2000A5FA04202070012084F820000020E0771E
:102B300010BD10B5DFF8F044E17F012909D100F0A4
:102B4000C9F8002802D00420E07710BD0020E06220
:102B500010BD002909D100F0B5F8002802D00220EC
:102B6000E07710BD0020E06210BDE06A411CE16228
:102B70000B2801DB0020E06210BD10B5044600F018
:102B800055F8204600F05DF8204600F065F8204634
:102B900000F06DF8DFF88C04416A01EB8102D1008E
:102BA000642291FBF2F1826B436B9A4204DAC06AB1
:102BB000052290FBF2F003E0806A142290FBF2F011
:102BC000BDE810408EE038B5044600F014F8204609
:102BD00000F01AF8DFF84C54686A00EB8001C80076
:102BE000642190FBF1F104EB8400400000F07AF8DE
:102BF0000120687731BDDFF82C144FF4FA620A62C5
:102C0000C8224A62FFF75ABBDFF81814C82212FB29
:102C100000F28A62322212FB00F2CA6200EB8002EA
:102C200052000A6348638863C863704710B5014661
:102C3000DFF8F04304F130020A2000F025F8E063E9
:102C400010BD10B50146DFF8DC4304F12C02322040
:102C500000F01AF8A06310BD10B50146DFF8C443B8
:102C600004F12802C82000F00FF8606310BD10B511
:102C7000FFF72BFB642101FB00F4002C02D020465F
:102C800000F013F8204610BD10B400EBD0735B10B9
:102C90001468091900FB0131441C91FBF4F1116027
:102CA000591891FBF0F010BC704710B5014601298E
:102CB00000DA0121DB4C04F120020A20FFF7E4FFD7
:102CC000606210BDD849496A814201DA012070472B
:102CD00000207047D449896A884201DA0120704790
:102CE00000207047B0F5207F01DD4FF420700A29E5
:102CF00001DA0A2102E0652900DB64210818401D81
:102D00000A2190FBF1F0C0B2C7494862886270475F
:102D100080B500F004F8C3480121C17701BD0FB5AB
:102D200087B0C820019007A883B069460CC80CC1C1
:102D30000CC80CC10EBC02A8FFF7F4FABF4802A9E8
:102D4000102200F093F90A20019007A883B0694689
:102D50000CC80CC10CC80CC10EBC02A8FFF7E2FAEB
:102D6000B74802A9102200F081F9B64807A910223D
:102D700000F07CF9B44807A9102200F077F90BB0F5
:102D800000BD00BF1FB5A84CE07F002802D001287D
:102D90000ED01FBD0020A061201D00A9102200F050
:102DA00065F902202070012084F82000E0771FBD23
:102DB000201D00A9102200F059F901202070A069FF
:102DC000401CA061012084F820001FBD1FB5964C57
:102DD000E07F002803D0012084F8200003E000A851
:102DE0000FC800F037F800A80FC800F00AF8607F9D
:102DF000002805D0206B662802DBBDE81F40D8E024
:102E00001FBD1FB5884CE07F012804D002280DD0DB
:102E1000042817D01FBD201D00A9102200F026F99C
:102E200001202070A069401CA0611FBD0020A0618E
:102E3000201D00A9102200F019F9022020700120A5
:102E4000E0771FBD042020700020E077012084F887
:102E500020001FBDFFB585B07348016B491C01639D
:102E600005A883B069460CC80CC10CC80CC10EBCC7
:102E700001A800F025F805A883B069460CC80CC16C
:102E80000CC80CC10EBC01A800F040F86E4C94E8D0
:102E90000F00FFF762FA0546654E6A4F97E80F008C
:102EA000FFF75BFA8542304604DA2146102200F033
:102EB000DDF803E03946102200F0D8F809B0F0BD83
:102EC0000EB430B588B004460BAD0BA80FC885E82A
:102ED0000F005A4802900BA882B069460CC80CC17A
:102EE0000CC80CC10CBCC82103A800F035F8554D26
:102EF000284603A9102200F0B9F8204629461022DE
:102F000000F0B4F808B030BC5DF810FB0EB430B57A
:102F100088B004460BAD0BA80FC885E80F004848E1
:102F200002900BA882B069460CC80CC10CC80CC139
:102F30000CBC0A2103A800F00FF8434D284603A952
:102F4000102200F093F820462946102200F08EF857
:102F500008B030BC5DF810FB0CB47FB504460D46DC
:102F600008AE08A80FC886E80F000C9E324601463E
:102F70002846FFF789FE0090321D09992846FFF781
:102F800083FE019006F10C020B992846FFF77CFEA8
:102F9000039006F108020A992846FFF775FE029091
:102FA000204600A9102200F061F804B070BC5DF862
:102FB0000CFB38B50020ADF800001B4CA06AA077D0
:102FC000A0208DF8000000AD606A6870687819492B
:102FD0000870022300AA72210720FEF78CFE002849
:102FE00001D1002032BDA1208DF80000A07F6870C3
:102FF000022300AA72210720FEF77DFE002801D1DE
:10300000002032BD8021A320FFF7DFF93C21A22060
:10301000FFF7DBF903480121817700202063084690
:1030200032BD000004A500206CA60020A0A6002050
:10303000D4A90020DBAB002008A5002094A9002023
:10304000B4A90020A4A90020C4A9002062B38B0762
:1030500008D0521E11F8013B00F8013B00F024801B
:103060008B07F6D1830740F0208000BF103A07D3CA
:1030700030B4B1E83810103AA0E83810F9D230BCBA
:10308000530724BFB1E80810A0E8081044BF51F866
:10309000043B40F8043BD20724BF31F8022B20F850
:1030A000022B44BF0B7803707047083A07D3B1E88E
:1030B0000810083A40F8043B40F804CBF7D2530715
:1030C000E4E710B50446FFF7C1FF204610BD50F8F5
:1030D000041B61B150F8042BD30744BFA9F10103CD
:1030E0009A18002342F8043B091FFAD1EFE7704712
:1030F0007CB50121032004F0B4F8DFF8A84B20468A
:1031000004F02EF9DFF8845D284604F029F9012047
:103110008DF8040000208DF8050001208DF80600D0
:1031200000208DF80700012128460183C0460120B8
:10313000009000A9284604F06FF902212846018377
:10314000C0460220009000A9284604F065F901203D
:103150008DF8040000208DF80500ADF806004FF44E
:103160008056009600A9284604F056F931462846B4
:103170004183C04601208DF8040000208DF8050031
:1031800001208DF8060000208DF80700009600A9A8
:10319000204604F041F9314620464183C0460422CE
:1031A0000621284604F086F904220721284604F067
:1031B00081F902208DF8040001208DF805008DF8BA
:1031C000060000208DF807004020009000A9284646
:1031D00004F022F98020009000A9284604F01CF990
:1031E00004220A21284604F065F909220321284611
:1031F00004F060F902208DF8040001208DF805002C
:103200008DF8060000208DF807004FF480600090D4
:1032100000A9284604F000F90820009000A92846DB
:1032200004F0FAF8286820F0300040F01000286020
:10323000206820F0300040F01000206073BD2DE9C0
:10324000FF4101214FF4001004F016F80121022083
:1032500004F007F801214FF4804004F018F8012130
:103260004FF4001004F029F800214FF4001004F08E
:1032700024F80020ADF804004BF6FF74ADF80640CA
:103280004FF48065ADF80A504FF480463046ADF8F3
:103290000C000A20ADF80800DFF85C7C0097DFF82E
:1032A0005C8C00A9404604F048F90121404604F036
:1032B000A7F90A20ADF80800009701214FF480001B
:1032C00003F0DAFF0121022003F0CBFF01214FF4CC
:1032D000800003F0F2FF00214FF4800003F0EDFFC7
:1032E0000020ADF80400ADF80640ADF80A50ADF886
:1032F0000C600A20ADF808000097DFF8044C00A924
:10330000204604F01AF90121204604F079F9DFF88B
:10331000C40CC0F80080BDE8FF812DE9F04192B0F7
:1033200001214FF4805003F0B2FF0121084603F061
:1033300098FF01214FF4800003F093FFDFF8644908
:1033400005221146204604F0B5F805220721204643
:1033500004F0B0F805220621204604F0ABF805225F
:103360000421204604F0A6F802208DF80400012074
:103370008DF805000020ADF806002020009000A97F
:10338000204604F049F88020009000A9204604F06F
:1033900043F84020009000A9204604F03DF810209A
:1033A000009000A9204604F037F8DFF8F04B2046E3
:1033B00004F088F9DFF8E85B0020288068600120CD
:1033C000288100206881E86007202882002068802A
:1033D000DFF8046C304604F0E5F9DFF8007C38468D
:1033E00004F0E0F94FF48060069000210D91032174
:1033F0000E9100210F910A910890DFF8B80C03900C
:1034000008461090099007904FF400300C90084641
:103410000B904FF0C068CDF808804020059008461A
:10342000049002A9304604F041FA00200B90CDF838
:103430000880059005F11400049002A9384604F0B4
:1034400035FA002068802946204604F06AF90122F6
:103450000221204604F094F901221146204604F08E
:103460008FF90121204604F07FF90021304604F055
:1034700044FA0021384604F040FA12B0BDE8F08169
:1034800010B588B001214FF0805003F0F5FE012106
:103490004FF4802003F0E5FE012004F097FA0F209E
:1034A00004F044FC0446012003F0D8FE002003F0A1
:1034B000D5FE002C01D004F0FBFE012003F070FECD
:1034C000412003F010FF0028FAD04FF4807003F081
:1034D000AFFE012003F0BFFE04F0CBFA3F200690C0
:1034E00040F2FF1007900020059005A804F078FA3C
:1034F0000020029002A904F0DDFA00208DF80700F8
:1035000001208DF804008DF805008DF8060001A952
:10351000002004F048FB4FF4800005F017F84FF44A
:103520008000039000208DF8100008208DF8110015
:1035300001208DF8120003A804F0C6FF03208DF8C7
:1035400000000D208DF8010000208DF80200012000
:103550008DF8030000A805F006F8032004F097FB9F
:103560004FF4804004F04DFC4FF4800004F0EEFF77
:1035700001214FF4804004F00AFC012008B010BD86
:1035800030B585B00121084603F06BFE01214FF4F0
:10359000804003F07CFE00208DF810008DF81300B1
:1035A00001200390DFF8FC5603A9284603F034FFFE
:1035B0004FF40064039403A9284603F02DFF042070
:1035C000039003A9284603F027FF0021084605F0D1
:1035D00003F80B21002004F0FFFF0221002004F07B
:1035E000FBFF00208DF8080001208DF80A000190F3
:1035F0000C208DF8090001A804F066FF01940C204E
:103600008DF8090001A804F05FFF204604F09EFF3A
:10361000042001900C208DF8090001A804F054FF4B
:10362000042004F093FF28208DF800000F208DF86F
:10363000010000208DF8020001208DF8030000A891
:1036400004F091FF05B030BD30B58DB004460121C6
:103650004FF4807003F01BFE00A803F017FF0A2050
:10366000009003208DF8040000208DF8070000A9C9
:10367000DFF8300603F0D0FE04F0C2FF02A805F028
:1036800004F84FF48030039002A804F0F0FF06A87D
:1036900004F0E3FFDFF85C5C06A9284604F0BDFFF8
:1036A000072301222146284605F000F8012128467B
:1036B00005F041F80121284604F0EDFF0DB030BDC2
:1036C00038B5DFF8304C204605F030F84FF47A7505
:1036D0000221204605F046F8002803D12846451E61
:1036E0000128F5DA2046BDE8324005F02FB880B554
:1036F0000021DFF8000C04F0CEFF00214FF48070B1
:10370000BDE8044003F0C3BD0000000038B504006C
:1037100039D0012004F05AF9002004F0D2FA4FF415
:103720000055042004F04EFB012804D12846451E14
:1037300080B20028F5D100EE104AB8EE400ADFED65
:103740008A0A80EE800AF0EE000A20EE200ADFED01
:10375000870A80EE800ABDEEC00A10EE100A401EF5
:1037600080B204F0A4FA4FF4804004F04AFB4FF416
:10377000800004F0EBFE012004F0A3FADFF8940BC4
:103780000121416031BD012004F020F90020BDE895
:10379000324004F096BA000030B401460120002304
:1037A000DFF8742B1C469460946814F00C0FFBD166
:1037B0000C460B2C55D8DFE804F02054545406195D
:1037C0002031383F464D946844F080049460DFF81F
:1037D0004C4B4FF4C0652560146824F0807414606D
:1037E000DFF83C4BDFF83C5B25603BE00346DFF84D
:1037F000304BDFF8345B256034E094689460DFF888
:103800001C4B4FF4C0652560146824F0807414606C
:10381000DFF80C4BDFF8145B256023E00223DFF8B0
:10382000004BDFF80C5B25601CE00323DFF8F04A57
:10383000DFF8005B256015E00423DFF8E44ADFF8D9
:10384000F85A25600EE00523DFF8D44ADFF8EC5A79
:10385000256007E00623DFF8C84ADFF8E45A256050
:1038600000E01846002B4AD003EBC3030FF63434B4
:103870001B1994689460146824F0807414601468B0
:1038800024F0806414609C781D8844EA8514DD78F7
:103890006D086D1E44EA05441D7944EA05645460D0
:1038A000DC881D7A2D0745EA8414DFF8985A2C60CD
:1038B000146844F0807414601468A401FCD55B792A
:1038C00043F4C063DFF8544A2360936893609368BD
:1038D0009360052904D1916841F09001916005E061
:1038E0000A2903D1916841F480519160916841F0B7
:1038F00002019160916801F00C010829FAD1DFF80A
:10390000201A0968DFF8402A914207D2DFF83C1AF2
:103910000A6822F4404242F480420A6030BC704798
:103920003AE710B5DFF8284A0121206803F0A1FE2C
:10393000206803F0D3FDBDE8104080E430B40022DD
:10394000838A008BDFF8084A656843EA0040084034
:10395000000255EA102060600840884200D1012230
:10396000104630BC7047000000007A440000004759
:103970002DE9F84F04460D4616464FF420491F78AE
:10398000DFF850864FF40031D8F8000003F07CFED9
:10399000002808D04846A0F101090028F2D1FFF71D
:1039A000C0FF00208CE0D8F8000001884FF6FF52DD
:1039B000114001800121D8F8000003F02DFE4FF4E2
:1039C000805AD1460020C8F80400D8F800B0DFF8CB
:1039D00084195846FFF7B2FF002805D14846A0F1E8
:1039E00001090028F1D163E0D14600222146584662
:1039F00003F02AFE0020C8F80400D8F80040DFF8E1
:103A000058192046FFF79AFF002805D14846A0F133
:103A100001090028F1D14BE03146C9B220460182AC
:103A2000C046D1460020C8F80400D8F80040DFF8AE
:103A30002C192046FFF782FF002805D14846A0F147
:103A400001090028F1D133E0012F15D12978204652
:103A50000182C046D1460020C8F80400DFF80019F2
:103A6000D8F80000FFF76AFF002823D14846A0F1EC
:103A700001090028F2D11BE03846471EC0B20028D9
:103A800018D015F8011BD8F800000182C046D146B5
:103A90000020C8F80400DFF8C818D8F80000FFF7C5
:103AA0004DFF0028E8D14846A0F101090028F2D1D5
:103AB000002005E00121D8F8000003F0B9FD012045
:103AC000BDE8F28F2DE9F54F81B00D461E464FF44B
:103AD00020483778DFF8FC444FF40031206803F0C9
:103AE000D3FD002808D04046A0F101080028F3D1FA
:103AF000FFF717FF0020D3E0206801884FF6FF5240
:103B0000114001800121206803F086FD4FF48059A7
:103B1000C84600206060DFF83CA8D4F800B05146E9
:103B20005846FFF70BFF002805D14046A0F10108D9
:103B30000028F2D191E000229DF80410584603F0CD
:103B400083FDC84600206060D4F800B0DFF8081894
:103B50005846FFF7F3FE002805D14046A0F10108C2
:103B60000028F1D179E0BDF80810C9B258460182A9
:103B7000C046C846DFF8EC17206803F085FD002832
:103B800005D14046A0F101080028F3D165E00121EC
:103B9000206803F041FDC84600206060D4F800B002
:103BA00051465846FFF7CAFE002805D14046A0F10D
:103BB00001080028F2D150E001229DF80410584677
:103BC00003F042FD022FC84639D2DFF89C17206867
:103BD00003F05AFD002805D14046A0F10108002855
:103BE000F3D13AE00021206803F037FD2068018B13
:103BF000012103F01DFDC846DFF87017206803F0AF
:103C000043FD002805D14046A0F101080028F3D16A
:103C100023E02068008AC0B228703078401E3070DF
:103C2000C84620680188890505D54046A0F10108ED
:103C30000028F6D111E0012103F00FFD2BE0002058
:103C40006060DFF82C172068FFF778FE002806D1A7
:103C50004046A0F101080028F3D1002020E0012611
:103C600016E0012F0CD1012E0AD100263146206822
:103C700003F0F3FC2068818A018B012103F0D8FC5A
:103C80002068818A490603D5008A05F8010B7F1E4A
:103C9000FFB2002FE5D10121206803F0DEFC0120F6
:103CA000BDE8FE8F000002402DE9F04707460D46B3
:103CB00016464FF42048C74C4FF40031206803F0FB
:103CC000E3FC002808D04046A0F101080028F3D109
:103CD000FFF727FE00208DE0206801884FF6FF5295
:103CE000114001800121206803F096FC4FF48059B7
:103CF000C84600206060D4F800A0DFF8581650468F
:103D0000FFF71CFE002805D14046A0F1010800285D
:103D1000F1D14CE001223946504603F095FC022EC9
:103D2000C84636D2DFF84016206803F0ADFC002804
:103D300005D14046A0F101080028F3D137E0002169
:103D4000206803F08AFC2068018B012103F070FCDD
:103D5000C846DFF81816206803F096FC002805D145
:103D60004046A0F101080028F3D120E02068008A35
:103D7000C0B22870C84620680188890505D540462C
:103D8000A0F101080028F6D111E0012103F065FC43
:103D90002BE000206060DFF8D8152068FFF7CEFD2B
:103DA000002806D14046A0F101080028F3D10020E8
:103DB00020E0012716E0012E0CD1012F0AD10027A7
:103DC0003946206803F049FC2068818A018B012173
:103DD00003F02EFC2068818A490603D5008A05F885
:103DE000010B761EF6B2002EE5D10121206803F00A
:103DF00034FC0120BDE8F087DFF878050168082968
:103E000033D1DFF814150A6842F080720A60426804
:103E1000B2F1806F03D10A6842F080620A600A68DA
:103E20009201FCD58A6842F002028A608A6802F038
:103E30000C02082AFAD14268B2F1806F02D10A68F6
:103E40001201FCD5DFF8D8140968DFF8FC24914290
:103E500007D2DFF8F8140A6822F4404242F48042A4
:103E60000A6000210160416070474168B1F1806FD4
:103E70000AD1DFF8A4140A6842F080620A600A6876
:103E80001201FCD50021416070470000000402408F
:103E9000DFF8E404016841F080510160DFF8AC0410
:103EA00001688908890041F001010160DFF86404BC
:103EB0000FF205010160704710B5DFF8C04420889B
:103EC00040F004002080DFF84C04416800290DD048
:103ED00000214160DFF8A8140A6842F004020A6079
:103EE0000FF22101016000F00DF800E030BF6088A2
:103EF00040F00400608010BD801A060000540040AD
:103F00000058004038B5DFF87444208840F00400C1
:103F10002080FDF720FE807A012803D1012003F0E4
:103F200058FD02E0002003F054FDDFF854548021D6
:103F30001A4803F02FFC002819D172B6DFF8D80315
:103F4000DFF83014826802F00C020A60006800F0AA
:103F500080604860286840F00400286030BF62B686
:103F6000286820F004002860FFF746FF0CE0608816
:103F700040F004006080286820F00400286030BF12
:103F8000286840F004002860608840F004006080E9
:103F900031BDDFF8800300680047000000300140B9
:103FA00034A70020DFF8DC13012806D010D3032843
:103FB00009D005D3042809D00AE0DFF8CC1307E0C4
:103FC000DFF8C81304E0DFF8C81301E0DFF8C4131A
:103FD000084670472C380020886402401064024074
:103FE00010B50C46FFF7DEFF214689B2BDE8104050
:103FF00003F05CBA10B50C46FFF7D4FF214689B236
:10400000BDE8104003F054BAE0B500238DF8083045
:1040100001238DF80A30002A03D10C228DF80920E3
:1040200002E008228DF8092004283CD8DFE800F0DF
:10403000030D192222004FF40060019028208DF812
:1040400000000F208DF801001CE0184601901020A0
:104050008DF8090006208DF800000E208DF8010073
:1040600010E00220019007208DF800000F208DF84D
:10407000010007E00420019008208DF800000F20C7
:104080008DF8010000208DF80200012903D11846A7
:104090008DF8030001E08DF8030001A804F014FA84
:1040A00000A804F060FA07BD4FF40061B54803F0C2
:1040B000F6B900000C30014080B57B2003F013F905
:1040C000002806D08CA0FDF7C1FD03F022F90020E6
:1040D00002BD7A2003F007F9002802D087A0FDF77F
:1040E000B5FD792003F0FFF8002802D084A0FDF789
:1040F000ADFD7C2003F0F7F8002802D081A0FDF789
:10410000A5FD7D2003F0EFF8002802D07EA0FDF78A
:104110009DFD7E2003F0E7F8002802D07BA0FDF78C
:1041200095FD7F2003F0DFF8002802D078A0FDF78E
:104130008DFD03F0EEF8012002BD00003EB50C46F7
:1041400015460422014602A8FEF7BBFF04222146C1
:1041500001A8FEF7B6FF0422294600A8FEF7B1FF2A
:1041600002A9002003F0A6FC01A9002003F01BFD1A
:1041700003F014FD0446884A002300981946101ADB
:1041800063EB0101490241EAD051400204F014FB03
:104190000090844205D2011B4FF0004003F0D3FD94
:1041A00037BDA04207D2C4F50070009909184FF03E
:1041B000004003F0C8FD37BD2DE9704384B00446CC
:1041C0000D46164602A9002003F0C3FC01A90020F9
:1041D00003F039FD03F0E2FC00906F4AA2FB008976
:1041E0004FEA582848EAC958A2EB08000090042278
:1041F00002A92046FEF765FF042201A92846FEF722
:1042000060FF042200A93046FEF75BFFBDE87F8314
:10421000F0B4049C059D8E1E012E01DA0C36401E62
:104220003C216427B0FBF7F7C7EB90074FF4C87C3D
:10423000B0FBFCFC674440F26F1C0CFB06F64FF031
:104240000C0CB6FBFCF6F619921940F26D1606FB43
:104250000020524A101800EB400203EBC20001FBA1
:10426000004001FB0050F0BC70471CB50C460168D3
:104270000191416800918368C2680169491C4069E5
:1042800000F26C70FFF7C4FF2060002016BD10B56F
:104290008EB04348046801A9002003F05AFC00A92D
:1042A000002003F0D0FC9DF8040006909DF8050066
:1042B00005909DF8060004909DF80100401E0890AE
:1042C0009DF8020007909DF803006430099002A950
:1042D00004A8FFF7CAFF4FF47A706043400AC0F5A4
:1042E0007A700390029A4FF47A73C117E3FB0201CC
:1042F0000EB010BD00200140504F520050494E00FA
:10430000424F520053465400495744005757440007
:104310004C50570008AB002000380240003C0240DF
:10432000B037002000127A00809698000024F40034
:1043300000366E010048E801005A620280F0FA027D
:1043400000BD0105843802400187930300700040DE
:104350002C380020010003008200070080000700C5
:10436000840007000400001002000010400000104C
:104370000200030010AB0020403802401800024049
:1043800010ED00E00000024000040240000802407E
:10439000000C02400010024000CA9A3B7505F5FF70
:1043A00028280040200110040F03020103F0001030
:1043B000060F01020103C00010080F01020103C033
:1043C0000010060F01020103F00010060F010201A8
:1043D00003C80010040F02020103A80010020F031B
:1043E00002010300506002604160086070470A6883
:1043F000F8E748600160704701684068F9E7F8B580
:104400000600DFF8285802D505F15000F2BD05F18D
:1044100050040020A96E00E0096805F1680291428D
:1044200004D00C46A2689642F6D10120002831D172
:10443000286F076F182004F037FA0446A660002F93
:1044400005D0B74203D2B6FBF7F0784300E0304620
:10445000E060002F02D0B74200D23E462661002025
:104460002075DFF8CC673078401C307000F01BFD01
:104470007078401C707005F168012046FFF7B7FFA7
:104480007078401E7070C0B2002801D100F005FDA8
:1044900000F0ACFD2046F2BD38B5044694F9140096
:1044A00000281BD1DFF888572878401C287000F0BE
:1044B000FAFC6878401C68702046FFF79DFF204694
:1044C00004F00AFA6878401E6870C0B2002801D172
:1044D00000F0E3FCBDE8314000F088BD31BDF8B527
:1044E000044608466FF00045FFF789FF064694F939
:1044F000050094F90410814214D1C01C800004F01E
:10450000D3F9074694F90500012807DB82002168EA
:104510003846FEF7D6FD206804F0DEF927606079A2
:10452000C01C607194F90400411C2171216841F89C
:104530002060DFF80007864202D0307D401C3075D5
:10454000002008E0216851F820108A68954201DBBC
:104550001546A160401C94F904108842F2DBF1BDBD
:10456000F8B504466FF00046DFF8C02602F15005AA
:1045700002F150004FF0FF33002704E0664501DBF5
:10458000664675467F1C94F904C067450DDAD4F879
:1045900000C05CF827E0DEF808C0002BEED58C45A3
:1045A000ECD170463B465BB2ECE7002B11D4BCF17A
:1045B000010F0EDB06E0216801EB8306766841F807
:1045C00023605B1C94F904104E1EB342F3DB491EBA
:1045D000217102F15001884204D0017D491E01750C
:1045E000FFF75AFFA560F1BD10B4C26A836B406C3F
:1045F0009C68002C02D56FF0004300E01B698468C2
:10460000002C02D56FF0004000E00069984200DD08
:104610001846D2685143884201DB012000E00020A7
:1046200010BC704738B5DFF804160A6FB2F85C307A
:10463000012490F90850AC402343A2F85C3001F605
:104640009401FFF7D4FE012032BD10B5DFF8DC1570
:10465000096FB1F85C20012390F90840A3409A4308
:10466000A1F85C20FFF7C8FE012010BD01207047B3
:10467000F8B5044615461E4604F12400FFF72FFF47
:1046800006EB460004EB8007294607F13000FFF7F0
:1046900026FF97F9340000903346627A94F90810A7
:1046A0000FF29450FDF7D2FAF1BDF8B50446154665
:1046B0001E4604F12400FFF753FF06EB460004EB0F
:1046C0008007294607F13000FFF74AFF97F93400C9
:1046D00000903346627A94F908100FF26C50FDF79F
:1046E000B5FAF1BDC16A8A68012A09DB09690129A5
:1046F00006DA006D002801D50020704702207047BF
:104700000020704701EB410200EB8201896B8A684F
:10471000012A09DB0969012906DA006D002801D5A3
:10472000002070470220704700207047002900D504
:10473000D8E7E7E7012900DA012113460A4697E79F
:10474000012900DA012113460A46AEE7B1F57A7F66
:1047500001DC4FF47A7113460A464FF4FA7187E789
:10476000B1F57A7F01DC4FF47A7113460A464FF4B3
:10477000FA719AE710B50446002922D5E06A8168EB
:1047800001291CDB0069012819DA02212046FFF704
:104790002BFF002813D194F954004FF0FF318842C9
:1047A00004D1002084F85400012010BD002806D157
:1047B00001206077084684F85400022010BD0020D4
:1047C00010BDBDE810409DE7DFF86024126F126F46
:1047D00002F5FA72524202654FF0FF3280F854201F
:1047E00020E7C92900DAC82113460A4642213FE7DB
:1047F000C92900DAC82113460A46422155E710B5F7
:104800000446002926D5E06A8168012920DB006979
:1048100001281DDA03212046FFF7E6FE002817D104
:1048200094F954004FF0FF31884204D1002084F8FD
:104830005400012010BD002803D1012084F8540049
:1048400010BD012804D1084684F85400022010BD90
:10485000002010BDBDE8104054E7DFF8D023126FF0
:10486000126FC832524202654FF0FF3280F8542076
:10487000D8E6DFF8B823126F126FC83252420265D1
:10488000D0E613464FF0FF321146F1E613464FF0E3
:10489000FF32114609E780B5FFF7C4FEFDF75BF96B
:1048A00000210175012002BD80B5FFF7CEFEFDF7A6
:1048B00052F900210175012002BDDC48C06A417A2D
:1048C000481E8041C00F704780B5D8480068417AC3
:1048D000002902D1006E40688047012002BD80B5EA
:1048E000FFF7B3FED1480068417A002902D1006E7B
:1048F00080688047012002BD2DE9F0410C46CB4D78
:1049000055F82060307206F154070FF24C313961CE
:10491000132800F22581DFE810F014002400300095
:1049200048003C005400630072009F00810090002A
:10493000AE00BD00CA00D700E400F100FE000A018D
:10494000170106F10800062141760A21817605F655
:104950009C01416040F2DC5181600FF2C03038614F
:10496000FEE006F10800062141760A21817605F66F
:104970007861416064218160F2E006F108000C2159
:1049800041761021817605F6E86141601021816051
:10499000E6E006F10800072141760B21817605F655
:1049A000DC6141600B218160DAE006F1080006213C
:1049B00041760A21817605F6F86141600A2181601D
:1049C000CEE006F10800062141760A21817605F63F
:1049D000047141600A2181600FF2B4203861BFE0A8
:1049E00006F10800142141761821817605F6107130
:1049F0004160182181600FF208303861B0E006F1A3
:104A00000800022141760621817605F64471416055
:104A1000062181600FF2B0203861A1E006F10800A4
:104A20000A2141760E21817605F6347141600E210E
:104A300081600FF27820386192E006F108000121D0
:104A400041760521817605F64C7141600521816032
:104A50000FF29020386183E006F1080005214176CD
:104A60000921817605F628714160092181600FF2E4
:104A70000420386174E006F10800062141760A211D
:104A8000817605F6547141600A2181600FF2A820F9
:104A9000386165E006F10800012141760521817643
:104AA00005F66071416040F28661816058E006F170
:104AB0000800012141760521817605F5A851E831EC
:104AC0004160052181604BE006F108000C21417630
:104AD0001021817605F5A851F031416010218160E7
:104AE0003EE006F10800112141761521817605F599
:104AF000B051416041F66631816031E006F1080055
:104B0000112141761521817605F5445168314160C6
:104B10001521816024E006F1080004214176082176
:104B2000817605F5465141600821816018E006F163
:104B30000800062141760A21817605F54451883125
:104B400041600A2181600BE006F1080006214176F0
:104B50000A21817605F54451943141600A21816032
:104B600006F1080000210175417581750176C1606B
:104B70000161417006F128080846C8F828004FF086
:104B8000FF3086F854007880062206F15800FDF7C1
:104B9000BDFE002010E000EB400106EB8101002289
:104BA00081F8342034314A7005F150024A6006EB36
:104BB000800100228A64401C0228ECDB002086F879
:104BC000280088F8010005F15000C8F80400FC60D6
:104BD000BDE8F08110B5154CFDF726FB20670020DD
:104BE00006E0682111FB0041743144F82010401C9C
:104BF0001428F6DB4FF0FF30A065E065002020664A
:104C000005F050F805F02FFE06F0ADFAFCF76EF84F
:104C100006F02EFCFCF73EFBFCF718FD06F08CFDC1
:104C200007F051F8BDE8104007F020B9000000205F
:104C300024370020500000204144202564202564B2
:104C40002025642025640000524D20256420256421
:104C500020256420256400006D46000825460008D4
:104C60006D4600084B4600083547000841470008DC
:104C70002D4700086D460008C94700086D4600082A
:104C80004B4600084D47000861470008754700087B
:104C90006D4600085B4800086D4600084B4600085A
:104CA000E3470008F1470008FF4700086D46000889
:104CB000734800086D4600084B4600083547000859
:104CC000414700082D4700086D4600089748000836
:104CD0006D460008A9480008834800088D48000870
:104CE0002D4700086D460008254600086D4600085F
:104CF0004B46000835470008414700082D4700088B
:104D00006D460008254600086D4600084B46000821
:104D1000834800088D4800082D470008BB4800085C
:104D200025460008BB4800084B46000835470008E8
:104D3000414700082D470008C948000825460008DB
:104D40006D460008DF480008834800088D480008C9
:104D50002D470008002207F0A9B88268521C826023
:104D6000426832B10268531C036011704168491EE9
:104D70004160704708B584B00023029311B90093D5
:104D8000019302E00090481E019004AB00A907487F
:104D90007844183007F0A4F8009909B100220A708D
:104DA000002858BF029805B000BD00BFAFFFFFFF4D
:104DB00000F10103810704D010F8011B89B18107BC
:104DC000FAD10268B2F10131914311F0803F04BF82
:104DD00050F8042FF6E710F8011B11B110F8011B71
:104DE000FBE7C01A70470268531C036011707047DC
:104DF00030488168002904BF08B008E0EFF3098259
:104E0000A2F12802036882E8F84F83685A6000F034
:104E10009CF8816859B14A6892E8F84F036002F142
:104E2000280282F3098813F47F4F36D07047224856
:104E300022490968401A80F308884FF08071C161E7
:104E40001F4981617FF0060E704701BC2046DFF8E4
:104E500074E000BDFEE71C48006818490968401A64
:104E6000203820F0070080F308884FF0000181F31C
:104E7000118862B600F00DF8FEE74FF0000181F3F3
:104E800011881249124A0A604FF0800181F311889B
:104E900070470E490E4A0A6070474FF0000181F3D7
:104EA0001188704700BF4FF0800181F3118870476F
:104EB00000BF000024370020E0CB00207CAC0208BB
:104EC000E1A20208554E00080000000804ED00E0D1
:104ED0000000001030B504460020A071206A81B0A7
:104EE00000F57A606062E16908001CBF20468847CF
:104EF000FFF7D3FFE5681FE0FFF7D5FF206920B17A
:104F0000687C2169497C88421DD3287C400710D5E4
:104F1000E868216A401A012806DA284600F082F87B
:104F2000FFF7C1FF287C70B1E868616A411A48BF89
:104F30006062FFF7B2FF2D68002DDDD101B0BDE842
:104F40003040FFF7B0BF01B030BD70B5044600205F
:104F5000607001202070206938B303E02868206168
:104F6000FFF79BFFFFF79FFF2569002D1CBF2E7CDD
:104F7000002E1CD070070ED5E868216A411A01295D
:104F800005DA284600F04EF8287C20B90DE0616A69
:104F9000411A48BF606206F0FB001028DED1A86805
:104FA00080684068007C0028D8D1FFF77CFFA0799A
:104FB00068B900206071206990B12069007C0028E8
:104FC00020690BD0806880684068A0600CE02046B3
:104FD000FFF780FFA0790028F9D1EAE7A06003E09D
:104FE000A0602070FFF759FF204670BD10B5444CFB
:104FF0002078401E2070C0B298B9606888B1FFF771
:1050000052FF606830B1012020702046FFF735FF65
:10501000002020706078002804BFBDE81040FFF732
:105020003CBF10BD10B5816849B1354A126AC260F3
:105030000A68496802B151600A6000218160017C00
:1050400011F0030101741BD12D4C216991B920612C
:10505000207838B9012020702046FFF70EFF00208D
:10506000207001E001206071607848B9BDE810400F
:10507000FFF713BF4A7C437C9A42E8D38142E7D0D2
:1050800010BD30B51E4D04462978607C81B0491CA6
:10509000297005F20C0100E011460A6812B1537C38
:1050A0009842F9DB22600C60207C40B9FFF7FBFEE0
:1050B0002046FFF7B7FF687808B9FFF7EEFE01B0AA
:1050C000BDE8304092E730B50D4C81B02578681CC2
:1050D00020702046FFF7D1FE2570607820B901B01E
:1050E000BDE83040FFF7D9BE01B030BD00B581B09A
:1050F00007F05EFD02480121017001B000BD000013
:1051000024370020DFF8A40D007870472DE9F04126
:105110008CB0FDF789F80446DFF8945D2E6841E015
:1051200096F9080007283CD00B283ADA062838D030
:1051300006F10807B86C002802D5216F0818B8647A
:105140004FF0FF313046FA6D926990478046B8F1D2
:10515000010F04D197F84C00B96D09698847B8F17F
:10516000020F0BD1797E38697A688018BA6D52695E
:105170009047002802D0304607F0D0FD002130468D
:10518000FA6D92699047022801D10120B87501217A
:105190003046FA6D92699047022802D1304607F0F6
:1051A0006BFE3668AE42BBD1D4E91801002901D1AB
:1051B00000280BD00A208DF8080002208DF800008E
:1051C000206FADF82A0000A801F052FD01200CB0BC
:1051D000BDE8F08130B585B004460D46CA208DF893
:1051E00000002888ADF801000220ADF80300BDF8EA
:1051F0000100001D03F058FBCDF8090002220DF15B
:105200000301FDF75EFF02222946DDF80900801C3C
:10521000FDF757FF2A882146DDF80900001DFDF73C
:1052200050FF0020288000A9DFF8880C08F01AF948
:1052300005B030BDC0F58060322801DA012070472A
:105240000020704780B5FCF786FC407B002804D026
:1052500007F0D2FCDFF8601C086001BD80B507F0E4
:10526000CBFCDFF8581C086001BDDFF8500C00686B
:10527000704718B400F10C030422DFF8401C5C7D79
:10528000DB68C0681818201818BCFDF71ABF30B4C6
:105290001488651C1580052565541488651C1580C7
:1052A000635413885C1C1480007A585430BC7047D7
:1052B000F8B50E4614461D4629884A1C2A80372216
:1052C0000A5529884A1C2A80027A0A5500F10807E3
:1052D0007A7E7868311828880019FDF7F2FE288850
:1052E000797E40182880787E796871184058DFF8F8
:1052F000C81B0968401A0090042200A928880019D8
:10530000FDF7DFFE2888001D288080B2FFF792FF9E
:10531000002803D029462046FFF75CFFF1BD2DE9A8
:10532000F04104460D4616461F46DDF8188008E099
:1053300043463A4629462046FFF7BAFF94F8220032
:105340002D18B542F4DBBDE8F081F8B504461546EA
:105350001E46069F00972269FFF7E1FF20698542FC
:1053600006DA009733462A4600212046FFF7D7FF8A
:10537000F1BD00F110018A688B7CD2188A60006947
:10538000824201D10020886000208873704770B588
:1053900082B000F1140674684569002D07D50092AB
:1053A0000B462246B17B6118FFF7CFFF73BDAC42BD
:1053B00000920B462246294602DAFFF7C6FF73BD6C
:1053C000FFF7ADFF73BD70B504460D461646FFF7F7
:1053D000DEFF0123324629462046FFF758FFA06929
:1053E000606170BD2DE9F84304460D461646FCF792
:1053F0001BFF8046FCF7AFFB81462046FFF739FFD5
:1054000004F10807386C012849DB99F80A000028E4
:1054100021D0B87D002879D000207864B87E3A6920
:10542000F9688B1A834205D0002910D1BB689B1AFA
:1054300083420CD13B7E002B06D000962B4682186F
:105440002046FFF782FF02E04FF0FF30F860204671
:10545000BDE8F2438DE7786CD8F87010401A786494
:10546000012815DA386C7864324629462046FFF761
:105470008EFFB87D002808D033462A463969204679
:10548000FFF716FF2046FFF774FF3869F8603DE02C
:10549000B87D00283AD02046BDE8F24369E7B87DE0
:1054A000002833D094F9080099F80A1000291BD07D
:1054B000092801D0072805D133462A4639692046F4
:1054C000FFF7F6FE94F9080008281AD197F92C0086
:1054D000012816DB386B8068B0F57A7F0BD1B7F9FD
:1054E0004E00012807DA11E0082804D1DFF8540C37
:1054F000406800280AD133462A4639692046FFF71A
:10550000D7FE2046FFF735FF3869F860BDE8F18324
:10551000F8B504460D46DFF89869376805E02A4675
:1055200021463846FFF75EFF3F68B742F7D1F1BD2D
:105530002DE9F04104460D46DFF80C6CF76907F1E0
:105540000C0898F81510D8F80C00FA688018D8F8EC
:1055500054205269904700280AD0012088F8120090
:10556000787A002804D02A4621463846FFF73AFFC9
:10557000B66906F10C07797DF868F26880187A6DD3
:1055800052699047002809D00120B874707A002829
:1055900004D02A4621463046FFF724FF0120BDE80B
:1055A000F0810288D21C02800A80704780B50B8887
:1055B0009B1AADF80030BDF80030002B09D0101850
:1055C000012100F8031C022200A9801EFDF779FDCD
:1055D00001BD0888C01E088001BD2DE9F04FADF661
:1055E000AC0D04460D46FCF71FFE8046FCF7B3FAEF
:1055F000074610A840F66801FFF7ACFB00208DF8C5
:10560000020006A82821FFF7A5FB01A81421FFF737
:10561000A1FB0020ADF800000646D8E918010029DA
:1056200002D1002800F0E58297F9090008F0A9FBF3
:10563000002800F0DE8200A92846FFF7B2FF3746B7
:105640001BE0012031463A4608F088FDD8E91823CE
:105650001040194001D100280ED007EB8700DFF879
:10566000EC1A01EBC00292F90900012804D10DF1F6
:10567000020110A8126A90477F1C262FE1DB3746F3
:105680001AE02888411C298099F8021001552888C1
:10569000FFF7D0FD00280DD0BDF800202946204698
:1056A000FFF784FF29462046FFF794FD00A928460E
:1056B000FFF777FF7F1C7FB29DF80200874280F2E0
:1056C00090822988481C288040F20D1010FB07F0BA
:1056D00010AA825C0A5529884A1C2A8010AA00EB6D
:1056E000020898F8010008552888411C298008F113
:1056F000010999F80110015599F80100032815D006
:10570000092800F030810C2800F00A811A2800F0E6
:1057100020821B2800F03D811C2800F04E821D28AD
:1057200000F049811E2800F03882AAE798F80100AD
:10573000032805D12888411C298099F802100155B9
:105740002888411C298099F803100155711C99F88B
:10575000030000064ED401A899F804203254C9B2BF
:1057600099F805200A54491CC9B200220A54491C60
:10577000C9B299F806200A54491CB8F80E20C9B2DB
:10578000130A0B54491CC9B20A54491C08F20E02F0
:10579000C9B293780B54491CC9B2D2780A54491C37
:1057A000C9B298F812200A54491CC9B298F81320BB
:1057B0000A54491CC9B299F807200A54491CC9B2B5
:1057C00099F808200A54491CC9B299F809200A54CA
:1057D000491CC9B299F80A200A544E1CF6B2324646
:1057E00001A928880019FDF76CFC288850FA86F07A
:1057F00028804CE7D9F8042006A8130C3354C9B20A
:10580000130A0B54491CC9B20A54491CD9F8082080
:10581000C9B2130C0B54491CC9B2130A0B54491CCE
:10582000C9B20A54491CD9F80C20C9B2130C0B5444
:10583000491CC9B2130A0B54491CC9B20A54491C69
:10584000D8F81120C9B2130C0B54491CC9B2130A61
:105850000B54491CC9B20A54491CD8F82720C9B2B4
:10586000130C0B54491CC9B2130A0B54491CC9B27E
:105870000A544A1C08F22701D2B20B791354521C65
:10588000D2B24B791354521CCB88D2B21E0A165492
:10589000521CD2B21354521CD2B2097A1154511C68
:1058A000D8F81520C9B2130C0B54491CC9B2130AFD
:1058B0000B54491CC9B20A54491CD8F81920C9B262
:1058C000130C0B54491CC9B2130A0B54491CC9B21E
:1058D0000A54491CD8F81D20C9B2130C0B54491C9A
:1058E000C9B2130A0B54491CC9B20A54491CD8F84E
:1058F0002120C9B2130C0B54491CC9B2130A0B5412
:10590000491CC9B20A544E1CF6B2324606A9288870
:105910000019FDF7D6FB288850FA86F02880B6E6F5
:1059200008F20301B1F90300C0F3072242EA0020A4
:10593000A1F80300B1F90700C0F3072242EA0020F2
:10594000A1F80700B1F90500C0F3072242EA0020E0
:10595000A1F80500092228880019FDF7B2FB288864
:105960000930288093E698F8010003280AD1022222
:1059700008F1030128880019FDF7A3FB2888801C83
:10598000288084E62888411C298099F80210015556
:105990007DE62888411C298099F80210015598F865
:1059A000010005287FF473AE2888411C298099F8EE
:1059B000041001556BE608F2030998F8010001286C
:1059C00040F0B7802888411C298099F804100155BF
:1059D0004FF0000A94E0192010FB0A9BDBF80C2022
:1059E000DBF808100FF21420FCF730F9DBF8180090
:1059F000010221F0FF11000A00F0FF100843CBF86C
:105A000018004FEA3040CBF8180004220BF11801BF
:105A100028880019FDF755FB2888001D2880DBF831
:105A20000800010221F0FF11000A00F0FF100843F6
:105A3000CBF808004FEA3040CBF8080004220BF105
:105A4000080128880019FDF73CFB2888001D2880E4
:105A5000DBF80C00010221F0FF11000A00F0FF103A
:105A60000843CBF80C004FEA3040CBF80C0004227E
:105A70000BF10C0128880019FDF723FB2888001D75
:105A80002880DBF81000010221F0FF11000A00F06D
:105A9000FF100843CBF810004FEA3040CBF810005D
:105AA00004220BF1100128880019FDF70AFB288851
:105AB000001D2880BBF81C00010A41EA0020ABF859
:105AC0001C0002220BF11C0128880019FDF7F9FACD
:105AD0002888801C2880BBF81600010A41EA0020B3
:105AE000ABF8160002220BF1160128880019FDF709
:105AF000E8FA2888801C28800AF1010A5FFA8AFAED
:105B000099F804008245FFF666AFB8F80721D8F887
:105B1000091128880019FDF7D4FA2888B8F8071168
:105B200008182880B8F807110FF2E000FCF78EF88B
:105B3000ADE505287FF4ABAD2888411C298099F894
:105B4000021001552888411C298099F8031001553D
:105B50009DE508F2030198F80100032805D1288883
:105B6000421C2A8099F809200255D1F8010002024E
:105B700022F0FF12000A00F0FF101043C1F80100EC
:105B80004FEA3040C1F80100072228880019FDF7CC
:105B900098FA2888C01D288079E508F20301088852
:105BA000020A42EA00200880022228880019FDF734
:105BB00088FA2888801C288069E5B9F80220D9F87D
:105BC000041028880019FDF77CFA2888B9F802101B
:105BD00008182880B9F802100FF24400FCF736F8D4
:105BE00055E5BDF8002029462046FFF7DFFC08F008
:105BF000F5F80DF6AC0DBDE8F08F00004C54204ECA
:105C00004D47202564202564000000004F4A483A93
:105C100020415442442073697A653A20256400008B
:105C20004F4A483A20415044522073697A653A20DD
:105C3000256400002DE9F04105460E46FBF78BFF79
:105C40000746DFF8D04D2078401C2070FFF72BF975
:105C50006078401C607097F81880B8F1010F26DB5F
:105C60003088404480B2FFF7E5FA002803D031467F
:105C70002846FFF7AFFA3088411C31800321415597
:105C80003088411C318000F80580424607F1190137
:105C900030884019FDF715FA308840443080FF22E3
:105CA000002107F11900FCF731FE002038766078FA
:105CB000401E6070C0B2002801D1FFF7EEF8BDE8C9
:105CC000F041FFF793B938B504460D46FBF743FFA3
:105CD000817A002909D1417B002906D129884A1CF3
:105CE0002A8006220A550121417331BD38B5044688
:105CF0000D46288800280CD02046FFF79BFF294638
:105D00002046FFF7E0FF29462046BDE83440FFF774
:105D100061BA31BD14B585B0049101A900221346C2
:105D200014461CC10A21ADF8001004218DF804109E
:105D30008DF805000A4605A90DF10600FDF7C1F929
:105D4000042204A90DF10A00FDF7BBF900A901A87E
:105D5000FFF740FA06B010BD80B507208DF80200AD
:105D60000120ADF8000000A90DF10200FFF732FAA2
:105D700001BDF8B50446FBF7EEFEDFF8CC53296A07
:105D8000496C8A6842F210739A425AD10969002913
:105D900057D1807A002854D0DFF8A86330880C30BF
:105DA000B0F5347F01DD002030800120FDF74CFC90
:105DB000FDF786FCADF802000320FDF745FCFDF77A
:105DC0007FFCADF80000FDF792FC378802220DF150
:105DD0000201B8190830FDF774F9BF1C37800222A0
:105DE00000A9BFB2B8190830FDF76BF9BF1C3780A6
:105DF00004222146BFB2B8190830FDF762F9381DF8
:105E00003080022280B2801900F1080106206B69FF
:105E10001B6E1B6A98473088801C3080022280B23B
:105E2000801900F1080106206B681B6E1B6A9847F9
:105E30003088801C308070680C30B0F5347F00D220
:105E40007060F1BD2DE9F041BE4C6068002828D09B
:105E5000218888421FD002F027FD05466668278802
:105E6000A6EB07081FFA88F84246381900F1080126
:105E70002846FDF726F93A4604F1080108EB05002B
:105E8000FDF71FF93246294604F10800FDF719F91C
:105E9000284602F021FD626804F108010520FFF7A1
:105EA00039FF002060602080BDE8F081F7AB002062
:105EB00094080020CC500020B0AB0020B4AB0020F0
:105EC0002DE9F84306460F469046FBF744FE81460F
:105ED0000025FCF7A9F9D6F80900041D3078014621
:105EE00001297CD00F2933D0352947D0802900F0F3
:105EF000A480812900F0AB80822900F0A880852948
:105F000000F0A580862900F0A280882900F09F80FB
:105F10008A2900F0A4808B2900F0BD808C2900F034
:105F2000C9808D2900F0D580DD2900F0DF80DF29D0
:105F300000F0F580F0292AD0F42934D0F62943D096
:105F4000F82961D0F9294FD0FF2900F0C7807BE004
:105F500099F81600207099F81700002840F0DD80AD
:105F60004FF0FF30009003462A4642F2107108209D
:105F700007F0C2F8012089F81700CEE00120FBF7F6
:105F800088FC2846FBF778FC207001205DE0DFF8F4
:105F9000880A0168090C21700168090A61700068AB
:105FA000A070012051E0D9F81000000E2070D9F83F
:105FB0001000000C6070D9F81000000AA070D9F829
:105FC0001000E070012040E0032221462846DFF85F
:105FD0004C3A9B681B6E1B6A9847012035E02046AF
:105FE00008F0ECF8012030E0B6F80120B6F8030024
:105FF000C010C0EB0011D6F8050000EB811120465F
:10600000FDF75FF8012020E02846ADF800000120F0
:10601000D6F80510C9B2012900D10320FDF714FB01
:10602000FDF74EFBADF80000FDF761FB022200A971
:106030002046FDF746F8012007E0D6F8050020705D
:106040002146284607F000F82846BDE8F283294695
:106050002170214600F07F0006F0F6FFF4E70120F2
:106060002070DFF8B80946682F46307F002801D13C
:106070002846EAE7707A002803D1306E40688047EE
:1060800007462046316EC9698847002FDCD0306E44
:1060900080688047D8E70120B6F80310C1F3C1013A
:1060A000091D884040F0020020702146012006F0C2
:1060B000CBFFC9E799F80000207099F803006070E1
:1060C00099F80500A07099F80600E0700120207191
:1060D000BBE7204608F086F80546B5E704F108025C
:1060E000211D2046FEF768F80120AEE77079DFF841
:1060F0002C1951F82060707A00280CD0424639469D
:106100003046FFF760F9DFF81819082008F036F973
:106110000120207001E028462070012095E7707969
:10612000DFF8F81851F82060306996F8221090FBDB
:10613000F1F0401E0090042200A92046FCF7C1FFA8
:10614000012082E70478002000000020E4540020B1
:10615000F0B599B00646FBF7FEFC0546FCF764F87F
:10616000D6F809100C1D317800220B924FF0FF3247
:106170000C9217460A46312A00F04281322A00F07A
:106180004381332A00F04981342A00F04A81A12A50
:1061900000F06A81A22A00F08981A42A00F094818B
:1061A000B12A00F0D482B22A00F0F283B82A00F0BB
:1061B000A681C12A00F0C281CD2A00F0B480CE2A87
:1061C00000F0C980D12A2ED0D22A34D0D32A3BD095
:1061D000D42A52D0D62A71D0D72A6FD0D82A75D0D7
:1061E000D92A73D0DA2A79D0DB2A00F02881DC2A78
:1061F00000F02C81F12A00F08480F22A00F0C380A4
:10620000F52A00F0D880F72A00F0EB80FA2A00F097
:10621000F683FB2A00F0E683FD2A00F0D780FE2AF1
:1062200000F0EF83C4E000212846FBF7A1FEFFF752
:1062300009FE0120BDE001212846FBF799FE01205F
:1062400008F0DEF80120B4E00020A872E87D002804
:1062500040F0D58342F21074384600900346002285
:106260002146082006F048FF3B460122214608202F
:1062700006F0BCFF0120E875C1E30120A8720020F0
:106280006873E87A002840F0BA83E87D002811D0CE
:1062900042F210743B4600222146082006F0A6FF79
:1062A00038460090034601222146082006F024FFCC
:1062B0000020E875012008F0A3F8A0E3D62901D159
:1062C000012000E00020E872012072E0D92901D10C
:1062D000012000E00020287301206AE0DFF83C077D
:1062E000056AB5F956000128C0F289830020A5F897
:1062F00056003B4602464FF47A71082006F076FFBE
:106300007DE30021032980F27A830A180B5D82F86D
:106310007430022905D10A5D80F877200A5D80F883
:106320007820491CEEE70026032E80F26883DFF810
:10633000EC06456805EB4605022204EB460105F133
:106340005800FCF7BEFEB5F95810DFF8D806FBF789
:106350007DFC761CE8E70026032E80F25083DFF8F0
:10636000BC06056805EB4605022204EB460105F173
:106370005800FCF7A6FEB5F95810DFF8AC06FBF79D
:1063800065FC761CE8E72969090640F13883217825
:10639000A0F87A106178A0F87C1002212046DFF87E
:1063A0007C26D269126E92699047002840F02783BC
:1063B000002019B0F0BD032221460120DFF85C3631
:1063C0009B681B6E1B6A98470120F2E71222214648
:1063D0000220DFF848369B681B6E1B6A9847012035
:1063E000E7E7DFF838068569286E8068804700286F
:1063F000DED00122214605202B6E1B6A9847D7E785
:106400002046FBF7CDF9D3E72046FBF70CFA2078BE
:106410000028CDD0FBF72AFACAE72078FBF72CFA40
:10642000C6E7FBF718F94FF480510020FBF7D4FDC5
:106430002078FBF733FAFBF77CF90120B9E7D6F8AF
:106440000510DFF8E805FBF701FCB1E701F0DDFE20
:10645000002802D001F0F7FEAAE701F047FF00286C
:10646000A6D001F0FBFEA3E794F900500422611CC2
:106470000BA8FCF726FEB6F80100062806D3042276
:10648000611D0CA8FCF71DFE94F90970042D04D1C0
:10649000DFF8880500690021817200970C9B0022BB
:1064A0000B99284606F028FE207081E794F90050E9
:1064B0000422611C0BA8FCF704FE00231A460B996A
:1064C000284606F093FE74E794F900500422611CFC
:1064D0000BA8FCF7F6FDB6F80100062806D3042247
:1064E000611D0CA8FCF7EDFD94F9097000970C9B59
:1064F00000220B99284606F0D9FE207058E7207834
:106500000146032902D01A290DD010E060788DF8D9
:106510000A00012840F07382A0788DF80B00204615
:1065200000F059FB6BE2204600F055FB67E294F95E
:10653000011040B207F0F5FCC0B23AE720780146FE
:106540000E3908D0091F03291CD9091F3DD0491E47
:1065500000F0A580E5E00E208DF8080060788DF849
:106560000A00A1788DF80B10E2788DF80C2000233A
:10657000ADF80D3052B249B240B2FBF745FD00F024
:1065800021FBCEE08DF80800122802D160788DF84A
:106590000A009DF80800132802D160788DF80B00DE
:1065A0009DF80800142802D160788DF80C009DF841
:1065B0000800152802D160788DF80A0062782178E9
:1065C0000FF27040FBF742FBABE06078A178090462
:1065D00001EB0060E17800EB012021794018CDF853
:1065E0000A006079A179090401EB0060E17900EB10
:1065F0000120217A4018CDF80E00607AA17A0904B2
:1066000001EB0060E17A00EB0120217B4018CDF81E
:106610001200607B8DF81600A17B8DF81710E27BCD
:106620008DF81820237C8DF819300FF21840FBF7F5
:106630000DFB607C8DF81A00A07CE17C11EB002042
:1066400000B20146ADF81B10217D00EB0120617DF9
:106650004018ADF81D00A07D8DF81F00DDF80A0080
:10666000002807D1DDF80E00002803D1DDF8120064
:10667000002809D00DF10A0184B068461622FCF703
:10668000E5FC0FBCFBF73CFD0DF10A0184B0684648
:106690001622FCF7DBFC0FBC00F0C1FA41E0607889
:1066A0008DF809001D283CD1A0788DF81300A07842
:1066B00001280DD1E078217911EB0021ADF80A1005
:1066C00089B20A461D210FF29030FBF7BFFA28E08D
:1066D00002280BD1E078217911EB0021ADF80C10E4
:1066E00089B20FF28430FBF7B1FA1AE003280BD11C
:1066F000E078217911EB0021ADF8141089B20FF286
:106700007430FBF7A3FA0CE004280AD1E078217971
:1067100011EB0021ADF8161089B20FF26430FBF7CF
:1067200095FA06208DF8340020780E900DF13D008A
:1067300002A92122FCF78AFC0B208DF83C000020E6
:10674000ADF85E000DA800F093FAC0B231E694F9FE
:10675000000006F0C6FE012840F0ED8020780146DA
:10676000032918D0062955D009291BD00C2935D06A
:106770000D2941D0192971D01A2958D01B2900F0B0
:1067800082801C2900F0BD801D2900F095801E2903
:1067900000F0BE80CAE00322611C0DF10A00FCF784
:1067A00090FCC8E00722611C0DF10A00FCF789FC8F
:1067B000BDF80A00010A41EA0020ADF80A00BDF860
:1067C0000C00010A41EA0020ADF80C00BDF80E00F3
:1067D000010A41EA0020ADF80E00ACE00322611C82
:1067E0000DF10A00FCF76DFCBDF80B00010A41EA4F
:1067F0000020ADF80B009EE00322611C0DF10A00A1
:10680000FCF75FFCBDF80B00010A41EA0020ADF87F
:106810000B0090E00122611C0DF10A00FCF751FC15
:106820009DF80A100FF26420FBF710FA83E00822AB
:10683000611C0DF10A00FCF744FCBDF80D00010AD3
:1068400041EA0020ADF80D0000239DF911209DF9CB
:1068500010109DF90F00FBF7D7FB6CE00622611CBE
:106860000DF10A00FCF72DFCBDF80A00010A41EA0F
:106870000020ADF80A00BDF80E00010A41EA002030
:10688000ADF80E0057E00422611C0DF10A00FCF780
:1068900018FCBDF80A00010A41EA0020ADF80A0020
:1068A000BDF80C00010A41EA0020ADF80C000FF21F
:1068B000E810FBF7CBF93EE00922611C0DF10A005C
:1068C000FCF7FFFBBDF80A00010A41EA0020ADF821
:1068D0000A00BDF80C00010A41EA0020ADF80C00E6
:1068E000BDF80E00010A41EA0020ADF80E000023B9
:1068F0009DF912209DF911109DF91000FBF784FB02
:1069000019E01F22611C0DF10A00FCF7DAFB12E00E
:106910000322611C0DF10A00FCF7D3FBBDF80B004C
:10692000010A41EA0020ADF80B0004E08DF80800F0
:1069300060788DF809002078052806D13C480121AF
:106940000170687A00280DD159E018280AD18DF815
:10695000080060788DF80900A0788DF80A00E078CA
:106960008DF80B0000208DF8340020780E900DF18A
:106970003D0002A92122FCF769FB0B208DF83C00A9
:106980000020ADF85E000DA800F072F9C0B210E56D
:106990002078052804D1264800210170012008E54F
:1069A0001A280CD10522611C0DF10A00FCF789FBA5
:1069B000BDF80D00010A41EA0020ADF80D000120EC
:1069C0008DF8340020780E900DF13D0002A92122AF
:1069D000FCF73CFB0B208DF83C000DA800F048F9BB
:1069E000C0B2E6E42078002802D0052805D006E0F1
:1069F0000FF2B00001F010FC01E0FFF723FA0120D4
:106A0000D7E404F10802211D2046FDF797FB012081
:106A1000CFE4000024370020403800200000002090
:106A2000484E0020F8AA020804AB020810AB020886
:106A3000F7AB002050443A20536574256420256448
:106A4000000000004C5420504F5354696D652025C0
:106A500064202564202564004C5420535020256474
:106A60002C202564000000004C5420575020256441
:106A7000000000004C542053522025640000000008
:106A80004C542053415220256400000050443A20C9
:106A900053432025640000004C54205353204144AC
:106AA0004400000041505F52455155455354000089
:106AB0006E4870472DE9F04182B00C46164601251C
:106AC00000282DD106EB8600684901EBC007284657
:106AD00000FA04F8F86810EA080F08D02346FA68AC
:106AE00031460FF20830FBF7B1F8022046E04FF0D4
:106AF000FF30009003462A467968204606F0FCFAEB
:106B000000280BD02346FA6831460FF2F020FBF73D
:106B10009DF8F86848EA0000F8602EE002202DE0B9
:106B200001282AD106EB8600504901EBC007284610
:106B300000FA04F8F86810EA080F08D12346FA684A
:106B400031460FF2C820FBF781F8032515E04FF01E
:106B5000FF332A467968204606F048FB002807D014
:106B60002346FA6831460FF2B420FBF76FF800E0D5
:106B70000325F86820EA0800F8602846BDE8F68199
:106B800007F0DBB902B58CB00021ADF82A100191F5
:106B90000A218DF8081000218DF809108DF80A10CF
:106BA00005218DF80010019004220CA90DF10900B7
:106BB000FCF787FA0020ADF82A0000A800F058F88A
:106BC0000DB000BD80B507F093FF0FF26020BDE867
:106BD0000240FBF73BB838B5447885780078032845
:106BE00010D01A281AD1012C18D1012009F05AF915
:106BF000012322461A210FF2402001B0BDE83040A7
:106C0000FBF724B8012C09D1284607F07CFF294660
:106C10000FF23420BDE83440FBF718B831BD0FB493
:106C200080B5002805D10846002802D1104600286A
:106C300004D009F001FCC046C04601E009F0E5FBC4
:106C400001BC5DF814FB0022C0B226280CD240B271
:106C500000EB8003054800EBC300C068012303FA82
:106C600001F1084200D01A4610467047E454002053
:106C700030B587B00446012594F90000062800F2DB
:106C8000A180DFE800F00428445F76979B0004F1C0
:106C9000090182B068462122FCF7D8F90CBC94F9AE
:106CA0000810606840B206F097FD02280AD16068BB
:106CB00000B206F05DFF002561680FF29810FAF748
:106CC000C5FF85E0032840F0838061680FF28C10D7
:106CD000FAF7BCFF7CE060681A280AD104F10900C9
:106CE00007F0A5F9637B227BE17A0FF27810FAF7BF
:106CF000ADFF94F90810606840B206F05DFE03280D
:106D000066D161680FF27410FAF7A0FF60E0618D40
:106D100000A806F047FF9DF9040002280AD1009858
:106D200000B206F025FF002500990FF25810FAF77F
:106D30008DFF4DE003284BD100990FF25010FAF768
:106D400085FF45E009F09CFC02280AD1606800B28A
:106D500006F00EFF002561680FF23810FAF776FF93
:106D600036E0032834D161680FF23010FAF76EFF75
:106D70002EE0606805280CD1284609F05AFD02284B
:106D80000DD0032824D161680FF22010FAF75EFFBE
:106D90001EE002281CD109F03DFE0228F1D16068F6
:106DA00000B206F0E5FE002561680FF2F800FAF780
:106DB0004DFF0DE0204606F05BFF09E0204607F09E
:106DC000EFF805E061680FF2EC00FAF73FFF0025ED
:106DD000284607B030BD012070470FB4022004B030
:106DE000704701207047002070477047534D414362
:106DF000202564202564202564000000534D412097
:106E0000256420256420256400000000534D524372
:106E1000202564202564202564000000534D522065
:106E20002564202564202564000000005044205380
:106E3000657453540000000041542052492D2564CC
:106E4000202564202564000050442055542D2564DD
:106E500000000000414C4F4620256400414C434651
:106E6000202564004F4A4820454C20307825782062
:106E7000307825782030782578000000524C434641
:106E800020256400504C4F4620256400504C43465A
:106E90002025640050414F46202564005041434660
:106EA0002025640050504F46202564005050434632
:106EB000202564004558204C4D454C202564000099
:106EC000010040F10980F446404200F005F851F01D
:106ED00000416047010000BF09D0B0FA80F188404E
:106EE000C91CC1F58461090501EBD021400570473B
:106EF000F0B540F2FF7581EA030C0CF0004C15EA86
:106F000011541DBF15EA1357AC42AF42E5E0BC4136
:106F1000C1F31301C3F31303801A994143F480139F
:106F200004D2641E4000494180185941C90241EA17
:106F30005051B1FBF3F603FB1611A2FB0675D7EB1C
:106F4000C020A94102D2761E80185941C90241EAE7
:106F50005051B1FBF3FE03FB1E11A2FB0E75D7EBE4
:106F6000C020A94103D2AEF1010E80185941890217
:106F700041EA9051760546EA8E2EB1FBF3F603FB0B
:106F80001611A2FB0675D7EB8020A94102D2761E0E
:106F900080185941C90241EA50514EEA060EB1FB30
:106FA000F3F603FB1611A2FB0675D7EBC020A9412F
:106FB00002D2761E80185941C90241EA5051B1FBF4
:106FC000F3F703FB1711A2FB0735D3EBC020A94150
:106FD00067F100070CBF004247F0010766F3D527B1
:106FE0004FEA1E31B80814F5806412DDBD0775F153
:106FF000004250EB0E5051EB045111F5801F5CBF65
:1070000041EA0C01F0BD4CF07F6141F0E04100200D
:10701000F0BDBD076D0840EA0E5041F48011D4F177
:107020000104B4F120060ADAC4F120060200E040AF
:1070300001FA06F3E1401843B24015430EE0342C48
:1070400013DCC6F1200445EA40056D0820FA06F27B
:10705000154321FA06F0A1400D43002175F10042CD
:1070600050F1000051EB0C01F0BD00205FEA0C0173
:10707000F0BDCFB992185B41B3FA83F704BFB2FAFF
:1070800082F6BF190B3FB7F120062FBF02FA06F3B5
:10709000BB40C7F1200622FA06F638BF3343BA4098
:1070A0001CB1E419641E33E77F4231F00041B1FAAC
:1070B00081F404BFB0FA80F6A4190B3CB4F12006A9
:1070C0002FBF00FA06F1A140C4F1200620FA06F60F
:1070D00038BF3143A0403C1B1AE7AC421ABF05EA57
:1070E0001357AF4212E050EA41061CBF52EA430672
:1070F000BFE750EA4107304661461CBF41EA0551EF
:10710000F0BD52EA430C08BFC143F0BD00204FF46C
:10711000001616EB410F98BF16EB430F08BF16EB96
:10712000410F24BFC14305E016EB430F0CBF61467E
:107130004CEA0551F0BD000062F30F2262F31F42DA
:10714000401810F0030308D0C91A1FD3DB0748BF4B
:1071500000F8012D28BF20F8022D130030B414468A
:107160001546103928BF20E93C00FAD8490728BF46
:1071700020E90C0048BF40F8042D890028BF20F802
:10718000022D48BF00F8012D30BC7047C91818BF48
:1071900000F8012DCB0728BF00F8012D7047000033
:1071A000DFF8801100220A700A70012802D004283A
:1071B00003D07047012008707047052008707047A1
:1071C00010B459494A6802F00C02594B082A12D1EE
:1071D0000A680C6804F03F04B3FBF4F30A68C2F3D6
:1071E00088125A430B68C3F301435B1C5B00B2FB7C
:1071F000F3F2026000E003604A6802F0F0034D4AD7
:107200001B099B5C046824FA03F343604C6804F494
:10721000E054A40AA45CE3408360496801F460413F
:10722000490B895C426822FA01F1C16010BC7047C9
:107230003E4900F44072B2F5407F06D10A6822F45C
:10724000F8123D4B03401A430A608A6E000552EA69
:10725000105088667047394908607047384908609F
:107260007047384A0029116802D0084310607047FF
:1072700021EA000010607047334A0029116802D0EB
:1072800008431060704721EA0000106070472F4AE1
:107290000029116802D008431060704721EA0000FD
:1072A000106070472A4A0029116802D00843106014
:1072B000704721EA000010607047264A00291168D3
:1072C00002D008431060704721EA00001060704748
:1072D000214A0029116802D008431060704721EA52
:1072E000000010607047002142090D4B012A01D1B6
:1072F0001A6804E0022A01D11A6F00E05A6F0123D4
:1073000000F01F0003FA00F0024200D019460846C0
:1073100070471248016841F08071016070470000B9
:1073200000380240703802400438024008380240F9
:107330000024F400F4370020FFFCFF0F3C0E47420E
:10734000400E474230380240403802404438024044
:10735000103802402038024024380240743802407D
:1073600080B52749884209D101210846FFF79AFFD5
:1073700000210120BDE80440FFF794BF2149884265
:1073800009D101210220FFF78DFF00210220BDE875
:107390000440FFF787BF1C49884209D1012104201E
:1073A000FFF780FF00210420BDE80440FFF77ABF0B
:1073B0001649884209D101210820FFF773FF0021F7
:1073C0000820BDE80440FFF76DBF1149884209D18C
:1073D00001211020FFF766FF00211020BDE80440C6
:1073E000FFF760BF0B49884209D101218020FFF7D8
:1073F00059FF00218020BDE80440FFF753BF01BDC5
:10740000000002400004024000080240000C02405C
:1074100000100240001C0240F0B4002232E00123C0
:1074200093400C681C409C422BD154000325A5407E
:10743000ED4306682E40066006680F79A7403E437C
:1074400006600E79012E01D0022E11D186682E40E1
:10745000866086684F79A7403E438660466826EA84
:107460000303436043688E799640B6B2334343606A
:10747000C3682B40C360C368CD7905FA04F4234385
:10748000C360521C102ACAD3F0BC70474FF6FF717C
:1074900001600021017141718171C1717047002249
:1074A0000069084200D001221046704701837047EE
:1074B0004183704710B4CB1000EB830001F007014B
:1074C0008900036A0F248C40A3430362036A02FA13
:1074D00001F11943016210BC7047000080B54349B7
:1074E00088420BD101214FF40010FFF7E6FE002186
:1074F0004FF40010BDE80440FFF7DFBE3C4988426E
:107500000BD101214FF48000FFF7D7FE00214FF48B
:107510008000BDE80440FFF7D0BE364988420BD159
:1075200001214FF40000FFF7C8FE00214FF40000D6
:10753000BDE80440FFF7C1BE01BD7FB504460D465E
:10754000A68800A8FFF73CFE02992B48B1FBF0F09B
:107550004FF6C07232400243A28022884FF6FE737B
:107560001A4022802A68254B9A420AD25200B1FB67
:10757000F2F10A4692B2042A00D20421401C20846F
:1075800021E0EB884BF6FF76B34204D102EB4202D6
:10759000B1FBF2F106E019235A43B1FBF2F141F4D9
:1075A000804189B20A0502D141F0010189B241F45A
:1075B000004180B24FF4967250434FF47A7290FBC0
:1075C000F2F0401C2084A183208840F0010020803C
:1075D00020884FF6F5310840A98808436989084397
:1075E0002080A8892989084320817FBD005400405C
:1075F00000580040005C004040420F00A18601009E
:107600000029018803D041F00101018070474FF645
:10761000FE721140018070470029018803D041F4B7
:107620008071018070474FF6FF6211400180704702
:107630000029018803D041F40071018070474FF6A2
:10764000FF52114001807047002A02D041F0010131
:1076500001E001F0FE01018270470029018803D09A
:1076600041F48061018070474FF6FF321140018084
:1076700070470029018803D041F400410180704720
:107680004904490C0180704782B00246002003463D
:107690000193009300920A0F01920902090A019ACC
:1076A000002A03D0009A1432009203E0090C009AD9
:1076B00018320092009A12680A4200D0012002B0EB
:1076C0007047000080B5254988420BD101214FF455
:1076D0008050FFF7FDFD00214FF48050BDE80440CD
:1076E000FFF7F6BD1E4988420BD101214FF48040BF
:1076F000FFF7E3FD00214FF48040BDE80440FFF7B1
:10770000DCBD184988420BD101214FF40040FFF73E
:10771000D4FD00214FF40040BDE80440FFF7CDBD8B
:1077200001BD028802F441520B881A434B881A4368
:107730008B881A43CB881A430B891A434B891A4307
:107740008B891A43CB891A430280828B4FF2FF73D5
:107750001A408283098A018270470000003001408C
:1077600000380040003C00400029018803D041F06F
:107770004001018070474FF6BF7211400180704791
:10778000002A828802D011438180704722EA0101D9
:107790008180704700220089084200D001221046F3
:1077A000704700000168490849000160002101603C
:1077B00041608160C1600161212141616A49884263
:1077C00003D16A483D21016070476949884204D16C
:1077D00066484FF47461016070476649884204D17D
:1077E00062484FF47411016070476349884204D1C4
:1077F0005E484FF07461016070476049884203D170
:107800005A485F49416070475E49884203D15748F2
:107810005D49416070475D49884203D153485C49E6
:10782000416070475B49884204D150484FF03D5158
:10783000416070475849884203D158483D21016052
:1078400070475749884204D154484FF4746101602D
:1078500070475449884204D150484FF47411016074
:1078600070475149884204D14C484FF0746101601F
:1078700070474E49884203D14848414941607047AA
:107880004B49884203D145483F49416070474949C7
:10789000884203D141483E49416070474649884289
:1078A00003D13E484FF03D51416070470268434B61
:1078B0001A400B681A43CB681A434B691A438B6909
:1078C0001A43CB691A430B6A1A434B6A1A438B6AF1
:1078D0001A434B6B1A438B6B1A4302604269D208FE
:1078E000CB6A53EAC2020B6B1A4342610A694260D7
:1078F0004A6882608968C16070470029016803D0C6
:1079000041F001010160704749084900016070477A
:10791000002A01D001617047C1607047006800F023
:107920000100704700221C4B984201D2244800E01D
:1079300024488B0001D5406800E0006808402249D7
:10794000084200D0012210467047134A904201D2EB
:107950001B4800E01B481C4A0A40890001D5C26050
:10796000704782607047000010600240086002406B
:10797000286002404060024058600240706002404F
:107980003D00002088600240400F0020A0600240BF
:1079900000003D20B86002401064024008640240CC
:1079A000286402404064024058640240706402400F
:1079B00088640240A0640240B86402403F801CF02A
:1079C00000600240006402407D0F7D0F02490860A4
:1079D000704702490860704720000E4224000E42A2
:1079E00070B504460026DFF83854CA20E8615320F9
:1079F000E86100F018F8002811D0286820F0400055
:107A000028602868216808432860A068A860A868E2
:107A1000616840EA0140A86000F024F80126FF20D8
:107A2000E861304670BD81B000200090DFF8F403BB
:107A30000168490613D44FF0FF310160016801F07D
:107A40004001009A521C0092009AB2F5803F01D08A
:107A50000029F3D00068800900F0010000E0012057
:107A600001B07047DFF8BC03016821F080010160BC
:107A7000704781B000200090DFF8A813CA20886109
:107A800053208861086820F0A0000860086800F0B2
:107A90002000009A521C0092009AB2F5003F01D0DB
:107AA0000028F3D00868400900F00100FF228A6135
:107AB00001B07047F8B507460E460024DFF85C5366
:107AC000002FA86804D140060AD42046F07007E0D1
:107AD000400603D5307800F0BEF901E02046F07092
:107AE0003078002F09D07178090241EA0040B1785E
:107AF0000843F17840EA01460FE000F0A1F907469B
:107B0000707800F09DF9000240EA0747B07800F075
:107B100097F93843F17840EA0146CA206862532059
:107B20006862FFF780FF00280FD0DFF8FC023040CA
:107B30002860FFF797FFA868800605D4FFF799FF34
:107B4000002802D0012400E00124FF2068622046C2
:107B5000F2BD10B50C46DFF8C4120968DFF8C82280
:107B600011400A0C02F03F0323700B0A03F07F035D
:107B7000637001F07F01A17002F04001E170002804
:107B80000BD1207800F067F92070607800F063F97D
:107B90006070A07800F05FF9A07010BDDFF88C1263
:107BA000486A0968704770B506460D460024002EE5
:107BB00006D16878C10603D500F0EF000A3068707E
:107BC000002E05D0687800F046F9A87800F043F957
:107BD000E878002E09D06978090241EA0040A978C6
:107BE0000843297840EA41360FE000F029F90646BB
:107BF000687800F025F9000240EA0646A87800F00F
:107C00001FF93043297840EA4136DFF82052CA2074
:107C1000286253202862FFF706FF00280FD0DFF804
:107C2000100230402860FFF71DFF6868800605D409
:107C3000FFF71FFF002802D0012400E00124FF20ED
:107C40002862204670BD10B50C46DFF8E0110968C7
:107C5000DFF8DC2111400A0CE2700A0A02F01F0270
:107C6000627001F03F02A270490B01F00701217020
:107C700000280BD1E07800F0EEF8E070607800F0BA
:107C8000EAF86070A07800F0E6F8A07010BDDFF8A8
:107C90009011CA22CA615322CA610A68D208D2006E
:107CA0000A600A6810430860FF20C8617047DFF867
:107CB0008411CA220A6153220A610860FF20086108
:107CC000704781B000210091DFF85411CA22CA61C7
:107CD0005322CA610028086804D040F4806008601C
:107CE000012012E020F480600860486800F0040081
:107CF000009A521C0092009AB2F5803F01D00028F1
:107D0000F3D04868800800F00100FF22CA6101B08A
:107D1000704781B000220092474A0092009A02EB1D
:107D2000800000900098016001B0704781B0002190
:107D3000009141490091009901EB8000009000986A
:107D4000006801B0704738B500242246344DCA237C
:107D5000EB615323EB616B681B0701D406E0521CF7
:107D60006B681B0702D5B2F5805FF8D16A6812070D
:107D700009D42A68D20606D408436862FFF779FE60
:107D8000002800D00124FF20E861204632BD244AAB
:107D9000CA23D3615323D36100F0040320F004000D
:107DA0000029116805D008431060906B1843906358
:107DB00005E021EA00001060906B98439063FF207B
:107DC000D06170470021174A12681C4B1A400242CA
:107DD00000D001210846704710B40021104A936B6F
:107DE00003F004031468044003EAD03323435268C9
:107DF00002EA101002D0000400D00121084610BC95
:107E0000704708490003000C40F080000A6802F047
:107E1000800262EA0000086070470000002800400D
:107E2000082800400C2800407F7F7F000428004085
:107E30003FFFFF0014280040502800407F3F010012
:107E4000002101E0491C0A38C0B20A28FAD240EAEF
:107E50000110C0B27047010901EB810200F00F0070
:107E600000EB4200C0B27047EFF303807047BFF3EE
:107E70004F8FDFF80404016801F4E061DFF8FC23B0
:107E800011430160BFF34F8FFEE72DE9F041054636
:107E9000DFF8EC43714611F1030F08D12030206266
:107EA000A062EFF3148040F00200E06206E020627E
:107EB000EFF30980A062EFF31480E062EFF3088033
:107EC0006062EFF305802063EFF300806063FFF7EB
:107ED000CBFFA063EFF31080E063EFF31180206429
:107EE000EFF313806064F1EE100AA064002604E052
:107EF00055F8260044F82600761C082EF8D300F02A
:107F000084F9002840F0038100F008F908F0E2FD50
:107F1000F32008F059FEDB48002505E054F8251051
:107F200008F01CFE30466D1C061D082DF6D3216A94
:107F300008F014FE616A304608F010FE351DA16A93
:107F4000284608F00BFE2D1DE16A284608F006FEC3
:107F50002D1D216B284608F001FE2D1D616B284662
:107F600008F0FCFD2D1DA16B284608F0F7FD2D1D26
:107F7000E16B284608F0F2FD2D1D216C284608F023
:107F8000EDFD2D1D616C284608F0E8FD2D1DA16C4E
:107F9000284608F0E3FD2C1D4421204608F0FAFD98
:107FA000641C5521204608F0F5FD641C4D21204637
:107FB00008F0F0FD641C5021204608F0EBFD641C25
:107FC000002505E03178204608F0C8FD241D6D1C11
:107FD000122D16D20FF2C03050F8356000EBC500FC
:107FE00040680128EED0022806D00428EED131687E
:107FF000204608F0B3FDE9E73188204608F0AEFDE1
:10800000E4E7002609E00FF2204050F8360001684E
:10801000204608F0A3FD2C46761C251D042EF2D325
:10802000002409E00FF2204050F83400016828468F
:1080300008F094FD2D1D641C052CF3D300240FF2D1
:1080400030480CE03168284608F088FD2D1D361DAB
:108050007F1C08EBC40040688742F3D3641C072CE4
:1080600003D258F834600027F3E7002609E00FF246
:10807000384050F836000168284608F06FFD2D1D85
:10808000761C042EF3D34321284608F083FD6C1C94
:108090004F21204608F07EFD641C5221204608F046
:1080A00079FD4521601C08F075FD774C4FF00055B7
:1080B000224629460FF25820F9F7C8FD002606E0AF
:1080C00029786D1C204608F065FD3C46761C671C2F
:1080D000B6F5B83FF4D3224629460FF26820F9F7E7
:1080E000B5FD5321204608F055FD5221384608F0D1
:1080F00051FD7C1C4121204608F04CFD4D21601CA7
:1081000008F048FD08F0EFFC604800F023F80FF29B
:108110006820F9F79BFDBDE8F041A8E610B508F02E
:10812000D9FCF32008F050FD594C3820206002E0C3
:108130002068083020602068402807D2002108F01D
:10814000D8FC0928F4D0FFF792FEFCE7BDE8104008
:1081500008F0C9BC2DE9F04704464E4841684E4A34
:1081600011400D0C0A0A02F01F0601F03F070068DB
:108170004A490840010C01F03F08010A01F07F095B
:1081800000F07F0A08F0A6FCF32008F01DFD44482B
:108190000168204608F0E2FC241DFF21204608F07B
:1081A000F9FC641C2946204608F0F4FC641C3146A6
:1081B000204608F0EFFC641C3946204608F0EAFC33
:1081C000641C4146204608F0E5FC641C49462046F4
:1081D00008F0E0FC641C5146204608F0DBFCF52169
:1081E000601C08F0D7FCBDE8F04708F07CBC80B507
:1081F00008F070FCF32008F0E7FCAA21294808F0F9
:10820000C9FCBDE8014008F06EBC00202549097892
:10821000F52900D10120704710B50446FCF7C8FDD0
:10822000C0B2142800D31320024621461E48FAF794
:1082300048FF4FF0AC30007810BD80B500F038F842
:10824000BDE8014013E680B5FFF7D1FF4FF4C83217
:108250000C490020BDE80840FDF75CBD10B500F0FA
:1082600036F8124C2046FCF7A3FD024621460020BA
:10827000BDE81040FDF74EBD0CED00E00400FA052E
:10828000F0A3002000000608000A0608F4FF070813
:1082900080AB0020002800403FFFFF007F7F7F0071
:1082A00040380020FFFF07080CA9002014380020E8
:1082B00080B501214FF48020FEF7D3FF0120FFF7A6
:1082C00085FB94210F20BDE80440FFF722BD80B557
:1082D00001214FF48020FEF7C4FF0120FFF776FB59
:1082E00000210F20BDE80440FFF713BD10B50024A6
:1082F00001214FF48020FEF7B4FF0120FFF766FB59
:108300000F20FFF713FD942800D10124204610BD53
:108310002D2D2D2D2073746172742072616D206477
:10832000756D70202D2D2D2D203A2072616D283015
:10833000782578292C20666C617368283078257838
:10834000290A00002D2D2D2D20656E642072616D8F
:108350002064756D70202D2D2D2D203A2072616DB9
:108360002830782578292C20666C6173682830784D
:108370002578290A000000005B5353505D5B4A6179
:108380006E675D2021212120205245534554202035
:10839000202121210A00000008E000E00400000084
:1083A00000ED00E00400000004ED00E00400000027
:1083B00008ED00E0040000000CED00E00400000007
:1083C00010ED00E00400000014ED00E004000000E7
:1083D00018ED00E0040000001CED00E004000000C7
:1083E00020ED00E00400000024ED00E004000000A7
:1083F00028ED00E00100000029ED00E00100000090
:108400002AED00E0020000002CED00E00400000076
:1084100034ED00E00400000038ED00E0040000004E
:108420003CED00E00400000010E000E0040000006B
:1084300014E000E00400000018E000E00400000088
:108440001CE000E00400000090ED00E004000000EB
:1084500094ED00E00400000098ED00E0040000004E
:108460009CED00E004000000A0ED00E0040000002E
:1084700000E100E00800000080E100E008000000EA
:1084800000E200E00800000080E200E008000000D8
:1084900000E300E00800000000E400E03C00000011
:1084A00000EF00E00100000088ED00E004000000A3
:1084B00034EF00E00400000038EF00E004000000AA
:1084C0003CEF00E00400000030B40168CB432149D8
:1084D0008279002A27D00A46146823401360536823
:1084E0000468A34353600379CC18236805682B43C1
:1084F000236093680468A3439360D3680468A3432C
:10850000D36043790568102B07D1916829439160A6
:10851000D16800680843D0600AE051FA83F420680B
:108520002843206004E000790C182068184020607F
:1085300030BC70470021074A136803405269024269
:1085400002D0002B00D00121084670470249086084
:1085500070470000003C0140143C014019490843A9
:1085600019490860704770B403781A460121C4782D
:10857000002C1DD0144B1B6803F4E063C3F5E063CB
:108580001B0A4478C3F10405AC4085780F2646FAEF
:1085900003F32B4023431B010C4C1355007842116D
:1085A0000B4B00F01F0001FA00F043F8220006E038
:1085B0005011084A03F01F03994042F8201070BC84
:1085C000704700000000FA050CED00E000E400E058
:1085D00000E100E080E100E030B401F0030292002D
:1085E00021F00301054BCC580F259540AC43CC50EE
:1085F000CC5890402043C85030BC704708380140E8
:1086000080B501214FF48070FEF762FE00214FF427
:108610008070BDE80440FEF75BBE42684D4B1A40D7
:108620000B7942EA03220B681A43426082684A4B84
:108630001A400B691A43CB681A438B681A434B796B
:1086400042EA43028260C26A22F47002097D491E36
:10865000C9B242EA0151C162704700210160017153
:1086600041718160C16001610121017570473B4921
:108670000A683B4B1A4003681A4343681A438368ED
:108680001A43C068104308607047002101604160D0
:108690008160C16070470029816803D041F0010109
:1086A00081607047490849008160704770B40724B1
:1086B0000A290BD3C568A1F10A0606EB4606B440A9
:1086C00025EA0404B3402343C36008E0056901EBD5
:1086D0004106B44025EA0404B340234303611F2349
:1086E000072A0AD2446B521E02EB8202934024EA0C
:1086F000030391401943416316E00D2A0AD2046B2B
:10870000D21F02EB8202934024EA030391401943F3
:10871000016309E0C46A0D3A02EB8202934024EA45
:10872000030391401943C16270BC7047816841F0F6
:108730008041816070470029816803D041F48061E5
:108740008160704721F4806181607047C06C80B2A5
:1087500070470000FFFEFFFCFDF7FFC0042301404F
:10876000E030FCFF00220068084200D001221046E1
:108770007047000013F0004C03D55B42524263F196
:1087800000039CEA210C00F0178010B5644603D367
:108790004942404261F1000100F00EF8640004D348
:1087A0004942404261F10001244203D55B425242FA
:1087B00063F1000310BD00001B4213D1094236D102
:1087C0002AB18446B0FBF2F002FB10C2704708F0F9
:1087D00039BAFCD30022002370470B0002000021AD
:1087E00000207047904271EB030CF6D370B5B1FADC
:1087F00081F4B3FA83F52C1BA340C4F1200532FAAF
:1088000005F63343A2405FF00046E64002E05B0815
:108810005FEA3202841A71EB030524BF2046294621
:108820007641F4D302000B003000002170BD012A14
:10883000CFD970B5140C20D0B1FA81F4B2FA82F518
:10884000C4F120046419B4F12006D6D3B2405FF01D
:108850000044F440002502E052085FEA3303C61AE0
:1088600071EB020E24BF3046714664416D41F3D373
:1088700002000B002000290070BD0C46B1FBF2F194
:1088800002FB11452D0445EA1045B5FBF2F402FB4D
:10889000145580B240EA0545B5FBF2F002FB1052D8
:1088A00040EA044070BD000030B5134D044681B06D
:1088B000287820B9281D08F0E5F901202870281D26
:1088C00008F0FAF9204609F053F80446281D08F08C
:1088D00014FA204601B030BD30B5074D044681B0D2
:1088E000281D08F0E9F9204609F08EF9281D01B08D
:1088F000BDE8304008F001BA70A9002000B583B08F
:108900000020ADF8040000208DF8060000208DF84E
:108910000700012000900DF106037622D0210020EF
:10892000F9F72BFA002801D1002044E076208DF8D9
:1089300004009DF8060050F020008DF80500022389
:1089400001AAD0210020F9F7D6F9002801D1002092
:1089500031E0012000900DF107034922D0210020D1
:10896000F9F70BFA002801D1002024E049208DF806
:1089700004009DF8070050F001008DF80500022367
:1089800001AAD0210020F9F7B6F9002801D1002072
:1089900011E076208DF804009DF806008DF80500A2
:1089A000022301AAD0210020F9F7A5F9002801D15E
:1089B000002000E001200EBD38B50400F9F7CBF827
:1089C0000500DFF8B80C0078401CDFF8B01C087018
:1089D000FCF769FADFF8A40C4078401CDFF89C1C17
:1089E0004870210089B22800F9F784FADFF88C0C6E
:1089F0004078401EDFF8841C4870C0B2002801D1C6
:108A0000FCF74BFAFCF7F2FA31BD10B582B000204A
:108A1000ADF80000F9F79FF804006B208DF8000016
:108A200080208DF80100022300AAD0210020F9F750
:108A300062F9002801D1002094E064212000F9F7B8
:108A400059FAFFF75BFF002801D100208AE06B2074
:108A50008DF8000000208DF80100022300AAD0212B
:108A60000020F9F748F9002801D100207AE02821F8
:108A70002000F9F73FFA19208DF8000004208DF846
:108A80000100022300AAD0210020F9F734F90028C0
:108A900001D1002066E01A208DF8000003208DF837
:108AA0000100022300AAD0210020F9F724F90028B0
:108AB00001D1002056E01B208DF8000008208DF821
:108AC0000100022300AAD0210020F9F714F90028A0
:108AD00001D1002046E01D208DF8000003208DF814
:108AE0000100022300AAD0210020F9F704F9002890
:108AF00001D1002036E06A208DF8000000208DF8BA
:108B00000100022300AAD0210020F9F7F4F8002880
:108B100001D1002026E06C208DF800003F208DF868
:108B200001009DF80110DFF8140DF9F78FF802230A
:108B300000AAD0210020F9F7DEF8002801D100209A
:108B400010E06B208DF8000040208DF8010002231A
:108B500000AAD0210020F9F7CEF8002801D100208A
:108B600000E0012016BD0178407850EA012000B2F3
:108B7000704780B502200090DFF8C43C6B22D02102
:108B80000020F9F7FAF8002801D100205BE001206D
:108B90000090DFF8B03C1A22D0210020F9F7EDF860
:108BA000002801D100204EE001200090DFF8983C21
:108BB0001B22D0210020F9F7E0F8002801D1002085
:108BC00041E001200090DFF8843C1C22D0210020ED
:108BD000F9F7D3F8002801D1002034E001200090FB
:108BE000DFF86C3C1D22D0210020F9F7C6F80028E0
:108BF00001D1002027E001200090DFF8583C6A22D4
:108C0000D0210020F9F7B9F8002801D100201AE09E
:108C100001200090DFF8403C3822D0210020F9F7F5
:108C2000ACF8002801D100200DE001200090DFF811
:108C3000A43D1922D0210020F9F79FF8002801D186
:108C4000002000E0012002BD80B50020ADF800004A
:108C50006B208DF80000DFF8E80B00788DF801003C
:108C6000022300AAD0210020F9F745F8002801D1FD
:108C7000002090E06C208DF80000DFF8C40B4078F5
:108C80008DF80100022300AAD0210020F9F733F863
:108C9000002801D100207EE01A208DF80000DFF8C6
:108CA000A00B00798DF80100022300AAD02100203A
:108CB000F9F721F8002801D100206CE01B208DF885
:108CC0000000DFF87C0B40798DF80100022300AA38
:108CD000D0210020F9F70FF8002801D100205AE038
:108CE0001C208DF80000DFF8580B80798DF801000A
:108CF000022300AAD0210020F8F7FDFF002801D1AF
:108D0000002048E01D208DF80000DFF8340BC0790A
:108D10008DF80100022300AAD0210020F8F7EBFF14
:108D2000002801D1002036E06A208DF80000DFF82D
:108D3000100BC0788DF80100022300AAD02100207A
:108D4000F8F7D9FF002801D1002024E019208DF880
:108D50000000DFF8EC0A80788DF80100022300AAF9
:108D6000D0210020F8F7C7FF002801D1002012E031
:108D700038208DF80000DFF8C80A007A8DF801006D
:108D8000022300AAD0210020F8F7B5FF002801D166
:108D9000002000E0012002BD10B582B00020ADF837
:108DA0000000DFF89C0A007840060FD56B208DF894
:108DB000000000208DF80100022300AAD02100202D
:108DC000F8F799FF002801D10020B9E06C208DF858
:108DD0000000DFF86C0A407810F0F8008DF8010010
:108DE000022300AAD0210020F8F785FF002801D136
:108DF0000020A5E06A208DF8000000208DF8010019
:108E0000022300AAD0210020F8F775FF002801D125
:108E1000002095E0002400E0641C062C10DA14F118
:108E200013008DF8000000208DF80100022300AA35
:108E3000D0210020F8F75FFF0028EDD100207FE06F
:108E400019208DF8000000208DF80100022300AAEF
:108E5000D0210020F8F74FFF002801D100206FE05B
:108E60001A208DF8000003208DF801004FF4FA64F9
:108E70002000B0F5FA7F13D0B0F57A7F09D0B0F5B5
:108E8000FA6F14D19DF8010050F018008DF8010020
:108E900011E09DF8010050F010008DF801000AE08B
:108EA0009DF8010050F008008DF8010003E09DF8E6
:108EB00001008DF80100022300AAD0210020F8F75C
:108EC0001AFF002801D100203AE0B4F5FA7F0DD056
:108ED000B4F57A7F06D0B4F5FA6F0BD103208DF884
:108EE00001000AE002208DF8010006E001208DF863
:108EF000010002E000208DF801001B208DF8000029
:108F00009DF80100C0008DF80100022300AAD021C5
:108F10000020F8F7F0FE002801D1002010E03820F2
:108F20008DF8000000208DF80100022300AAD02156
:108F30000020F8F7E0FE002801D1002000E0012029
:108F400016BD00B583B00020ADF8060000208DF8F6
:108F500004006B208DF8060001208DF80700022325
:108F60000DF10602D0210120F8F7C5FE002801D13D
:108F7000002023E02820FFF71FFD0120009001AB17
:108F80006C22D0210120F8F7F8FE002801D1002042
:108F900014E06C208DF806009DF8040010F0C0006D
:108FA0008DF8070002230DF10602D0210120F8F709
:108FB000A2FE002801D1002000E001200EBD2DE915
:108FC000F04F85B004000D0016001F000020ADF822
:108FD000040002A80021002206C0083806208DF8EF
:108FE000060038208DF8040000208DF805000223CB
:108FF00001AAD0210120F8F77EFE002802D15FF0FF
:10900000FF3070E123208DF8040000208DF805006A
:10901000022301AAD0210120F8F76DFE002802D119
:109020005FF0FF305FE16A208DF8040000208DF8CA
:109030000500022301AAD0210120F8F75CFE0028D8
:1090400002D15FF0FF304EE16A208DF80400042069
:109050008DF80500022301AAD0210120F8F74BFE6C
:10906000002802D15FF0FF303DE11A208DF80400A6
:1090700001208DF80500022301AAD0210120F8F774
:109080003AFE002802D15FF0FF302CE119208DF864
:10909000040000208DF80500022301AAD021012040
:1090A000F8F729FE002802D15FF0FF301BE11B20FA
:1090B0008DF804008DF80540022301AAD02101207B
:1090C000F8F719FE002802D15FF0FF300BE1FFB284
:1090D000002F0FD01C208DF804008DF805400223CE
:1090E00001AAD0210120F8F706FE002802D15FF086
:1090F000FF30F8E064B2002C02D0C820FFF75CFC1F
:109100006A208DF8040044208DF80500022301AA8E
:10911000D0210120F8F7EFFD002802D15FF0FF30E9
:10912000E1E023208DF80400FFB2002F03D00820D7
:109130008DF8050002E070208DF80500022301AAD9
:10914000D0210120F8F7D7FD002802D15FF0FF30D1
:10915000C9E00A20FFF730FC002408E0E4B2002058
:1091600045F82400E4B2002046F82400641CE4B270
:10917000032CF3D35FF00009B9F1320F6EDA0A2045
:10918000FFF71AFC0220009002AB7222D0210120CE
:10919000F8F7F3FD002802D15FF0FF30A3E002A84A
:1091A000FFF7E1FC9DF8061090FBF1F8B8F1070F0E
:1091B00002DA7FF0010096E000241AE05FFA8AFAF2
:1091C00055F82AB05FFA8AFA02A810EB4A00FFF7B6
:1091D000CAFC0BFA80F05FFA8AFA45F82A001AF105
:1091E000010A5FFA8AFABAF1030FE7D319F101090C
:1091F000641CE4B24445BFDAB9F1320FBCDA9DF821
:109200000600009002AB7422D0210120F8F7B5FDD2
:10921000002802D15FF0FF3065E0FFB2002F1AD0C6
:109220005FF0000A5FFA8AFABAF1030FDED25FFA42
:109230008AFA56F82AB05FFA8AFA02A810EB4A00B6
:10924000FFF791FC0BFA80F05FFA8AFA46F82A00E1
:109250001AF1010AE6E75FF0000AC2E723208DF861
:10926000040000208DF80500022301AAD02101206E
:10927000F8F741FD002802D15FF0FF3033E05FF0E6
:10928000000A0FE05FFA8AFA55F82A004FF47A7163
:109290004843322190FBF1F05FFA8AFA45F82A0040
:1092A0001AF1010A5FFA8AFABAF1030FEAD3FFB2A0
:1092B000002F17D05FF0000A0FE05FFA8AFA56F825
:1092C0002A004FF47A714843322190FBF1F05FFAA3
:1092D0008AFA46F82A001AF1010A5FFA8AFABAF104
:1092E000030FEAD3012005B0BDE8F08F2DE9F0436C
:1092F00089B004000D00160000275FF0010801A8E6
:10930000002101605FF000090320009001AB0D22F5
:10931000D0210120F8F731FD002801D15FF0FF389E
:109320005FF0000905E005A8002140F8291019F1B7
:109330000109B9F1030F11DA01A819F8000000289A
:10934000F1D001A819F80000DFF86C1911EB40000A
:1093500030F8020C05A941F82900E8E75FF00009A0
:109360001FE002A850F82900DFF85019884207DAF8
:10937000DFF84C09F8F76AFC012010FA09F00743FE
:1093800002A850F82900DFF83C19884207DBDFF813
:109390003809F8F75BFC012010FA09F0074319F1CE
:1093A0000109B9F1030F2BDA55F8290056F82910F5
:1093B000401A08F0A1FE02A941F8290005A850F8BA
:1093C00029000028CDD002A850F8290005A951F89D
:1093D000291090FBF1F0B0F57A7008F08DFE24F8BA
:1093E000190034F9190040F2F5118842D7DBDFF893
:1093F000DC08F8F72BFC012010FA09F00743CEE750
:10940000B4F904000090B4F90230B4F90020390036
:10941000DFF8BC08F8F71AFC002F05D0DFF8B40815
:10942000F8F714FC7FF00208404640B209B0BDE8EE
:10943000F08338B505000020ADF800000020ADF83D
:109440000200F8F788FB040038208DF800000020A7
:109450008DF80100022300AAD0210020F8F74BFC70
:10946000002801D1002074E000F0B6FA002801D1F4
:1094700000206EE01F208DF800004B208DF80100C9
:10948000022300AAD0210020F8F735FC002801D1E2
:1094900000205EE01E208DF8000006208DF80100FF
:1094A000022300AAD0210020F8F725FC002801D1D2
:1094B00000204EE069208DF80000C0208DF80100EA
:1094C000022300AAD0210020F8F715FC002801D1C2
:1094D00000203EE0012201210320F8F78DFD00204D
:1094E000F8F78CFD38208DF8000040208DF8010041
:1094F000022300AAD0210020F8F7FDFB002801D1AB
:10950000002026E0012028702000407DC046012870
:1095100010D001212000F8F7EDFCBDF80200401C3E
:10952000ADF80200BDF802003228EDD3DFF8A8073D
:10953000F8F78CFB012200210320F8F75DFD0020E5
:10954000F8F75CFD00F03EFB002801D1002000E0B0
:10955000012032BD70B58EB0040000A800210022A9
:1095600006C00838012500260BA800210022002390
:109570000EC00C3808A80021002200230EC00C38B1
:1095800005A80021002200230EC00C3802A80021EB
:10959000002200230EC00C38FFF7EBFA002801D19F
:1095A000002056E0FFF7F8FB002806D00126FFF761
:1095B000C8FC002803D100204BE0002049E0012333
:1095C00002AA08A90020FFF7FAFC05006DB2012DE0
:1095D00004D0DFF80007F8F739FB1CE0012305AAE7
:1095E0000BA97FF01F00FFF7EAFC05006DB2012D0B
:1095F00004D0DFF8D806F8F729FB0CE005AA02A989
:1096000000A8FFF773FE05006DB2012D03D0DFF84F
:10961000B006F8F71BFB2670BDF800006070BDF9BE
:1096200000000012A070BDF80200E070BDF9020059
:1096300000122071BDF804006071BDF90400001231
:10964000A071E571FFF700FB002801D1002000E0C8
:1096500001200EB070BD80B5DFF8800600780028CC
:1096600009D1FFF7D2F9002801D1002004E0DFF88A
:109670006C0601210170012002BD0000243700208A
:1096800000B583B000208DF806000020ADF804007E
:10969000012000900DF106036B22D0210020F8F785
:1096A0006CFB002801D100207FE09DF806004006F9
:1096B00012D56B208DF804009DF8060010F0BF0055
:1096C0008DF80500022301AAD0210020F8F713FB32
:1096D000002801D1002068E0012000900DF1060370
:1096E0006C22D0210020F8F748FB002801D100208F
:1096F0005BE06C208DF804009DF8060010F0C700B8
:109700008DF80500022301AAD0210020F8F7F3FA12
:10971000002801D1002048E01D208DF804004320DE
:109720008DF80500022301AAD0210020F8F7E3FA02
:10973000002801D1002038E01C208DF80400002012
:109740008DF80500022301AAD0210020F8F7D3FAF2
:10975000002801D1002028E020208DF8040080207E
:109760008DF80500022301AAD0210020F8F7C3FAE2
:10977000002801D1002018E01F208DF8040080206F
:109780008DF80500022301AAD0210020F8F7B3FAD2
:10979000002801D1002008E0DFF84405007850F0EF
:1097A0000100DFF83C15087001200EBD00B583B044
:1097B00000208DF806000020ADF804000120009084
:1097C0000DF106036C22D0210020F8F7D6FA00280C
:1097D00001D1002030E06C208DF804009DF80600D7
:1097E00050F038008DF80500022301AAD021002096
:1097F000F8F781FA002801D100201DE0DFF8E0042D
:10980000007880070FD46B208DF8040040208DF87D
:109810000500022301AAD0210020F8F76CFA0028E5
:1098200001D1002008E0DFF8B804007810F0FE0055
:10983000DFF8AC14087001200EBD000084AB0208F4
:1098400024AA002028AA002029AA00202AAA002051
:109850002BAA002027AA00202CAA002000B583B044
:1098600000208DF804000020ADF8060001200090D3
:1098700001AB6C22D0210020F8F77FFA002801D13B
:10988000002014E06C208DF806009DF8040050F0D4
:1098900038008DF8070002230DF10602D0210020C8
:1098A000F8F729FA002801D1002000E001200EBDC0
:1098B0007FB504000D0002A80021002206C0083870
:1098C0000020ADF80400F8F746F90600DFF81404AC
:1098D0000068401CDFF80C1408600120009002AB07
:1098E0006B22D0210020F8F748FA002801D100208F
:1098F0006EE09DF8080040061AD56B208DF8040034
:109900009DF8080010F0BF008DF80500022301AAA1
:10991000D0210020F8F7EFF9002801D1002057E00E
:1099200005213000F8F7E6FADFF8BC03F8F78EF906
:109930000120009002AB6C22D0210020F8F71DFA24
:10994000002801D1002043E09DF80800382108429A
:109950001CD06C208DF804009DF8080010F0C700A2
:109960008DF80500022301AAD0210020F8F7C3F9E1
:10997000002801D100202BE005213000F8F7BAFAC9
:10998000DA48F8F763F9DA4801210160EDB2009591
:1099900002AB3B22D0210020F8F7EFF9002804D1D8
:1099A000D448F8F753F9002012E09DF80900207020
:1099B0009DF8080060709DF80B00A0709DF80A00EB
:1099C000E0709DF80D0020719DF80C006071012081
:1099D00004B070BD26AA002030B583B00124002059
:1099E000ADF8060000208DF80400F8F7B4F8050083
:1099F0000120009001AB6B22D0210020F8F7BDF9C7
:109A0000002801D100208BE09DF8040040061AD503
:109A10006B208DF806009DF8040010F0BF008DF853
:109A2000070002230DF10602D0210020F8F763F9A8
:109A3000002801D1002073E005212800F8F75AFA28
:109A4000AD48F8F703F91D208DF8060008208DF8C1
:109A5000070002230DF10602D0210020F8F74BF990
:109A6000002801D100205BE00120009001AB6C22B6
:109A7000D0210020F8F781F9002801D100204FE023
:109A80006C208DF806009DF8040050F080008DF8E1
:109A900004009DF8040050F007008DF804009DF8C4
:109AA000040010F0C7008DF804009DF804008DF844
:109AB000070002230DF10602D0210020F8F71BF960
:109AC000002801D100202BE00120009001AB6B2287
:109AD000D0210020F8F751F9002801D100201FE023
:109AE0006B208DF806009DF8040010F0BF008DF883
:109AF00004009DF8040050F020008DF804009DF84B
:109B000004008DF8070002230DF10602D021002089
:109B1000F8F7F1F8002801D1002001E02000C0B2E0
:109B20003EBD80B50020ADF80000FFF755FF0028CE
:109B300001D1002045E01F208DF800004B208DF85A
:109B40000100022300AAD0210020F8F7D4F8002851
:109B500001D1002035E01E208DF8000006208DF890
:109B60000100022300AAD0210020F8F7C4F8002841
:109B700001D1002025E069208DF80000C0208DF87B
:109B80000100022300AAD0210020F8F7B4F8002831
:109B900001D1002015E0012201210320F8F72CFA61
:109BA00038208DF8000040208DF80100022300AA23
:109BB000D0210020F8F79FF8002801D1002000E014
:109BC000012002BD80B50020ADF800000122002177
:109BD0000320F8F711FA38208DF8000000208DF8E6
:109BE0000100022300AAD0210020F8F784F8002801
:109BF00001D1002040E06B208DF8000000208DF89E
:109C00000100022300AAD0210020F8F774F80028F0
:109C100001D1002030E01D208DF8000000208DF8DB
:109C20000100022300AAD0210020F8F764F80028E0
:109C300001D1002020E06C208DF8000000208DF87C
:109C40000100022300AAD0210020F8F754F80028D0
:109C500001D1002010E069208DF8000000208DF86F
:109C60000100022300AAD0210020F8F744F80028C0
:109C700001D1002000E0012002BD80B5017801295A
:109C800005D1FFF7D6FB00280AD1002009E00178B2
:109C9000022905D1FFF75EFC002801D1002000E079
:109CA000012002BD80B515490020FAF725FE1449B0
:109CB0000B20FAF721FE01BD90940208003E4900F6
:109CC000E4AB020801EFE700ECAB0208DCAB0208F2
:109CD00048AB0208F4AB0208FCAB020807AB00205B
:109CE000D8AB002070AB002004AC02080CAC02081A
:109CF00074AB002014AC02081CAC02084C710208C2
:109D00003C7A020880B50020DFF8681B097800293A
:109D100006D1FEF77AFEDFF85C1B01220A7000E034
:109D20000120C0B202BD00B583B000208DF806004E
:109D30000020ADF80400012000900DF106036B2215
:109D4000D0210120F8F719F8002801D100205BE0AC
:109D50006B208DF804009DF8060010F0BF008DF810
:109D60000500022301AAD0210120F7F7C4FF002833
:109D700001D1002048E0012000900DF106036C2283
:109D8000D0210120F7F7F9FF002801D100203BE0A6
:109D90006C208DF804009DF8060010F0F8008DF896
:109DA0000500022301AAD0210120F7F7A4FF002813
:109DB00001D1002028E01B208DF8040008208DF838
:109DC0000500022301AAD0210120F7F794FF002803
:109DD00001D1002018E01A208DF8040003208DF82E
:109DE0000500022301AAD0210120F7F784FF0028F3
:109DF00001D1002008E0DFF8800A007850F002006E
:109E0000DFF8741A087001200EBD00B583B0002081
:109E10008DF806000020ADF80400012000900DF13F
:109E200006036C22D0210120F7F7A7FF002801D1FB
:109E3000002030E06C208DF804009DF8060050F002
:109E400007008DF80500022301AAD0210120F7F7B1
:109E500052FF002801D100201DE0DFF81C0A007825
:109E6000C0070FD46B208DF8040040208DF805004A
:109E7000022301AAD0210120F7F73DFF002801D1DC
:109E8000002008E0DFF8F009007810F0FD00DFF8AE
:109E9000E819087001200EBD00B583B000208DF8D0
:109EA00004000020ADF806000120009001AB6C22F8
:109EB000D0210120F7F761FF002801D1002014E034
:109EC0006C208DF806009DF8040050F007008DF816
:109ED000070002230DF10602D0210120F7F70BFF46
:109EE000002801D1002000E001200EBD7FB5040054
:109EF00002A80021002206C0083800260020ADF884
:109F00000400F7F728FE05000120009002AB6B2249
:109F1000D0210120F7F731FF002801D1002083E094
:109F20009DF80800400625D56B208DF804009DF8AB
:109F3000080010F0BF008DF80500022301AAD0210F
:109F40000120F7F7D8FE002801D100206CE00A219B
:109F50002800F7F7CFFFDFF82409F7F777FE002690
:109F600003E0F6B200203055761CF6B2062EF8D388
:109F7000012059E00120009002AB6C22D021012089
:109F8000F7F7FBFE002801D100204DE09DF8080006
:109F90000721084225D06C208DF804009DF80800A8
:109FA00010F0F8008DF80500022301AAD02101204D
:109FB000F7F7A1FE002801D1002035E00A21280092
:109FC000F7F798FFDFF8B808F7F740FE002603E040
:109FD000F6B200203055761CF6B2062EF8D30120DA
:109FE00022E00620009002AB4322D0210120F7F7A7
:109FF000C4FE002805D1DFF88C08F7F727FE002003
:10A0000012E09DF8090020709DF8080060709DF82E
:10A010000B00A0709DF80A00E0709DF80D00207103
:10A020009DF80C006071012004B070BD2DE9F64F61
:10A03000ADF63C6D05000020ADF8080003A8142122
:10A04000FAF788FE002608A80021002200230EC08F
:10A050000C385FF0000940F68C1068444FF49661AC
:10A06000FAF778FEFFA8E0304FF49661FAF772FE37
:10A070000BA84FF49661FAF76DFE5FF00008002719
:10A0800000240020070000E07F1C032F80F2BA802C
:10A090006B208DF80800781C8DF80900022302AAB5
:10A0A000D0210120F7F727FE002801D1002099E1F7
:10A0B0003220FEF781FC6A208DF8080044208DF8DC
:10A0C0000900022302AAD0210120F7F714FE00287C
:10A0D00001D1002086E1012409E019EB060608A859
:10A0E00050F8270019EB000008A941F827002000CC
:10A0F000441E012875DB23208DF8080070208DF8A0
:10A100000900022302AAD0210120F7F7F4FD00285C
:10A1100001D1002066E14B20FEF74EFC23208DF894
:10A12000080000208DF80900022302AAD021012096
:10A13000F7F7E1FD002801D1002053E10220009053
:10A1400003AB7222D0210120F7F717FE002801D1BE
:10A15000002047E103A8FEF706FD00EE100AB8EE66
:10A16000C00A10EE100A07F0CBFFDFF81C27DFF85B
:10A170001C3707F0EDFF08F0BDF88146B9F1480043
:10A180000128B4DB5FF000081DE003A8FEF7EBFC3C
:10A1900018EB060140F68C126A4422F811000DF10A
:10A1A0000E00FEF7E0FC18EB0601FFAAE03222F8F1
:10A1B000110004A8FEF7D7FC18EB06010BAA22F841
:10A1C000110018F10108C84587DA0620009003AB9A
:10A1D0007422D0210120F7F7D0FD0028D5D100202E
:10A1E00000E123208DF8080000208DF809000223EB
:10A1F00002AAD0210120F7F77EFD00287FF444AFAA
:10A200000020EFE0002E01D0340000E001245FF0D8
:10A21000000800200021C5E9000100200021C5E957
:10A22000020100200021C5E9040122E0D5E9000176
:10A2300040F68C126A4432F91820D317801859411D
:10A24000C5E90001D5E90201FFAAE03232F9182080
:10A25000D31780185941C5E90201D5E904010BAAB9
:10A2600032F91820D31780185941C5E9040118F1B3
:10A270000108B045DADBD5E900012200E317FEF75B
:10A2800079FAC5E90001D5E902012200E317FEF7DA
:10A2900071FAC5E90201D5E904012200E317FEF7CE
:10A2A00069FAC5E904015FF00008DDF83C0E002200
:10A2B0000023C0E90023DDF83C0E00220023C0E9A2
:10A2C0000223DDF83C0E00220023C0E9042382E0D3
:10A2D000DDF83C2ED2E90001CDE9000140F68C10FA
:10A2E000684430F91800C117D5E90023801A994154
:10A2F00040F68C126A4432F918A05FEAEA7BD5E98D
:10A300000023BAEB02027BEB0303A2FB00AB02FBD0
:10A3100001BB03FB00BBDDE9000110EB0A0051EBC0
:10A320000B01DDF83C2EC2E90001DDF83C2ED2E93C
:10A330000201CDE90001FFA8E03030F91800C11793
:10A34000D5E90223801A9941FFAAE03232F918A018
:10A350005FEAEA7BD5E90223BAEB02027BEB030357
:10A36000A2FB00AB02FB01BB03FB00BBDDE900016C
:10A3700010EB0A0051EB0B01DDF83C2EC2E90201A3
:10A38000DDF83C2ED2E90401CDE900010BA830F93B
:10A390001800C117D5E90423801A99410BAA32F994
:10A3A00018A05FEAEA7BD5E90423BAEB02027BEB53
:10A3B0000303A2FB00AB02FB01BB03FB00BBDDE917
:10A3C000000110EB0A0051EB0B01DDF83C2EC2E955
:10A3D000040118F10108B045FFF67AAFDDF8400E30
:10A3E000066001200DF6446DBDE8F08F2DE9F043C5
:10A3F00089B004000D00160001275FF0000801A8D5
:10A40000002101600320009001AB0022D021012037
:10A41000F7F7B3FC002801D15FF0FF375FF00009C8
:10A4200007E04FFA89F905A8002140F8291019F131
:10A4300001094FFA89F9B9F1030F17DA4FFA89F9CF
:10A4400001A819F800000028EBD04FFA89F901A8FB
:10A4500019F80000DFF8381411EB400030F8020C56
:10A460004FFA89F905A941F82900E0E75FF00009F2
:10A4700025E04FFA89F902A850F82900DFF81414F2
:10A48000884208DADFF81004F7F7E0FB012010FA41
:10A4900009F050EA08084FFA89F902A850F8290093
:10A4A000DFF8F813884208DBDFF8F403F7F7CEFB98
:10A4B000012010FA09F050EA080819F101094FFAD1
:10A4C00089F9B9F1030F3BDA4FFA89F955F82900F8
:10A4D0004FFA89F956F82910401A07F00DFE4FFA85
:10A4E00089F902A941F829004FFA89F905A850F81D
:10A4F00029000028BDD04FFA89F902A850F8290098
:10A500004FFA89F905A951F8291090FBF1F0B0F53F
:10A510007A7007F0F1FD4FFA89F924F819004FFA23
:10A5200089F934F9190040F2F5118842C5DBDD489C
:10A53000F7F78CFB012010FA09F050EA0808BCE795
:10A540004FFA88F8B8F1000F04D0D748F7F77EFB30
:10A550007FF00207380040B209B0BDE8F0832DE972
:10A56000F0439DB00400012501260CA81821FAF73C
:10A57000F1FB06A81821FAF7EDFB02A80021016003
:10A5800000A80021002206C00838002718A80021D2
:10A59000002200230EC00C3815A800210022002341
:10A5A0000EC00C3812A80021002200230EC00C3867
:10A5B00003A80021002200230EC00C38BB48D0F8AD
:10A5C0000480FEF7D6FA002801D10020EDE0FEF766
:10A5D000E3FB0500EDB2012D09D1012702AA06A96E
:10A5E0000CA8FFF723FD002803D10020DDE00020A8
:10A5F000DBE0FEF7A6FC002801D10020D5E0002317
:10A6000003AA15A90020FEF7DAFC060076B2012E97
:10A6100002D0A748F7F71AFB002312AA18A97FF067
:10A620001F00FEF7CCFC060076B2012E02D0A14836
:10A63000F7F70CFB18AA15A900A8FFF7D7FE06002C
:10A6400076B2012E02D09C48F7F700FB5FF00009BC
:10A6500018E05FFA89F918EB49025FFA89F90CA84A
:10A6600010EBC903D3E900018000A2F858005FFA9B
:10A6700089F918EB4900B0F958109048F7F7E6FA55
:10A6800019F101095FFA89F9B9F1030FE1D32770D4
:10A69000BDF800006070BDF900000012A070BDF8A8
:10A6A0000200E070BDF9020000122071BDF8040044
:10A6B0006071BDF904000012A071E6710298207269
:10A6C00002980012607202980014A072029800169C
:10A6D000E072DDE90C012073DDE90C0100B200122B
:10A6E0006073DDE90C010014A073DDE90C010016B4
:10A6F000E073DDE90E012074DDE90E0100B2001205
:10A700006074DDE90E010014A074DDE90E0100168D
:10A71000E074DDE910012075DDE9100100B20012DE
:10A720006075DDE910010014A075DDE91001001667
:10A73000E075DDE906012076DDE9060100B20012D0
:10A740006076DDE906010014A076DDE90601001659
:10A75000E076DDE908012077DDE9080100B20012AA
:10A760006077DDE908010014A077DDE90801001633
:10A77000E077DDE90A0184F82000DDE90A0100B292
:10A78000001284F82100DDE90A01001484F8220097
:10A79000DDE90A01001684F82300FEF755FA0028C7
:10A7A00001D1002001E02800C0B21DB0BDE8F08357
:10A7B00030B583B004000020ADF8040000203B4910
:10A7C0004D68697A002907D1286E40688047F7F7FD
:10A7D000C2F90A21F7F78EFB0220009001AB41225B
:10A7E000D0210120F7F7C9FA002801D1002017E095
:10A7F0009DF805009DF8041050EA0120032110FB8C
:10A8000001F04FF47A7190FBF1F0153020700020C8
:10A810006070687A002802D1286E80688047012025
:10A820003EBD80B50178002905D1FFF798FE0028CC
:10A830000AD1002009E00178012905D1FFF7B8FF0E
:10A84000002801D1002000E0012002BD80B5C0B287
:10A85000062806D10800FFF7ABFF002801D1002031
:10A8600000E0012002BD80B515490120FAF744F847
:10A8700001BD000007AB0020D8AB002024AC0208CB
:10A880002CAC020834AC02082D211FF46C56C53FD5
:10A890009096020830FD130044AC020879E2D10022
:10A8A0004CAC02083CAC020854AC0208000000208A
:10A8B0005CAC020864AC02086CAC0208C4AB0208D1
:10A8C000D4AA0208DFF8D004704730B583B0002066
:10A8D000ADF806008DF804000120009001AB0022C5
:10A8E00018210220F7F749FA04469DF80400482889
:10A8F0001FD131208DF806000DF10605012068708A
:10A9000002230DF1060218211846F7F7F4F9002882
:10A910000DD031208DF806000020687002230DF163
:10A92000060218211846F7F7E6F9002802D10020A0
:10A930003EBD002418220021DFF85C04F7F7E6FF93
:10A9400020463EBD70B582B00020ADF8000007F093
:10A9500002FD0446DFF84454687801281CD03220F8
:10A960008DF8000000AE01207070022300AA1821AB
:10A970001846F7F7C0F900280CD031208DF80000F8
:10A9800001207070022300AA18211846F7F7B3F9C6
:10A99000002803D1002076BD01202870281D6169A0
:10A9A0008847012076BD38B50020ADF8000007F0DB
:10A9B000D2FC0446DFF8E4532878012812D0312075
:10A9C0008DF8000000208DF80100022300AA182154
:10A9D0001846F7F790F9002801D1002032BD002079
:10A9E000687001E000202870281D21698847012037
:10A9F00032BD80B50020ADF8000031208DF8000098
:10AA000000208DF80100022300AA18211846F7F74C
:10AA100072F9401E8041C043C00F02BD7CB50446A0
:10AA20000020ADF806008DF804000120009001AB75
:10AA3000002218210220F7F7A0F905469DF804002E
:10AA4000482829D131208DF806000DF106061F2077
:10AA5000707002230DF1060218211846F7F74BF922
:10AA6000002817D0032000902346602218210220DE
:10AA7000F7F783F900280DD031208DF8060000206B
:10AA8000707002230DF1060218211846F7F733F90A
:10AA9000002802D1002076BD0025284676BD002181
:10AAA000BF4A02E00B5C8B54491C1B29FADBBD48F2
:10AAB000C0F8D423012070472DE9F04387B0044645
:10AAC0000D4616461F464FF000084046ADF80400FC
:10AAD00002A841460A460B460EC04FF0050906C0C3
:10AAE0000120009002AB102218210220F7F745F94F
:10AAF0009DF80810C9070ED501280CD10820009038
:10AB00000DF10903112218210220F7F736F9002868
:10AB100007D140467AE04846A0F1010980B20028FA
:10AB2000DED1A1489DF80810017002A90A7A42708E
:10AB3000CA7982704A78C2708A780271CA78427182
:10AB40000A7982714A79C271897901720AE002A890
:10AB500000EB48008178407810EB012024F81800C1
:10AB600008F10108B8F1090FF1DB9048D0F80C802A
:10AB700008F10C0999F815202146D9F80C00D8F8ED
:10AB80000C30C018F8F79DFA404602F0C7F899F863
:10AB90001520D9F80C00D8F80C1041182046F8F709
:10ABA00090FADFF8008205AA2146404607F030FE01
:10ABB00098F9F4023860B8F8EE00288008F2EE0048
:10ABC000418869808188A98081892180C1896180CB
:10ABD000008AA08020882988401A3080608869888F
:10ABE000401A7080A088A988401AB08031208DF862
:10ABF000040001208DF80500022301AA182118463F
:10AC0000F7F779F8401E8041C043C00F07B0BDE898
:10AC1000F08330B585B004460020ADF8040002A8EA
:10AC200000210A460B460EC005250120009002AB0C
:10AC3000102218210220F7F7A0F89DF80810C90784
:10AC40000ED501280CD1082000900DF10903112226
:10AC500018210220F7F791F8002806D1002028E0FB
:10AC60002846451E80B20028DFD14F489DF80810C5
:10AC7000017002A90A7A4270487820708878607062
:10AC8000C878A0700879E070487920719DF80E00AE
:10AC9000607131208DF8040001208DF80500022339
:10ACA00001AA18211846F7F726F8401E8041C04334
:10ACB000C00F05B030BD2DE9F04104460025F7F77F
:10ACC000B3FA0746FFF7FEFD06463848D0F8108075
:10ACD000B7F85C0040070BD406F1140306F10C0230
:10ACE000B11D3046FFF7E8FE002801D1284651E0AB
:10ACF00098F80A00012848D12B4801782170417842
:10AD00006170C178A1700179E17041792171817917
:10AD10006171C179A171007AE0712248818D21723F
:10AD2000B0F92C100912617200F12C014A88A2724C
:10AD3000B1F902201212E2728A882273B1F904106A
:10AD400009126173B0F8F410A173B0F9F41009128C
:10AD5000E173F43041882174B0F902100912617472
:10AD60008188A174B0F904000012E07428462075AF
:10AD70000FE006EB4500C18804F8151004EB45010F
:10AD8000B0F90600001248706D1C032DF1DB7069EC
:10AD9000A0710120BDE8F0817CA8002020A900203E
:10ADA00044A800202060002048AA002000000020C5
:10ADB000F8B504460025F7F737FA0746FFF782FD96
:10ADC0000646B7F85C00000705D52046FFF721FFCF
:10ADD000002821D109E006F1140306F10C02B11D8F
:10ADE0003046FFF769FE002814D12846F2BD36F838
:10ADF000150004F8150004EB450036F9151009128A
:10AE0000417006EB45018A898271B1F90C10091273
:10AE1000C1716D1C032DEADB0120F2BD7CB5044637
:10AE20000020ADF806008DF80400F6F794FE054604
:10AE30000120009001AB002218210220F6F79DFFAF
:10AE40009DF80410482932D131208DF806000DF10B
:10AE500006061F20707002230DF106021821184605
:10AE6000F6F749FF00281BD031208DF8060000209E
:10AE7000707002230DF1060218211846F6F73BFF09
:10AE800000280DD001212846F7F734F80120009062
:10AE900001AB312218210220F6F76FFF002801D103
:10AEA000002076BD9DF804002070012076BDFF21B2
:10AEB000217076BD2DE9F0478AB0044604A8002130
:10AEC0000A460B460EC00846ADF80C0007A806C09F
:10AED0004FF00509F6F73FFE05460220009004AB4F
:10AEE00000221821F6F749FF06469DF81000482871
:10AEF00040F01D819DF81000207004AF78786070DC
:10AF000031208DF80C000DF10C081F2088F801008D
:10AF1000022303AA18211846F6F7EDFE002800F0D8
:10AF200007810320009004AB602218210220F6F76D
:10AF300024FF002800F0FC809DF81000A0707878B5
:10AF4000E070B878207131208DF80C00002088F86E
:10AF50000100022303AA18211846F6F7CCFE0028A8
:10AF600000F0E6800120009004AB3122182102207D
:10AF7000F6F703FF002800F0DB809DF810006075F5
:10AF800031208DF80C00012088F80100022303AA6B
:10AF900018211846F6F7AFFE002800F0C9801E21E0
:10AFA0002846F6F7A7FF0120009004AB10221821D5
:10AFB0000220F6F7E2FE06469DF81000C0070DD508
:10AFC000012E0BD1082000900DF111031122182140
:10AFD0000220F6F7D2FE002806D16AE04846A0F12A
:10AFE000010980B20028DED1B87902907879019009
:10AFF00038790090FB78BA7879780FF29010F6F7EC
:10B0000025FEB878797811EB0020ADF81C000DF121
:10B010001C0A3879F97811EB0020AAF80200B879F7
:10B02000797911EB0020AAF80400BDF91C00001288
:10B030006071BDF81C00A071BAF902000112E17143
:10B040002072BAF9040001126172A0729DF810001A
:10B05000E072387A207331208DF80C00102088F8C7
:10B060000100022303AA18211846F6F744FE00281F
:10B070005ED01E212846F6F73DFF4FF0050901205E
:10B08000009004AB102218210220F6F776FE064647
:10B090009DF81000C0070ED5012E0CD1082000909D
:10B0A0000DF11103112218210220F6F766FE002887
:10B0B00007D100203DE04846A0F1010980B20028F8
:10B0C000DDD1B87902907879019038790090FB78D9
:10B0D000BA7879780FF2D000F6F7B8FDB8787978B9
:10B0E00011EB0020ADF81C003879F97811EB002045
:10B0F000AAF80200B879797911EB0020AAF80400C7
:10B10000BDF91C0000126073BDF81C00A073BAF9F1
:10B1100002000112E1732074BAF904000112617493
:10B12000A0749DF81000E074387A207500E00026C5
:10B1300030460AB0BDE8F08718B404460B46114605
:10B140000020032C04D0042C05D0072C06D008E0E6
:10B15000184614BC62E4184612BC5FE6184612BCDE
:10B160009DE412BC704710B50FF25804214602202E
:10B17000F9F7C2FB0FF270010420F9F7BDFB21467D
:10B180000320BDE81040F9F7B7BB0000474D53312D
:10B190002D25642C2025642C2025642C2025642C4E
:10B1A0002025642C20256400474D53322D25642C26
:10B1B0002025642C2025642C2025642C2025642C3B
:10B1C00020256400CBA8000845A90008A7A900080D
:10B1D000F3A9000800000000B1AD00080000000065
:10B1E000B5AE000839B10008CBA8000845A9000891
:10B1F000A7A90008F3A9000800000000B7AC0008E8
:10B2000000000000B5AE000839B100087CB500248C
:10B210002046ADF80400F6F79EFC054620208DF888
:10B22000040001AE20467070022301AABA21052055
:10B23000F6F761FD002801D1204676BD01212846A0
:10B24000F6F758FE641C0120009001AB2122BA21C0
:10B250000520F6F792FD002801D1002076BD40F2CE
:10B26000F510A4B2844205D30FF21020F6F7EEFCDD
:10B27000002076BD9DF804000006DFD420208DF864
:10B28000040002207070034601AABA210520F6F7D7
:10B2900032FD401E8041C043C00F76BD1CB5044640
:10B2A0000020ADF804000120009001AB0F22BA216C
:10B2B0000520F6F762FD002801D1002016BD9DF89B
:10B2C0000400BD2833D100F034F8002801D100205B
:10B2D00016BD032001E0401E40B2002807D40FF243
:10B2E000B41151F830108C4201D20028F3D1202043
:10B2F0008DF8040001AC94206070022301AABA21E9
:10B300000520F6F7F8FC002801D1002016BD10201A
:10B310008DF804007F206070022301AABA21052065
:10B32000F6F7E9FC401E8041C043C00F16BD002067
:10B3300016BD80B50020ADF8000020208DF800007B
:10B3400000208DF80100022300AABA210520F6F79B
:10B35000D2FC002805D10FF22C10F6F777FC002064
:10B3600002BD012002BD80B58F20FFF797FF401E70
:10B370008041C043C00F02BD80B5FFF747FF0028E2
:10B3800005D10FF20810F6F761FC002002BD012084
:10B3900002BD80B5FFF7E7FF401E8041C043C00FEC
:10B3A00002BD80B5FFF7C5FF401E8041C043C00FFE
:10B3B00002BD01207047012070471FB5044601A857
:10B3C00000210A460B460EC00120009001AB0F225F
:10B3D000BA210520F6F7D1FC002821D09DF8040001
:10B3E000BD281DD10520009001ABA822BA21F6F797
:10B3F000C4FC002801D1002013E09DF80400207057
:10B4000001A8417861708178A1700021E170C17854
:10B41000217100796071E01C00F006F8012000E065
:10B42000002004B010BD00004178007840EA0120FF
:10B430004FF4F07190FBF1F000EE100AB8EEC00A84
:10B44000DFED070A30EE200ABDEEC00A10EE100A4A
:10B4500080B204490870000A48700120704700005B
:10B4600000002A42D4AB0020012070470120704721
:10B470000FF240010520F9F73FBA000042522D5269
:10B480004600000042522D434600000042522D501B
:10B49000460000002800000070000000500000007E
:10B4A000600000008F00000050000000E803000072
:10B4B0001000000079B3000893B30008A3B300089C
:10B4C000B3B30008B7B30008BBB300080000000026
:10B4D00069B400086DB4000892484368DBB200F11B
:10B4E0000A02E0210820F6F706BC8E484368DBB26A
:10B4F00000F10C02E0210820F6F7FDBBF0B48A4B06
:10B500005C78002500E06D1CEDB28D420ED22E5C01
:10B510007440082602E03C46E4B2761EF3D0670091
:10B520002406F8D51C787C40E4B2F6E7944201D1B9
:10B53000012000E00020F0BC7047CDE7FEB50446D6
:10B54000052600200090062301AAE0210820F6F736
:10B550005BFC0546012D03D00FF2F010F6F776FBE9
:10B56000012DEED13046461E80B20028E9D001AE52
:10B57000B278022101A8FFF7C1FF002807D0727935
:10B5800002210DF10700FFF7B9FF002805D10FF2E6
:10B59000B410F6F75BFB0020FEBD644871789DF89F
:10B5A000042041EA022141F217125143604A02EBA2
:10B5B000A13141800188491C01804268B0F9023004
:10B5C000D218426083683779F67847EA062640F653
:10B5D000C4177E43B61303FA86F68660554B1B6A82
:10B5E0005F7F002F19D009B292FBF1F2428096FBE7
:10B5F000F1F1002242608260028042882270B0F93C
:10B60000020000126070A17009B20812E070B3F974
:10B610005600012803DB012002E00020FEBD0020CF
:10B6200020712046FAF7A5FB2846FEBD3F48B0F939
:10B630000200704730B583B03A4C6368DBB204F166
:10B640000E02E0210820F6F756FB002000900323AD
:10B6500001AAE0210820F6F7D7FB0546012D05D009
:10B660000FF2F000F6F7F2FA28463EBD01ADAA78D7
:10B67000022101A8FFF742FF002801D100203EBDB2
:10B680006878617808402178884201D101203EBD68
:10B6900000203EBD2548002141608160018024E7F3
:10B6A0000120704730B583B0044600202070062585
:10B6B0001C484368DBB200F10E02E0210820F6F7D7
:10B6C0001AFB00200090032301AAE0210820F6F7CE
:10B6D0009BFB01280ED02846451E012808DBF6F703
:10B6E0003AFA1E21F6F706FC2846451E0128DFDA45
:10B6F00000203EBD9DF80620022101A8FFF7FEFEB6
:10B70000002808D1F6F727FA1E21F6F7F3FB04A06C
:10B71000F6F79CFAE8E7012020703EBD000000002B
:10B7200043524300E437002044380020F0AA0020B0
:10B730006CEEFFFF000000200FF220010820F9F757
:10B74000DBB8000054482D524632000054482D52B8
:10B750004631000054482D504631000035B60008EF
:10B7600095B60008A1B60008000000003BB500082F
:10B770003DB5000800000000A5B60008000000006C
:10B7800010B50024F6F7E7F90069C00700D50124D9
:10B79000204610BD00B58BB00020ADF82A000A206D
:10B7A0008DF8080000208DF809008DF80A008DF84A
:10B7B00000001F20019000A8FBF75AFA01200BB0EF
:10B7C00000BD00B58BB00020ADF82A000A208DF82E
:10B7D000080000208DF809008DF80A0001208DF87E
:10B7E00000001F20019000A8FBF742FA01200BB0D7
:10B7F00000BD00B58BB00020ADF82A000A208DF8FE
:10B80000080000208DF809008DF80A0001208DF84D
:10B8100000001F20019000A8FBF72AFA01200BB0BE
:10B8200000BD0120704710B50024F6F794F90069B7
:10B83000C00700D50124204610BD00B58BB0002004
:10B84000ADF82A000A208DF8080000208DF80900C4
:10B850008DF80A008DF800002020019000A8FBF769
:10B8600007FA01200BB000BD00B58BB00020ADF889
:10B870002A000A208DF8080000208DF809008DF8B4
:10B880000A0001208DF800002020019000A8FBF79D
:10B89000EFF901200BB000BD00B58BB00020ADF872
:10B8A0002A000A208DF8080000208DF809008DF884
:10B8B0000A0001208DF800002020019000A8FBF76D
:10B8C000D7F901200BB000BD0120704710B500244E
:10B8D000F6F741F90069800700D50124204610BD24
:10B8E00000B58BB00020ADF82A000A208DF80800C2
:10B8F00000208DF809008DF80A008DF80000212045
:10B90000019000A8FBF7B4F901200BB000BD00B511
:10B910008BB00020ADF82A000A208DF80800002026
:10B920008DF809008DF80A0001208DF80000212013
:10B93000019000A8FBF79CF901200BB000BD00B5F9
:10B940008BB00020ADF82A000A208DF808000020F6
:10B950008DF809008DF80A0001208DF800002120E3
:10B96000019000A8FBF784F901200BB000BD012075
:10B97000704710B50024F6F7EEF8006900F00300F8
:10B98000032800D10124204610BD00B58BB0F6F786
:10B99000E2F8B048017841F0020101700020ADF8F2
:10B9A0002A000A208DF8080001208DF809008DF882
:10B9B0000A1000208DF800002220019000A8FBF75B
:10B9C00057F901200BB000BD00B58BB0F6F7C3F8F6
:10B9D000A048017811F0FD01017013D10020ADF8ED
:10B9E0002A000A208DF8080001208DF809000020A7
:10B9F0008DF80A0001208DF800002220019000A897
:10BA0000FBF736F901200BB000BD01207047012083
:10BA1000704710B50024F6F79EF8006900F00700A3
:10BA2000072800D10124204610BD00B58BB0F6F7E1
:10BA300092F88848017841F0010101700020ADF8CA
:10BA40002A000A208DF8080000208DF809008DF8E2
:10BA50000A108DF800002220019000A8FBF708F9D9
:10BA600001200BB000BD00B58BB0F6F774F8794833
:10BA7000017811F0FE01017012D10020ADF82A000A
:10BA80000A208DF8080000208DF809008DF80A00C2
:10BA900001208DF800002220019000A8FBF7E8F8B3
:10BAA00001200BB000BD012070470120704710B588
:10BAB0000024F6F750F80069C00700D5012420469D
:10BAC00010BD00B58BB00020ADF82A000A208DF81B
:10BAD000080000208DF809008DF80A008DF800009C
:10BAE0002320019000A8FBF7C3F801200BB000BD94
:10BAF00000B58BB00020ADF82A000A208DF80800B0
:10BB000000208DF809008DF80A0001208DF8000052
:10BB10002320019000A8FBF7ABF801200BB000BD7B
:10BB200000B58BB00020ADF82A000A208DF808007F
:10BB300000208DF809008DF80A0001208DF8000022
:10BB40002320019000A8FBF793F801200BB000BD63
:10BB50000120704770B58CB006460D46FAF7A8FF75
:10BB60000446002000900422314600A8F7F7A9FA05
:10BB7000009A29460FF29010F6F768F828460C381C
:10BB800005283AD8DFE800F0030D121717090098CE
:10BB9000C4F8DC0401200CB070BD0098C4F87C052A
:10BBA000F8E704F2DC4042218162F3E704F2DC4072
:10BBB00000990165EEE727480078002812D000219F
:10BBC000ADF82E100A218DF80C1000218DF80D1003
:10BBD0008DF80E0001208DF804002220029001A8AB
:10BBE000FBF746F80099284640B200F00CF80090A8
:10BBF00004F2DC4000998167CCE70FF21C10F6F7E5
:10BC000025F80020C7E710B4134AD36B126C114C0F
:10BC10002478002C1AD00F2802D010280BD015E061
:10BC2000507A002812D0906B806800280ED4884289
:10BC30000DDD08460BE0587A002807D0986B806825
:10BC4000002803D4884202DD084600E0084610BC04
:10BC500070470000DCAB00200000002012B58BB064
:10BC600001460C39052928D8DFE801F0031D1F2102
:10BC7000211B1F240020ADF82A0001900A208DF816
:10BC8000080005208DF80000019404220BA90DF195
:10BC90000900F7F716FA00A8FAF7EAFF01200CB03E
:10BCA00010BD2324E6E72024E4E72124E2E7222450
:10BCB0000B99FFF7A8FF0B90DCE70FF26400F5F794
:10BCC000C5FF0020EBE780B50FF25C010C20F8F710
:10BCD00013FE0FF278011120F8F70EFE0FF290011B
:10BCE0000D20F8F709FE0FF2AC010E20F8F704FE64
:10BCF0000FF2C4010F20F8F7FFFD0FF2E001102052
:10BD0000BDE80440F8F7F8BD4D52322044523D25BD
:10BD1000642C2564000000004D523220534446003C
:10BD20004D5232205243460081B7000895B70008B3
:10BD3000C3B70008F3B700080000000023B80008EC
:10BD400055BB00080000000000000000AFBA00086A
:10BD5000C3BA0008F1BA000821BB000800000000C7
:10BD600051BB000855BB00080000000000000000A7
:10BD700027B800083BB8000869B8000899B800085F
:10BD800000000000C9B8000855BB00080000000012
:10BD900000000000CDB80008E1B800080FB90008A5
:10BDA0003FB90008000000006FB9000855BB00084B
:10BDB000000000000000000073B900088BB9000803
:10BDC000C9B900080BBA0008000000000FBA00084B
:10BDD00055BB0008000000000000000013BA000876
:10BDE0002BBA000867BA0008A7BA000800000000D4
:10BDF000ABBA000855BB00080000000000000000BE
:10BE000001207047012070470120704738B5044673
:10BE10000D46F5F7A0FE0521F6F76CF80020104955
:10BE200004E00A680255521C0A60401CA842F8DB74
:10BE3000012032BD01207047012070470948026887
:10BE40000A704A70511C01600120704706490A6857
:10BE500002704270501C0860012070470000000012
:10BE60003C38002078AB00207CAB002010B50FF2EE
:10BE7000180421461220F8F73FFD21461320BDE8A3
:10BE80001040F8F739BD000001BE000805BE0008EB
:10BE900009BE000809BE000839BE00080DBE000832
:10BEA00035BE00084DBE00083DBE000800B500BF0D
:10BEB000130096469446103928BFA0E80C50FAD8D3
:10BEC0005FEA417C28BF0CC048BF40F8042BC9077B
:10BED00028BF20F8022B48BF00F8012B00BD00004E
:10BEE0002DE9F04FA1B0804617461D46029102AEE3
:10BEF0000020706211AC6FF000490AE017F8011BD6
:10BF00000298C0470290002800F06A82706A401CC4
:10BF10007062387808B9706A64E22528EED1002092
:10BF2000F06030617061B061F061306201E040F05A
:10BF3000010017F8011F2029F9D023290DD02B2942
:10BF400004D02D2906D030290AD00CE040F00200A0
:10BF500080B2EEE740F00400FAE740F00800F7E7AF
:10BF600040F01000F4E72A290DD129680A1D2A6043
:10BF70000968F162002904D54942F16240F00400E9
:10BF800080B27F1C12E00021F16209E0F16A4945AC
:10BF900005D001EB810302EB43013039F1627F1CD4
:10BFA0003A78A2F13001C9B20A29EFD339782E29A3
:10BFB00003D04FF0FF31B1621DE017F8011F2A29AD
:10BFC00006D129680A1D2A600968B1627F1C12E047
:10BFD0000021B16209E0B16A494505D001EB810356
:10BFE00002EB43013039B1627F1C3A78A2F1300193
:10BFF000C9B20A29EFD3308639780FF6983006F0A7
:10C000009DFE08B117F8010B8DF83A009DF83A0033
:10C01000682804D1387868280AD1622005E06C28A5
:10C0200004BF38786C2803D171208DF83A007F1C4A
:10C0300011A8B0603978B1F1250023D01C3871D037
:10C04000001F02286ED9133800F09680093869D095
:10C05000801E00F02781401E00F0D180401E022883
:10C0600060D9001F00F0CB80401F30D0401E00F090
:10C070008380401E20D0C01E09D0801E7CD0C01EF0
:10C080007AD017E1F068411CF16025211BE1286896
:10C09000011D296000687060B26A002A02D5F8F7B5
:10C0A00087FE07E0002106F055FE00281ABF7168E0
:10C0B000401AB06A306107E12868011D29600068F4
:10C0C0000021CDE9000111A870607821E6E09DF81B
:10C0D0003A00622818D0682806D06A280BD06C284D
:10C0E00019D0712807D016E02868011D2960716AEF
:10C0F00000680180E8E02A68101D2860706AC11796
:10C100001268C2E90001DFE02868011D2960716A38
:10C1100000680170D8E02868011D2960716A006814
:10C120000160D1E02868C01D20F00700286000F100
:10C1300008022A60D0E90023CDE90023002B04D5B2
:10C14000F068421CF2602D220DE0308E820704D58B
:10C15000F068421CF2602B2205E0C00704D5F068AD
:10C16000421CF26020220255F06811AA801870600B
:10C1700000A800F0C5F9A7E09DF83A006C2808BFB8
:10C180002A6811D0712808BF2A6802D06A282A6854
:10C190000AD1D21D22F007022A6094460CF108024F
:10C1A0002A60DCE9002303E0131D2B6012680023E2
:10C1B000CDE90023682808BF92B207D0622808BFE3
:10C1C000D2B203D0742818BF7A2802D10023CDE957
:10C1D000002396F8300000075CD5DDE90023002B32
:10C1E00008BF002A56D041F02000782852D1F068CC
:10C1F00030220255401C421CF26001554AE09DF875
:10C200003A0062280CD0682810D06A281AD06C280E
:10C2100023D0712816D074281FD07A280CD01CE0A7
:10C220002868021D2A6090F900201AE02868021D83
:10C230002A60B0F9002014E02868021D2A60026814
:10C2400000230FE02868C01D20F00700286000F1DF
:10C2500008022A60D0E9002304E02868021D2A6051
:10C260000268D317CDE90023002B04DAF068421CE2
:10C27000F2602D220DE0308E820704D5F068421C5A
:10C28000F2602B2205E0C00704D5F068421CF26082
:10C2900020220255F06811AA8018706000A800F0F2
:10C2A000A4F811E0F068411CF16029680A1D2A60B9
:10C2B000096808E0F068421CF2602522025519B1B5
:10C2C000F068421CF26001557F1CF06AF168401A68
:10C2D000B169401A3169401AF169401A7169401A0E
:10C2E000316AA0EB010A96F83000400711D42020F3
:10C2F0008DF84000BAF1010F0BDBD346012310AAE1
:10C3000000A9404600F02FFC002869D1BBF1010BC9
:10C31000F4D1F36811AA00A9404600F024FC0028DB
:10C320005ED130208DF84000D6F818B0BBF1010F77
:10C330000ADB012310AA00A9404600F014FC0028E3
:10C340004ED1BBF1010BF4D13369726800A94046AC
:10C3500000F009FC002843D130208DF84000D6F8C9
:10C360001CB0BBF1010F09DB012310AA00A9404654
:10C3700000F0F9FBA0BBBBF1010BF5D1736930698B
:10C380007168421800A9404600F0EDFB40BB302028
:10C390008DF84000D6F820B0BBF1010F09DB012376
:10C3A00010AA00A9404600F0DEFBC8B9BBF1010BA2
:10C3B000F5D196F8300040077FF5ABAD20208DF821
:10C3C0004000BAF1010FFFF6A4AD012310AA00A9A5
:10C3D000404600F0C8FB18B9BAF1010AF5D198E55A
:10C3E0004FF0FF3021B0BDE8F08F2DE9FA4782B061
:10C3F000064635696F2908BF082705D041F020009F
:10C40000782814BF0A2710273C24D6E9000180466B
:10C4100089469DF80820642A18BF692A05D1002999
:10C4200003DAD8F1000869EB4909B9F1000F08BF38
:10C43000B8F1000F0CD1306B50B9082F3BD196F8F2
:10C440003800000737D53B24302085F83B0032E028
:10C45000A4F1010A5446FB17404649463A46FCF708
:10C46000ABF9CDE90089B846A8FB0023DDE90089D6
:10C47000A8EB02023032D2B23A2A03D39DF8083038
:10C48000513B9A180AF8052080465FEA010908BF67
:10C49000B8F1000F03D0F06861198842D8D3082F93
:10C4A00009D196F83800000705D5605D302802D024
:10C4B000641E30206055C4F13C00B0616119F16028
:10C4C000316B884207DA081A3062308F4FF6EF710D
:10C4D0000840308710E000290ED596F8381001F09A
:10C4E0001401102908D1716B7269891A326A891A8C
:10C4F000081A0128A8BF306204B0BDE8F087000028
:10C500002DE9F24F8EB0044604AED4E90001CDE926
:10C5100002019DF8380040F020008DF800006128ED
:10C520000BD0206B002848BF062005D404BF9DF81F
:10C530000000672801D1012020636168C1F30A501F
:10C5400040F2FF7398421ED1080304BF2068002800
:10C550000AD10320A0619DF838006138C0B21A28C2
:10C5600038D30FF2446109E00320A0619DF8380040
:10C570006138C0B21A282AD30FF224610322E0687E
:10C58000F6F764FDB9E1012817DA204606F00EFC43
:10C59000012812DB002700209DF80010612920D11E
:10C5A000E168302201F8012B4A1CE2609DF8382036
:10C5B000612A0CBF782258220FE040F2FE316268F7
:10C5C00061F31E526260471A4FF0FF30E4E70FF24A
:10C5D000CC51D3E70FF2CC51D0E70A706169891CC6
:10C5E000616110B9002500277EE19DF800006128F7
:10C5F00040F09780206B00284CBF2125451C2DB2B0
:10C600006E1CD4E90089DDE902010022002306F056
:10C61000EFFB3ABF89F00040CDE90280CDE9028905
:10C620003F1F8DF810200DF11108012E35DBDDE9DB
:10C6300002010022002306F0F3FB2ED21C2102A8E7
:10C6400006F006FCDDE9020105F054FE8146F61F06
:10C65000012E09DBFAF734FC02460B46DDE9020144
:10C6600006F080FCCDE9020108F20700072105E091
:10C6700009F00F0200F8012D4FEA2919B9F1010F55
:10C6800001DB491EF4D5491E5CBF002200F8012DD4
:10C69000F9D500F20708012EC9DA0DF11100A8EB57
:10C6A00000010DF11106A942B8BF0D462DB2002DB3
:10C6B00030D42846884206DA04A941184978082966
:10C6C00028BF0F2100D2002104AA821800E06D1EAD
:10C6D000401E12F801398B42F9D00F2904D104A968
:10C6E00041184A78521C4A70002802D504AE6D1CCD
:10C6F0003F1D2DB2681E0DD481190A783032D2B296
:10C700003A2A03D39DF838303A3B9A1801F80129A8
:10C71000401EF2D5206B002840F1E680681E2063A1
:10C72000E2E0DDE902010022002306F061FB3CBFEC
:10C7300081F00041CDE902013FB247F297507843C2
:10C74000474990FBF1F73FB2C7F107069246DFF881
:10C7500014B1012E19DBDDE90289F00707D5524635
:10C760005B464046494605F0F3FC80468946761014
:10C770005046594652465B4605F0EAFC82468B46D7
:10C78000002EEAD1CDE9028921E076429046DFF819
:10C79000D89012E0F00707D552465B46404649461E
:10C7A00005F0D6FC804689467610504659465246DA
:10C7B0005B4605F0CDFC82468B46002EEAD1DDE9D2
:10C7C000020142464B46FAF793FBCDE902019DF880
:10C7D000000066280CBF07F10A000620216B4518EF
:10C7E000142DA8BF132530208DF810000DF111066F
:10C7F000DFF87890012D3BDBDDE9020105F090FDCB
:10C8000006F1080104220A26B0FBF6F303EB830EBF
:10C81000A0EB4E00303001F8010DB3FBF6F000EB59
:10C820008006A3EB4603303301F8013D521EEAD1E6
:10C8300001F10806083D012DDCDBDDE9020105F010
:10C840006FFDFAF747FB02460B46DDE9020106F0F1
:10C8500089FB00224B4605F07BFCCDE90201CBE7CA
:10C86000A0860100000024400000F03F84D79741DB
:10C870000DF11100301A0DF1110602E0401E7F1E6D
:10C88000761C31783029F9D09DF80010662902D144
:10C890003FB2791C03E065290CBF01210021226B06
:10C8A0008D182DB2A842B8BF05462DB2002D1BD45D
:10C8B0002946814204DA885D352828BF392000D214
:10C8C00030208A19521E00E06D1E491E12F80139EF
:10C8D0008342F9D0392802D1885D401C885500294F
:10C8E00002D5761E6D1C7F1C3FB200972BB23246DC
:10C8F0009DF83810204600F003F80FB0BDE8F08F27
:10C900002DE9F04385B00546894617461E46D5F801
:10C910003080012E02DA01260FF2902749F0200024
:10C92000BDF93040662808BF641C18D0672840F065
:10C9300082806FF003008442C0F28380444580F21D
:10C940008080641C95F83800000702D44645B8BFC3
:10C95000B04624B2B8EB040848BF4FF00008E868BE
:10C96000A96924B2012C25DA4A1C30230B54B8F1F2
:10C97000010F03DA95F83810090702D52E2111545A
:10C98000521CAA6118EB040FB8BFC8F1000424B20E
:10C9900061426962A044B045B8BF464636B2EE6116
:10C9A00032463946AB691818F6F750FBA8EB06007B
:10C9B000A862C1E00818A64218DA32463946F6F7EE
:10C9C00045FBA9697118A961A01B6862B8F1010F44
:10C9D00003DA95F83800000705D5E8682E220A54D6
:10C9E000E869401CE861C5F82880A5E02246394680
:10C9F000F6F72CFBA8692018361BB8F1010F03DAF3
:10CA000095F83810090703D5E9682E224254401CD6
:10CA1000A86136B2B045B8BF464636B23246E119D3
:10CA2000EB68C018F6F712FBA8693018A861A8EBEC
:10CA30000600686280E0B9F1610F16D14FF070090D
:10CA400018E0464504DA95F83810090758BFB04693
:10CA5000B8F1010848BF4FF00008B9F1670F14BFE3
:10CA60004FF045094FF0650904E0B9F1410F08BFE7
:10CA70004FF05009A9694A1CE86817F8013B0B54AC
:10CA8000B8F1010F05DA95F83810090758BFAA6107
:10CA900017D52E211154531CAB61B8F1010F10DBD7
:10CAA000761E36B2B045B8BF464636B23246394633
:10CAB0001818F6F7CBFAA8693018A861A8EB060099
:10CAC0006862A869E968471807F8019B002C03D43D
:10CAD0002B2007F8010B03E02D2007F8010B64421F
:10CAE00000260DF1080809E00A22214600A806F0F8
:10CAF000F9FA019808F8010B009C761C24B2012C6D
:10CB0000F2DA022E06DA49F02000652804BF302050
:10CB100007F8010B4EB9302007F8010B07E0761E2D
:10CB200002A8305C303007F8010B012EF7DAA86953
:10CB3000E9684018381AE86195F8380000F01400E8
:10CB400010280DD16869A9690818696A0818E96987
:10CB50000818A96A0818696B8842BCBF081A2862BD
:10CB600005B0BDE8F083F8B504460D4616461F46ED
:10CB7000002077B116F8011BA868A047A86030B163
:10CB8000E86A401CE86200207F1EF3D1F2BD4FF03E
:10CB9000FF30F2BD686A6C747A4C00006E616E0002
:10CBA0004E414E00696E6600494E4600300000005E
:10CBB00010B5EFF3108072B60A4C216841F47F0182
:10CBC000216080F31088A06E10F4700F04BFA720BE
:10CBD00006F090FA4FF00070C4F81C020020C4F870
:10CBE000140210BD20ED00E080B5F5F71DFBDFF865
:10CBF00024180860012002BD10B5F7F748FB024673
:10CC0000C317DFF81448D4E90001101A00210129E4
:10CC100005DB01DC002802D3C4E90023084610BD6F
:10CC2000F0B583B0044600A800210A4606C0A069FA
:10CC3000E16845182888ADF80000B5F9027000A831
:10CC40004780B5F904608680BDF80000B4F858103C
:10CC5000401A2880B4F85A00381A6880B4F85C008A
:10CC6000301AA880BDF90000B5F90010C913B1EB66
:10CC7000E03F13D0B4F95810C913B1EBE03F0DD029
:10CC80000FF2A870F4F7E2FFB5F90000012802DB0B
:10CC9000DFF8880701E047F6FF702880B5F9021039
:10CCA000C913B1EBE73F13D0B4F95A10C913B1EB74
:10CCB000E73F0DD00FF28070F4F7C8FFB5F902001E
:10CCC000012802DBDFF8540701E047F6FF706880B7
:10CCD000B5F90410C913B1EBE63F13D0B4F95C10F9
:10CCE000C913B1EBE63F0DD00FF25870F4F7AEFF69
:10CCF000B5F90400012802DBDFF8200701E047F660
:10CD0000FF70A88094F90800002804D1002000E0FA
:10CD1000401C0328FCDBF7BD0000000070B584B0A8
:10CD2000044600A800210A460B460EC0A069E1682F
:10CD30004518164694F90800012802D12046FFF74D
:10CD40006FFF94F908000146012902D9C91E40F07D
:10CD50008980002801D14FF6FF76DFF8B816096800
:10CD6000411891F87410491E06295ED8DFE801F0D9
:10CD700004101D2936424F00B5F90210009100A998
:10CD8000B5F90020B21A4A60B5F904208A6056E06D
:10CD9000B5F90010711A009100A9B5F90220B21A74
:10CDA0004A60B5F904208A6049E0B5F90210711AA9
:10CDB000009100A9B5F900204A60B5F904208A6005
:10CDC0003DE0B5F90010711A009100A9B5F90220F3
:10CDD0004A60B5F90420B21A8A6030E0B5F9021051
:10CDE000009100A9B5F900204A60B5F90420B21AF3
:10CDF0008A6024E0B5F90010009100A9B5F902207D
:10CE0000B21A4A60B5F90420B21A8A6017E0B5F97F
:10CE10000210711A009100A9B5F90020B21A4A60F7
:10CE2000B5F90420B21A8A6009E0B5F90010009142
:10CE300000A9B5F902204A60B5F904208A600128EA
:10CE40000AD1002006E051F8202002F30F0241F839
:10CE50002020401C0328F6DB009828804868688062
:10CE60008868A88094F90800002802D12046FFF7BE
:10CE7000D7FE012004B070BD70B52DED028B84B0DB
:10CE800001A9002213460CC18169C2688A1890F971
:10CE9000081008460A2800F2CE80DFE800F00631CC
:10CEA000A9CCCC97CCCC71B6C4001088ADF80400E6
:10CEB000B2F9024001A84480B2F904508580DFF83D
:10CEC000540500689FEDC60ABDF9041000EE901AE3
:10CED000F8EEE00A60EE800AC0ED000A00EE904A2B
:10CEE000F8EEE00A60EE800AC0ED010A00EE905A0A
:10CEF000F8EEE00A20EE800A001D80ED010A9EE0B7
:10CF00001088ADF80400B2F9024001A84480B2F9DB
:10CF100004508580DFF8FC040068061D9FEDB18B8E
:10CF2000BDF9040000EE100AB8EEC00A10EE100AB7
:10CF300005F0E6F853EC182B05F00AF906F0ECF8CA
:10CF4000B06000EE104AB8EEC00A10EE100A05F00C
:10CF5000D7F853EC182B05F0FBF806F0DDF8F0607D
:10CF600000EE105AB8EEC00A10EE100A05F0C8F82C
:10CF700053EC182B05F0ECF806F0CEF830615EE0CB
:10CF80001846ADF80200ADF800001088ADF80200B8
:10CF90005088ADF80000DFF87C040068061D9FEDA6
:10CFA000C20ABDF9020000EE900AF8EEE00A60EE57
:10CFB000800AC6ED0E0ABDF9000000EE900AF8EEF8
:10CFC000E00A20EE800A86ED0F0A38E0184603904A
:10CFD000106803909DED030AB8EEC00ADFEDB20AB7
:10CFE00020EE200ADFF82C04006880ED0C0A26E011
:10CFF000DFF8200400681188A0F84A1000F24A0007
:10D00000518841809188818019E0DFF80804006828
:10D0100000F24A001188C1805188018191884181C4
:10D02000D18881810BE0DFF8EC03006892F90010F1
:10D0300080F8581003E00FF21840F4F707FE0120C3
:10D0400004B0BDEC028B70BD70B50D46DFF8D01397
:10D0500051F820400026207F002801D1304670BDC5
:10D06000607A002803D0206E8068804706462846F4
:10D07000216EC96988470546002E02D0206E40689F
:10D080008047284670BD9B0701D542F2107292FB83
:10D09000F1F190F8222051430069814201DA012028
:10D0A000704700207047002901D48164C164002AC0
:10D0B00003D4910701D580F820207047002903D4BC
:10D0C00000218164416181617047042800D070476C
:10D0D00010B58B7A1A4601F20A040FF28030012B48
:10D0E000114604D1F4F7B2FD1520E07510BDF4F738
:10D0F000ADFD0720E07510BDF2B58CB004461546B5
:10D1000019460020ADF82A0001900A208DF8080089
:10D1100000208DF809008DF80A00C14850F82460FD
:10D120000227307F002835D09DF94820002A08D4F6
:10D13000D00706D513460A460C993046FFF7A3FFE1
:10D140004CE03046FFF7AFFFA4F10C00C0B2062858
:10D1500005D22146C9B20CA8326E92699047314679
:10D160002046FFF7B2FF707A00281BD1294649B24A
:10D170003046726E1268904700280DD0306E4068BD
:10D180008047002804D139464F1EC9B20029F5D185
:10D19000002801D1002021E0294649B23046726EB4
:10D1A00052689047707A401C70722A4652B20C99AD
:10D1B0003046736E1B69984700F0BFF8072C0CD1FE
:10D1C000002D0AD100208DF80000112001900A20C6
:10D1D0008DF8080000A8F9F74BFD01200DB0F0BD57
:10D1E00060F61C3A89AD84FA0A74313F2DE9F041AA
:10D1F0008CB004460D46164619460020ADF82A00AC
:10D2000001900A208DF8080000208DF809008DF8A3
:10D210000A00834850F824704FF00208387F002835
:10D2200001D100203CE03846FFF748FF787A01281A
:10D2300018D1314649B238467A6E92689047002834
:10D240000AD0386E80688047002805D14046A0F19A
:10D250000108C0B20028F4D1314649B238467A6E8E
:10D26000D2689047787A002801D0401E7872324602
:10D2700052B2294638467B6E5B69984700F05DF8EC
:10D28000072C0CD1002E0AD101208DF800001120AE
:10D2900001900A208DF8080000A8F9F7E9FC0120A8
:10D2A0000CB0BDE8F08100000AD7233C2DE9F04125
:10D2B00004460D4616461946594850F82470387FE2
:10D2C000002815D09DF91820002A08D4D00706D5CB
:10D2D00013460A4629463846BDE8F041D3E606EB38
:10D2E000460007EB8008D8F838008068002801D590
:10D2F000002020E03846FFF7D6FE324652B2D8F87A
:10D300003800816838467B6E5B699847324652B276
:10D31000294638467B6E1B699847A4F10C00C0B2C1
:10D32000062805D229462046FEF798FC012002E097
:10D3300000F003F80120BDE8F08170B56FF0004502
:10D340002C463848016804E08A68A24200DA144694
:10D3500009688142F8D1344E3078401C3070F7F7BC
:10D36000A2FD7078401C7070AC4200D100242948A6
:10D370000168CC660A6F204682420AD0002801D09C
:10D38000002A03D10867F4F73DFC02E0012005F014
:10D3900016FF7078401E7070C0B2002801D1F7F7F8
:10D3A0007CFDF7F723FE012070BD38B505461E4C05
:10D3B0002078401C2070F7F776FD6078401C607084
:10D3C0001448006805671748016805E08A68B2FBE1
:10D3D000F5F26A43CA6009688142F7D16078401E5D
:10D3E0006070C0B2002801D1F7F757FDBDE83140A9
:10D3F000F7F7FCBD0B490A6808E01369012B01DA55
:10D40000D368136113691B1A136112688A42F4D13D
:10D41000704700008CAB002020AB00200080FFFF95
:10D420000000002068000020243700205820697385
:10D43000206F76657200000059206973206F766551
:10D44000720000005A206973206F76657200000038
:10D4500055435354282564294E530000414B4D2019
:10D460002D25640030B504460F480D46017881B083
:10D47000491C0170F7F717FDA068E168884209D1DF
:10D480003821204605F0A2FEF7F70DFDA068E168FF
:10D490008842F5D02946204605F0B6FE01B0BDE829
:10D4A0003040F7F7A3BD00BF243700204FF0FF3115
:10D4B000801E012812D9C01E04280FD9801F0628FB
:10D4C0000CD90A380AD0801E022807D9C01E03D002
:10D4D000401E0A2802D902E0062100E00121084688
:10D4E000704780B501460020C91E0DD0C91E0BD063
:10D4F000C91E09D0C91E012906D90D39032903D92E
:10D50000091F03D0491E07D1012002BD1D210FF2C2
:10D510000C00F4F79BFB012002BD000050443A20B0
:10D520004C4C53202564000038B504464FF0FF35BD
:10D53000F9F7BEFA252C30D8DFE804F02E2F182E8C
:10D540002E182E2E18182F2E151813132E2E2F2F9F
:10D550002F2E2F2E152E182E182E2E1A1D2125296E
:10D560002C2EC82519E04FF47A7516E0142514E026
:10D57000D0F8DC5411E000F2DC40856A0DE000F2E6
:10D58000DC40056D09E000F2DC40856F05E0D0F875
:10D590007C5502E00A2500E04225284632BD38B518
:10D5A000DFF8A049F4F740FEE06205F07BFEF9F7F2
:10D5B0007FFA2063002512E0DFF88C190161DFF8A3
:10D5C0008C194161DFF888298261DFF88829C261FE
:10D5D000DFF8842902624162406A80476D1C262D73
:10D5E00080F2F880216B05EB8500C00000224254D8
:10D5F000401842704FF0FF32426000220272C26057
:10D600004272032D04D17431DFF850298A62E3E7B6
:10D610001C2D00F0D380022D03D1DFF8202A4A67A9
:10D62000DAE7002DC8D0042D04D17431DFF8102AB8
:10D630000A65D1E7052D04D17431DFF8082A8A671D
:10D64000CAE7062D04D1DFF8002AC1F81421C3E788
:10D65000072D05D101F58A71DFF8F0298A62BBE751
:10D66000082D05D101F58A71DFF8E4290A65B3E7D1
:10D67000092D05D101F58A71DFF8D8298A67ABE752
:10D680000A2D99D00B2D97D0012D95D00C2D04D1BA
:10D69000DFF8C429C1F804229EE70D2D05D101F55C
:10D6A0000171DFF8B8298A6296E70E2D05D101F5E0
:10D6B0000171DFF8AC290A658EE70F2D05D101F560
:10D6C0000171DFF8A0298A6786E7102D04D1DFF801
:10D6D0009829C1F8A4227FE7112D04D1DFF88C2905
:10D6E000C1F8CC2278E7122D3FF466AF142D3FF439
:10D6F00063AF132D3FF460AF162D3FF45DAF152DD2
:10D7000004D1DFF86C29C1F86C2365E7172D05D12A
:10D7100001F55B71DFF85C290A655DE7182D05D11D
:10D7200001F55B71DFF850298A6755E71A2D05D19D
:10D7300001F20C41DFF844298A624DE71E2D05D124
:10D7400001F2AC41DFF838298A6245E7192D04D18E
:10D75000DFF83029C1F80C243EE71F2D05D101F276
:10D76000AC41DFF824290A6536E7202D05D101F206
:10D77000AC41DFF818298A672EE7212D04D1DFF8A4
:10D780001029C1F84C2527E7222D05D101F24C5173
:10D79000DFF800298A621FE7232D05D101F24C51E1
:10D7A000DFF8F4280A6517E71B2D05D101F20C41BB
:10D7B000DFF8E8280A650FE71C2D03D1DFF8E01831
:10D7C000416209E71D2D7FF4F7AEDFF8D828C1F8D4
:10D7D000AC2401E7012032BD0CB42DE9F04387B041
:10D7E00005460E4601241A2D44D005EB8500C700DE
:10D7F000DFF850870B2E20D1D8F8300007EB000956
:10D8000099F80100002818D02846FFF74FFE01289C
:10D8100013DB2846FFF74AFE99F8011081420CDB22
:10D82000284600F06FF90446D8F830003818002177
:10D8300041700FF67C00F4F709FAD8F83000395C33
:10D8400000293FD139184A78002A3BD100223A54A6
:10D85000104648700EA983B068462422F5F706FCEE
:10D860000EBC284600F070F8022826D0032829D1E3
:10D87000032427E00B2E14D11A20FFF717FE0128EE
:10D880000FDB1A20FFF712FEDFF8B816096B91F8CC
:10D890001114814205DB0FF62000F4F7D7F90220BE
:10D8A0004DE00EA983B068462422F5F7DFFB0EBCDD
:10D8B0001A2000F049F8022801D102203FE0032895
:10D8C00000D103240A2E0AD1DFF87886D8F8300078
:10D8D00005EB8501CF00395C491C395416E00B2E4D
:10D8E00014D1DFF86086032D07D1D8F8300090F806
:10D8F0007900002801D101F048F805EB8500C70048
:10D90000D8F8300038184178491C4170DFF8348667
:10D91000D8F83000D8F82C1005EB8502D700D1E9F3
:10D920001823CDE90223B1F85C10009139184B7827
:10D930003A5C29460FF28C70F4F788F9204607B05C
:10D94000BDE8F0035DF80CFB0EB42DE9F04185B0A5
:10D9500005460124C0B2FFF7E7FDDFF8E86505EBF7
:10D960008501326B02EBC107786000203872F860E5
:10D970000BA984B068462422F5F778FB0FBC3F69F9
:10D98000B847022801D1022011E0032801D1032465
:10D990000CE0D6F82C80D8E91867204600212A46EA
:10D9A00000F0DCFB30433943C8E91801204605B0DC
:10D9B000BDE8F0015DF810FB2DE9F04385B00446A9
:10D9C0000D460126DFF87C75386B1A2C58D004EB15
:10D9D00084014FEAC10808EB000999F80100022808
:10D9E00014D32046FFF762FD01280FDB2046FFF726
:10D9F0005DFD99F80110814208DB2046FFF756FDD6
:10DA000089F801000FF2D060F4F720F9386B18F8AC
:10DA10000010002904D108EB00025278002A56D0E9
:10DA20000A2D09D1002903D0491E08F8001017E07B
:10DA3000002108F8001013E00B2D11D108EB0001B4
:10DA40004A78002A02D0521E4A7001E000224A7031
:10DA5000032C05D190F87900002801D100F0A4FF33
:10DA6000386B18F80010002931D140444078002864
:10DA70002DD1204600F046F8032828D1032626E0C1
:10DA800090F81014002904D100F582625278002A1F
:10DA90001DD00A2D09D1002903D0491E80F8101489
:10DAA0000FE0002180F810140BE00B2D09D100F2DB
:10DAB00010404178002902D0491E417001E0002148
:10DAC00041701A2000F01EF8032800D10326386B9D
:10DAD000F96A04EB84024FEAC208D1E91823CDE9C0
:10DAE0000223B1F85C10009108EB00014B7818F8A4
:10DAF000002021460FF2E850F4F7A8F8304605B0B0
:10DB0000BDE8F0832DE9F0410746012607EB8700C9
:10DB1000C500DFF83044206B28184069804703288F
:10DB200000D10326384640B200F080F9032800D126
:10DB30000326206B295C002917D128184178002979
:10DB400013D14FF0FF31416000210172C160D4F860
:10DB50002C80D8E9184501203A4600F0FFFA24EA63
:10DB6000000025EA0101C8E918013046BDE8F0814E
:10DB700038B5044604EB8400C000DFF8C853296BB5
:10DB8000002242544018114641702046FFF7BAFF68
:10DB9000E86AD0E9182321460FF25850F4F756F8F6
:10DBA000012032BD2DE9F041AEB004460E46B6B2BA
:10DBB00001208DF85400DFF88C5316A8E96A5C2226
:10DBC000F5F754FA139516A984B068465C22F5F768
:10DBD0004DFA0FBC00F0C4F900270BE0032803D175
:10DBE000149703208DF85400286B404400210172E3
:10DBF0007F1C7FB2262F2BDA012000213A4600F04D
:10DC0000ADFAD5F82CC0DCE918231040194001D139
:10DC10000028EDD007EB87004FEAC008286B40448E
:10DC200041680029E4D4027A521C0272D2B27243D3
:10DC300089B28A42DCDB806980470228CED1149702
:10DC400002208DF85400DDE91401C4E9000103E06D
:10DC5000DDE91401C4E900012EB0BDE8F081002126
:10DC60000A3842F20772904200D2012108467047FA
:10DC70002DE9F04383B0044600200190042204F112
:10DC8000090101A8F5F71DFA6168DFF8B862376B82
:10DC9000282505FB01704068019A904204D10FF2DB
:10DCA0006040F3F7D3FF6AE01046FFF7D8FF002883
:10DCB00009D16168019B05FB017042680FF24C407D
:10DCC000F3F7C4FF5BE0DFF8E0733868D0F800805A
:10DCD00026E090F908906068316B05FB0010C06881
:10DCE000012101FA09F1084217D04FF0FF300090EE
:10DCF0000346012201994846FFF7FEF940B2002889
:10DD00000BD1616801980090306B05FB01004368FE
:10DD10004A460FF20C40F3F799FF4046D0F80080D6
:10DD2000B842D6D13868D0F8008020E090F9089049
:10DD3000C868012202FA09F2104215D04FF0FF33F1
:10DD4000012249684846FFF751FA40B200280BD13A
:10DD5000616801980090306B05FB010043684A46FA
:10DD60000FF2D430F3F772FF4046D0F800806168BC
:10DD7000326B05FB0121B842D8D101984860BDE85B
:10DD8000F7832DE9F84381464FF0000844466D4E75
:10DD90001FE004EB8400C500306B2F180020787260
:10DDA00001200021224600F0D9F9D6F82CC0DCE988
:10DDB00018231040194001D1002809D04846F969BC
:10DDC0008847002804D0306B28180121417288460A
:10DDD000641C262CDDDB4046BDE8F2835948C16A4D
:10DDE000D1E91823002B01D1002A0BD0002107E034
:10DDF00001EB8102036B03EBC20200235372491C47
:10DE00002629F5DB704730B502460120002100F0DD
:10DE1000A5F94C4AD26AD2E918452040294001D1DF
:10DE2000002801D0012030BD002030BD2DE9F04791
:10DE30008146012409EB8900C500424E306B281849
:10DE4000C068002829D0DFF860723868D0F80080F8
:10DE500003E003244046D0F80080B8421DD090F97A
:10DE600008A0306B2818C168012202FA0AF211409A
:10DE700021FA0AF149B20129ECD14FF0FF33012216
:10DE800041685046FFF7B2F90028E2D052464946B1
:10DE90000FF2BC20F3F7DAFEDCE72046BDE8F0879E
:10DEA00010B58CB004460020ADF82A0001900A207D
:10DEB0008DF8080000208DF809008DF80A00F4F7AD
:10DEC000B3F90020ADF82A00600719D50520FFF747
:10DED0009AFF002807D004208DF80000052001904B
:10DEE00000A8F8F7C5FE0220FFF78DFF002807D035
:10DEF00004208DF800000220019000A8F8F7B8FE79
:10DF0000E0060CD50820FFF77EFF002807D003208D
:10DF10008DF800000820019000A8F8F7A9FE0CB0C9
:10DF200010BD02460020092A00D0704780B50129A3
:10DF300002D105F005FB012002BD02492C22F5F7B4
:10DF400095B80000D4A60020DB6D0008D76D00084E
:10DF5000E36D0008E76D0008EB6D00086FE700084F
:10DF60000FB417980099016001994160029981608E
:10DF70000399C1600499016105994161BDF84A1096
:10DF80000183BDF84C104183BDF84E1081830C997C
:10DF900001620F9941621099816204B070470000DC
:10DFA0004168122903D1C17A002000F0AABD1329CB
:10DFB00003D1017B012000F0A4BD142903D1417BD2
:10DFC000022000F09EBD152902D1C07A00F0AABD42
:10DFD00017292BD1817A1B2902D01D290DD070471A
:10DFE000C17B012903D1B0F80B0002F012BA02295B
:10DFF0001CD1B0F80D0002F00ABA017D012903D14D
:10E00000B0F80B0005F05CBD022903D1B0F80D009B
:10E0100005F04ABD042903D1B0F8170005F05CBD36
:10E02000032903D1B0F8150005F062BD70471F4900
:10E03000086070471D48006870470000E709010844
:10E0400081E10008CF0701082B93020809A5020807
:10E05000E50501088F3401088FE40008D991020812
:10E0600071860208299C020873A1020805A802080B
:10E0700021A6020839A70208059B0208A3FC000894
:10E08000358F0208019F0208494701088BBC01082F
:10E090009B9902082BE30108A54801088B0301089E
:10E0A000458102084D3A01089408002090AB0020F9
:10E0B000414C204558000000414C2045582D41540A
:10E0C00000000000414C25642025642025642025A3
:10E0D0006420256400000000524C204558000000D8
:10E0E000524C256420256420256420256420256465
:10E0F000000000005445524D202564202564000096
:10E100004558204C4D435231202564004558204C41
:10E110004D435232202564202564202564000000F0
:10E120004558204C4D43523320256420256420253A
:10E1300064202564000000004558204C4D435234B3
:10E14000202564202564202564202564000000002B
:10E15000534D52412025642025640000D2B2203A5C
:10E1600022BF00FA02F1002070475242D041D2F1A2
:10E17000200291404140D040904041407047000013
:10E1800038B5F8F795FC0446104DF4F74DF82860C3
:10E1900004F0DCF804F0DFF8686004F032FA0C48B0
:10E1A000C4F8B00004F1B0000A4941600A49816036
:10E1B0000A49C1600A490161012032BD0349496829
:10E1C00089680847014840680068004738AB00206C
:10E1D000DB6D0008D76D0008E36D0008E76D0008EF
:10E1E000EB6D00082DE9F04786B0044601A8142124
:10E1F000F6F7B0FDF3F7AFFC05464FF00209002635
:10E2000001E0761C76B20A2E80F2A880022EF8D0A9
:10E21000032EF6D0062EF4D0574850F8267007F19A
:10E220000C08787A002805D1D8F854004068804757
:10E230000028E6D009F8046009F101094FFA89F9CC
:10E24000304609285AD8DFE800F0050A595910204D
:10E2500059154D47C8212846F3F74CFE4EE04FF4C0
:10E2600048712846F3F746FE48E032212846F3F786
:10E2700041FE43E007208DF80400FF208DF80500E3
:10E2800032212846F3F736FE38E03C212846F3F7E2
:10E2900031FE4FF0000ABAF1030F2FDA0020D8F850
:10E2A00054100969884714212846F3F723FE0120FA
:10E2B000D8F854100969884714212846F3F71AFE44
:10E2C000BAF1020F05DA062101A8D8F854205269E4
:10E2D00090470AF1010ADEE74FF416712846F3F77A
:10E2E00009FE0BE00020D8F8541009698847012086
:10E2F00088F811003C212846F3F7FCFD98F815102A
:10E3000001A8D8F8542052699047002819D0D8F8AD
:10E310000C00F96800EB010A98F8152001A9504695
:10E32000F4F7CFFE3846FEF7F9FC98F81520514671
:10E3300009EB0400F4F7C5FE98F9150081444FFA83
:10E3400089F9787A00287FF45CAFD8F854008068A7
:10E35000804700287FF455AF002009E0A9F10200B2
:10E36000ADF80000022200A92046F4F7AAFE002022
:10E3700006B0BDE8F08700000000002030B581B095
:10E3800004460D46F6F78FFD686920436861297CD5
:10E3900001F0F801082905D1A96901421CBF2846EE
:10E3A000F6F740FE0448407820B901B0BDE830409F
:10E3B000F6F773BD01B030BD243700200FB480B52F
:10E3C000BDF80B0068494880022802D3801E0880EF
:10E3D00001E0002008800C229DF90A100020F8F7C7
:10E3E00069FB032801D1022000E0012002BC5DF896
:10E3F00014FB5D480121418000210180012070470C
:10E400005A4908707047000030B58DB002A8F8F77F
:10E41000B7FB554C2088401C2080618880B2884220
:10E4200032D300202080054628E06068D0F8EC0157
:10E430000121A940084220D0284604F084FF00288A
:10E440001BD400EB80009FED470ADDED0B0A60EE68
:10E45000800AFDEEE00A10EE901A00AA8152DDED6E
:10E460000C0A20EE800ABDEEC00A10EE101A8218C7
:10E47000518000A94018012101716D1C152DD4DBBC
:10E48000DDE9000104F06FFF01200DB030BD80B563
:10E49000F8F70EFB344948603549C0F8F01100F533
:10E4A000F87034494160344981600FF21101C16054
:10E4B0000FF225010161012002BD000010B500240A
:10E4C0002A4890F90000002804D104F06BFF0028CE
:10E4D00000D00124204610BDF8B504460D4640F298
:10E4E0000D16287816FB004001210170287816FBD4
:10E4F00000404170287816FB00400C21817028787C
:10E5000016FB0040194991F90010002902D00221A0
:10E51000C17001E00121C170287816FB0040012183
:10E520000171287816FB004008214171287816FBFC
:10E5300000400121C180287816FB0047002004F02C
:10E54000CCFE3881287816FB0044002004F0CAFE77
:10E5500060812878401C28700C20BDE8F24004F04F
:10E56000DABE00000000C84234380020E4AB0020CE
:10E57000BDE30008F3E3000809E400080FB480B528
:10E58000032200210846F8F795FA022801D102205B
:10E5900018E00FF63040F3F759FBDFF8C80B002105
:10E5A0004173C18181619DF80C209DF80B109DF88D
:10E5B0000A0005F08EFC54220021DFF8C00BF4F7AE
:10E5C000A5F9012002BC5DF814FB0120704730B5AD
:10E5D0008BB000A8F8F7D4FA05210320F8F733FB35
:10E5E000002802D1DFF8800B0890DFF8784B206913
:10E5F000C56F05F01FFC207294F90800022806D1AF
:10E60000422D04D114210320F8F7BCFA07E00128B9
:10E6100005D1142D03D142210320F8F7B3FA28467F
:10E6200080B2DDED081A00A991EC030A05F064FB45
:10E6300060692818606101200BB030BD1CB5DFF89F
:10E64000244B94F90000002843D400A8F3F753FDAD
:10E65000204600A90522F4F7F9FC94F90A0094F980
:10E660000110814229D1217B0818A07240B23D28B7
:10E6700001DB3C38A07294F90A100FF65830F3F71A
:10E68000E5FA00206061DFF8E40A90F901004FF03C
:10E69000FF31884201D1012016BD94F90110081AFA
:10E6A000F8F70EFC21F0004103F024FE40B20128EF
:10E6B00001DB012016BD002016BDDFF8B40A90F979
:10E6C0000120914203D0D4E90023C0E900230020B7
:10E6D00016BD6069DFF8D01A884205DB0FF60030FE
:10E6E000F3F7B4FA012016BD002016BD2DE9F8435A
:10E6F0000026DFF8704A07E07A19A27252B231465A
:10E700000FF6E820F3F7A2FA94F90A50002E21D46C
:10E710006078461B76B294F90C70002EECD530462A
:10E72000F8F7CEFB21F0004102460B469046994691
:10E730003846F8F7C5FB42464B4604F059FBE3D296
:10E74000EA1BA272002652B231460FF6B420F3F74C
:10E750007DFAD9E73D2D02DBA5F13C00A07294F9CA
:10E760000A100FF6B020BDE8F443F3F76FBA10B506
:10E77000DFF8F04901202072002060724FF0FF3076
:10E7800020700F20E0721420207300206073E0815D
:10E79000A061F8F78DF92061DFF8D819C0F888106A
:10E7A0008830DFF8D4194160DFF8001A81600FF279
:10E7B0001101C1600FF21D510161012010BD000067
:10E7C0002DE9F043A9B00546002413A805F036FB57
:10E7D000DFF8A8692046129001201190314684B0DC
:10E7E00068465422F4F742FC0FBC00F0F9F80746E3
:10E7F0009DED210AD6ED0E0A30EE600A10EE100AE9
:10E8000003F07EFC2246DFF8783903F0A1FC03F028
:10E8100071FD80461FFA88F8BDF89200B6F84610E0
:10E82000461AF6B2DFF83C99002D38D1002F02D1FC
:10E8300056EA080018D00124002F15D0DFF87059CF
:10E84000A868B84210D0204605F09DFF204606F08B
:10E8500048F8A868381AC9F81C00AF603246394633
:10E860000FF6BC10F3F7F2F9DFF84459AF6000205F
:10E87000C9F814004FF0FF3089F80000DFF8F028E5
:10E88000D9E90001C2E90001C5E90001DFF8DC288F
:10E89000C2E9000199F80B0089F80A002BE000F0AA
:10E8A0002CF900281CD0204689F80900DFF8C02880
:10E8B000D9E90001C2E9000100A8F3F71CFC4846B1
:10E8C00000A90522F4F7C2FB99F9023099F9012059
:10E8D00099F900100FF65410F3F7B8F9FFF706FF97
:10E8E000FFF7ACFE002806D0DFF88008D9E9002346
:10E8F000C0E90023012499F80D00012832D1B9F8AC
:10E900000E00002805D10FF63C10F3F79FF9012403
:10E9100028E0D9F81810814219D2002F02D156EA06
:10E92000080000D00124DFF8885895F9020099F911
:10E930000220904216D0491CC9F818100FF6141086
:10E94000F3F784F9D9E90001C5E900010AE00020E4
:10E9500089F80D00A9F80E00C9F818000FF6041088
:10E96000F3F774F9012C02D10020C9F81400D9F88A
:10E97000100090F87900002803D10020C9F8140095
:10E980000446204629B0BDE8F08310B5DFF8D4076F
:10E9900000214161032205210020F8F78BF804468D
:10E9A00000F007F8204610BD032205210120F8F7EA
:10E9B00081B800B595B000A805F040FA542200A92E
:10E9C000DFF8B807F4F77DFB012015B000BDDFF8D4
:10E9D0009407C0697047DFF88C070021C161704758
:10E9E0000FB430B595B09DF9B4409DF9B80000253D
:10E9F00001280BD105F0E8FA1899884202D3451A8C
:10EA0000EDB270E08038451AEDB26CE000A805F078
:10EA100015FA641E082C66D8DFE804F02905111DDC
:10EA20002936424E5A0001981999884201D3451A55
:10EA300059E0DFF880271018401A451C53E002986F
:10EA40001A99884201D3451A4DE0DFF8682710185B
:10EA5000401A451C47E003981B99884201D3451A88
:10EA600041E0DFF850271018401A451C3BE00098A1
:10EA70001899884201D3451A35E0DFF8381708188D
:10EA80001899401A451C2EE004981C99884201D31D
:10EA9000451A28E0DFF81C271018401A451C22E010
:10EAA00005981D99884201D3451A1CE0DFF8042718
:10EAB0001018401A451C16E006981E99884201D38A
:10EAC000451A10E0DFF8EC261018401A451C0AE041
:10EAD00007981F99884201D3451A04E0DFF8D4262D
:10EAE0001018401A451C284615B030BC5DF814FBC0
:10EAF000DFF87006012141727047DFF86806407A3E
:10EB0000704705F0A4B9DFF85C16792802D37822A3
:10EB1000CA8100E0C88101224A7301460FF2547095
:10EB2000F3F794B810B5040001D1012402E0072CDA
:10EB300000D3062421460FF25070F3F787F8641EC5
:10EB4000052C2DD8DFE804F0030A11181F26DFF882
:10EB500014063721C1723C21017321E0DFF804065D
:10EB60001921C1721E2101731AE0DFF8F8050F2187
:10EB7000C1721421017313E0DFF8E8050A21C172A4
:10EB80000F2101730CE0DFF8DC050721C1720C21B5
:10EB9000017305E0DFF8CC050521C1720A2101737C
:10EBA000DFF8C005C17A8172BDE810409EE5000023
:10EBB0000FB400B595B000A805F040F99DED080A26
:10EBC000DDED1E0AB4EE600AF1EE10FA02DB30EE63
:10EBD000600A05E09FED3E1A71EE600A30EE800A91
:10EBE00010EE100A03F08CFADFF89825DFF898355C
:10EBF00005F0B4FE04F090FA03F082FA0022DFF888
:10EC00008C3503F0A5FA03F075FB00EE100AB8EEA0
:10EC1000C00A10EE100A03F073FADFF86825DFF877
:10EC2000703503F095FADFF86C25DFF88C3505F0C8
:10EC300095FE04F071FA00EE100A15B05DF814FBB1
:10EC40000FB400B595B000A805F0F8F89DED0D0AD9
:10EC5000DDED230AB4EE600AF1EE10FA02DB30EECD
:10EC6000600A05E09FED1A1A71EE600A30EE800A24
:10EC700010EE100A03F044FADFF80825DFF8083533
:10EC800005F06CFE04F048FA03F03AFA0022DFF8CF
:10EC9000FC3403F05DFA03F02DFB00EE100AB8EE31
:10ECA000C00A10EE100A03F02BFADFF8D824DFF8C0
:10ECB000E03403F04DFADFF8DC24DFF8FC3405F033
:10ECC0004DFE04F029FA00EE100A15B05DF814FBB1
:10ECD000002474492DE9F0472DED068BA8B00646B7
:10ECE0000D4613A805F0AAF840F20D14287814FB7D
:10ECF000006001210170287814FB0060DFF86414C3
:10ED00004A7B012A0CD103224270287814FB006050
:10ED10000122C270C889002804D10020487301E094
:10ED200001214170287814FB0060032181700DF1EE
:10ED300084099FED868B9FED879BDFF84074002050
:10ED4000129001201190394684B068465422F4F79D
:10ED50008DF90FBCFFF744FE0A28287814FB0060E9
:10ED600080F0FC8000210171287814FB006898F87D
:10ED700004A00846129002201190394684B06846DB
:10ED80005422F4F773F90FBCFFF72AFE40EA0A0099
:10ED900088F80400287814FB0068002012900320F3
:10EDA0001190394684B068465422F4F75FF90FBCDD
:10EDB000FFF716FE88F80500287814FB006800208D
:10EDC000129004201190394684B068465422F4F71A
:10EDD0004DF90FBCFFF704FE88F80600287814FBF5
:10EDE00000680020129005201190394684B06846D2
:10EDF0005422F4F73BF90FBCFFF7F2FD88F8070047
:10EE0000394684B068465422F4F730F90FBCFFF756
:10EE100017FF10EE100A03F073F941EC100B28787D
:10EE200014FB006853EC102B51EC190B03F090F914
:10EE300003F060FAA8F80E00287814FB0068219807
:10EE400003F05EF953EC182B03F082F903F052FA49
:10EE500088F81000287814FB0060B9F80E1041748F
:10EE6000394684B068465422F4F700F90FBCFFF726
:10EE70009FFE10EE100A03F043F941EC1A0B2878BC
:10EE800014FB006853EC1A2B51EC190B03F060F9DA
:10EE900003F030FA88F81200287814FB0068D9F8DB
:10EEA000080003F02DF953EC182B03F051F903F08F
:10EEB00021FA88F81300287814FB006800201290CB
:10EEC00006201190394684B068465422F4F7CEF8F3
:10EED0000FBCFFF785FD88F80800287814FB006850
:10EEE0000020129007201190394684B068465422C1
:10EEF000F4F7BCF80FBCFFF773FD88F80900287819
:10EF000014FB00680020129008201190394684B04C
:10EF100068465422F4F7AAF80FBCFFF761FD88F8A1
:10EF20000A00287814FB0064002012900920119038
:10EF3000394684B068465422F4F798F80FBCFFF7BE
:10EF40004FFDE0722878401C287004E100000000AA
:10EF500000002440000000000000594080210171A1
:10EF6000287814FB00680020129002201190394686
:10EF700084B068465422F4F779F80FBCFFF730FDEF
:10EF8000C8F80500287814FB0068002012900320C0
:10EF90001190394684B068465422F4F767F80FBCE4
:10EFA000FFF71EFDC8F80900287814FB0068002050
:10EFB000129004201190394684B068465422F4F728
:10EFC00055F80FBCFFF70CFDC8F80D00287814FBAE
:10EFD00000680020129005201190394684B06846E0
:10EFE0005422F4F743F80FBCFFF7FAFCC8F81100FD
:10EFF000394684B068465422F4F738F80FBCFFF75E
:10F000001FFE10EE100A03F07BF841EC100B28787D
:10F0100014FB006853EC102B51EC190B03F098F81B
:10F0200003F07EF9C8F82700287814FB00682198BF
:10F0300003F066F853EC182B03F08AF803F05AF942
:10F0400088F82B00287814FB0060B9F80E1080F8BF
:10F050002C10394684B068465422F4F707F80FBCE8
:10F06000FFF7A6FD10EE100A03F04AF841EC1A0B68
:10F07000494A4A4B03F0D4FE06D8494A494B03F0AB
:10F08000B7FE01D29FED4DAB287814FB006853EC1E
:10F090001A2B51EC180B03F05BF803F02BF9A8F8CE
:10F0A0002D00287814FB0068D9F8080003F028F830
:10F0B00053EC182B03F04CF803F01CF988F82F00E0
:10F0C000287814FB00680020129006201190394621
:10F0D00084B068465422F3F7C9FF0FBCFFF780FCE9
:10F0E000C8F81500287814FB00680020129007204B
:10F0F0001190394684B068465422F3F7B7FF0FBC2D
:10F10000FFF76EFCC8F81900287814FB006800208F
:10F11000129008201190394684B068465422F3F7C3
:10F12000A5FF0FBCFFF75CFCC8F81D00287814FB96
:10F1300000640020129009201190394684B068467E
:10F140005422F3F793FF0FBCFFF74AFCC4F82100E9
:10F150002878401C2870FFF72CFC28B0BDEC068BEB
:10F16000BDE8F087C4A7002000007A4448AB002027
:10F1700040AB00207DE50008CBE5000854A200204C
:10F18000000024407B14AE47E17A743F00005940F0
:10F19000E17A843F2D431CEBB81E85EB51B89E3FAE
:10F1A0009A9999999999B93F40771B00CFE5000842
:10F1B000A8AA002080969800E2361A3F9A99999959
:10F1C0009999B93F50443A20537461727450656400
:10F1D0006F00000050443A204E5420256400000087
:10F1E00050443A204E6F54696D65000050443A20F7
:10F1F000636F6D70312025642C20256400000000B1
:10F2000050443A20636F6D70322025642C202564B1
:10F210000000000050443A2043555420256400006B
:10F22000537465703D25642C2025640050443A5485
:10F23000696D654E6F7469202564202564202564FE
:10F240000000000050443A2053746F7020446174F1
:10F250006131000050443A207574696D6572202553
:10F260006400000050443A2053746F70204461746D
:10F270006132000050443A2053746172742044613A
:10F28000746120256400000050443A205554202524
:10F290006400000010B5DFF8384C40F282220021F3
:10F2A0002046F3F733FB00202070E07284F84C0214
:10F2B00010BD0FB470B5A6B0DFF8184C6068DFF869
:10F2C000105C90F81014002940D190F81104002827
:10F2D0003CD10FF63040F2F7B9FC00208DF8140055
:10F2E000032006900DF11D002AA92122F3F7AEFE9E
:10F2F0000A208DF81C0005A8F7F7BAFC002801D1F8
:10F300000220A2E0FFF7C6FF10A804F097FD00A8B6
:10F31000F2F7F1FE9DF80000E8769DF801002877ED
:10F320009DF902006877BDF90310E9839DF900207B
:10F3300040F64C6312FB03F242FA80F04FF47A720B
:10F3400002FB0010C5F80200C5F80D009DF8AA6088
:10F35000012E1BD19DF8AB000121052805D0EA7DC7
:10F3600001FA00F01043E87509E0084605E0EA7D7F
:10F3700001FA00F31A43EA75401C0528F7D3287EEA
:10F380009DF9AC209140084328762FE0022E2DD124
:10F3900000A8F2F7B0FE9DF900004FF461619DF9FD
:10F3A0000120C2EB02139A0011FB00209DF902100C
:10F3B00040FA81F04FF47A71BDF9032001FB00207F
:10F3C000C5F87A02C5F8760205F1200005F11B01A7
:10F3D0000522F3F73BFE4FF49660A5F81900DFF81D
:10F3E000F80AC5F86E020020E060A060012101FA71
:10F3F00006F0A97D0143A975297800290DD09DF853
:10F40000AB20012A04D1012902D1002185F84B1239
:10F4100095F85212084385F85202606890F8791006
:10F42000049190F87810039190F81114029190F8DB
:10F4300010040190B5F8190000902B7EEA7DA97D9B
:10F440000FF6D020F2F702FC012026B070BC5DF868
:10F4500014FB10B590B0FEF7EDFD002870D0827857
:10F460000121DFF86C4A012A22D1C278052A06D090
:10F47000E37D01FA02F223EA0202E27501E00022D2
:10F48000E275227E90F9043001FA03F39A43227662
:10F49000E27D002A10D1A27D90F9020001FA00F06D
:10F4A00022EA0000A0750FF69420F2F7CFFB03E0EC
:10F4B000A07D91408843A075A07D002814D10FF64F
:10F4C0008820F2F7C3FBFFF7E5FE01208DF814005A
:10F4D000032006900A208DF81C0005A8F7F7C8FB4A
:10F4E000002813D1032030E0DFF8E809406890F8E5
:10F4F000781000290AD1002180F8101480F8111426
:10F50000FFF7C8FE0FF65020F2F7A0FBDFF8C409A2
:10F51000406890F87910049190F87810039190F871
:10F520001114029190F810040190B4F819000090A1
:10F53000237EE27DA17D0FF63420F2F787FB03E006
:10F540000FF65020F2F782FB012010B010BD2DE91C
:10F55000F047A2B0002500A8F2F7CDFD0CA804F0FA
:10F560006DFC05A805F0B1FA2F462E4607A80FF648
:10F5700030210CC90CC0DFF858499DF80000A0717B
:10F580009DF80100E0719DF802002072BDF80300B3
:10F59000A4F80900A0794FF46161E279C2EB02138B
:10F5A0009A0011FB0020217A40184FF47A71B4F8C8
:10F5B000092001FB0020C4F80200BDF876000428F1
:10F5C00001D1032514E0BDF81410012903D002294C
:10F5D00003D1002801D101250AE0022903D1032823
:10F5E00001D1022504E0042902D1042800D0042519
:10F5F000D4F80D10D4F8020000F0F2FB8046B8F108
:10F60000000F02D0B8F1C90F09D341460FF6981088
:10F61000F2F71CFBDFF8BC084068D0F87C80A07DC6
:10F62000400722D5DFF8AC98D9F808004044C9F863
:10F63000080044F62061884217D3D9F80C1041180D
:10F64000C9F80C100FF67410D4F86E228A4205D354
:10F65000F2F7FCFA3046C9F8080006E0F2F7F6FACD
:10F660003046C9F80C00C9F80800E07AA84200F05A
:10F67000B980304660702570C4F8720229460FF6D2
:10F680004C10F2F7E3FAA07D400740F19F80D4F8D8
:10F690007612D4F8020000F0A3FB8046D4F87E0274
:10F6A00044F62067B84514D24044C4F87E02E07A9C
:10F6B00004EB8000D0F85A124144C0F85A12E07AA4
:10F6C0000019217B90F855228A4212D280F85512F7
:10F6D0000FE080443046C4F87E021422014604F252
:10F6E0005A20F3F713F90522314604F25520F3F7B7
:10F6F0000DF94246D4F87E120FF6E000F2F7A6FAB2
:10F70000D4F87E02B84254D33746D4F85E12D4F807
:10F710005A02814200D3012702200BE004EB890248
:10F72000D2F85A2204EB8003D3F85A329A4200D21C
:10F730000746401CB9460528F0D3D4F86A02009069
:10F74000D4F86632D4F862220FF6A800F2F77EFAF7
:10F7500009EB040AD4F87E329AF8552249460FF68E
:10F76000B000F2F773FA8DF824709AF855028DF80C
:10F770002500D4F87E1294F84C029DF82420904283
:10F7800004D1022209A800F0A0F903E0012209A88F
:10F7900000F09BF91422314604F25A20F3F7B6F830
:10F7A0000522314604F25520F3F7B0F83046C4F88C
:10F7B0007E0294F84902002808D03246414604F1FE
:10F7C0000B0000F082F9304684F84902D4F80200B8
:10F7D000C4F87602304684F84B02012084F84F02C8
:10F7E000074659E0D4F872024044C4F8720207A9EF
:10F7F000012D06D14FF4FA6207924FF47A624A6003
:10F8000005E040F6B832079241F288324A60079A22
:10F8100090420FD394F84F22012A0BD1012060703F
:10F82000022084F84F02012721780FF2FC70F2F7D2
:10F830000DFA11E0496888420ED394F84F0202286D
:10F840000AD102206070032084F84F02012721783A
:10F850000FF2E470F2F7FAF9207B617888421BD14D
:10F86000022818D144F62067D4F87202B84212D3A5
:10F87000A07D40070DD594F84902002809D1012048
:10F8800084F84902E27A94F84C120FF2BC70F2F755
:10F89000DDF9C4F87272374694F85212002906D086
:10F8A000002F04D101270FF2B070F2F7CFF9A07D3D
:10F8B000400714D5D4F80290D4F87A12484600F0E4
:10F8C0008FFA8046D4F86E22904508D301273E4631
:10F8D000C4F87A9241460FF28C70F2F7B7F9002F14
:10F8E00000F0E68000270FE00FF60000F2F7AEF917
:10F8F000002084F84E0204F12000A11D05235B1EA8
:10F90000CA5CC254FBD17F1C052F80F2D18001203C
:10F9100000FA07F1A27D1142F5D094F8522211426B
:10F9200001D1002AEFD1002F03D0022F3DD019D3EF
:10F93000E9E7DFF8A0050068407A0028E3D100215C
:10F94000012000F0D5F96078029020780190B4F899
:10F9500009000090237AE279A1790FF22070F2F782
:10F9600075F9D0E7A840E17D0842CCD06078002846
:10F97000C9D094F84B020028C5D1012084F84B026D
:10F98000014600F0B5F96078049020780390E07D9E
:10F9900002900195B4F809000090237AE279A179E8
:10F9A0000FF2F460F2F752F9ADE7002EABD0D4F8C5
:10F9B0000290D4F87612484600F012FAD4F87E127B
:10F9C00001EB000844F62060804505D30022414643
:10F9D000204600F07AF809E0A9EB080100A800F041
:10F9E00007FAA01D00A90522F3F730FBB4F8530273
:10F9F0000938F7F765FADFF8E424DFF8E43402F0B9
:10FA0000A7FB02F077FC80461FFA88F894F84E2294
:10FA1000904506D041460FF2A060F2F717F984F83E
:10FA20004E8294F84E1284F82D10012084F84A0278
:10FA30004FF000090FF29060F2F708F94FF0090853
:10FA40001BE009F1010908EB040000F225008178B0
:10FA5000C278120202EB01410279891800914378C1
:10FA600008EB040090F825205FFA89F949460FF267
:10FA70006460F2F7EBF808F10508B4F85322104679
:10FA80008045DEDBDFF84C14496891F81114002939
:10FA90003FF42EAF94F84E1200293FF425AF002A10
:10FAA0003FF422AF04F125010120F6F733F91FE7F7
:10FAB00004F10B0021460B22F3F7C8FA002084F86A
:10FAC0005202012022B0BDE8F0872DE9F04184B058
:10FAD00005460E469046002701A839460A4606C04C
:10FAE000DFF8EC4394F84A02002808D0084684F86E
:10FAF0004A02A4F853020FF20060F2F7A7F8D4F814
:10FB00007632D4F8022031460FF20060F2F79EF808
:10FB1000B4F85302002829D1A01C817F4FF4616200
:10FB2000C07FC0EB0013980012FB010094F8221074
:10FB300040184FF47A71B4F8232001FB002104F23D
:10FB4000230001228270C2701A22027104224271C3
:10FB50000A0E82710A0CC2710A0A0272417204F220
:10FB60004A21097981720920A4F85302B8F1000FE3
:10FB700003D0B8F1020F30D05DD228788DF80400A0
:10FB80000DF10408687888F80100300C88F802004C
:10FB9000300A8DF8070088F80460052201A9B4F83E
:10FBA000530200192530F3F78CFAB4F85302411DC3
:10FBB000A4F8531204F24A202A7882700279521C67
:10FBC00002710127009698F801309DF8042089B24F
:10FBD0000FF25050F2F73AF82DE0B4F85302001942
:10FBE00000F2220190F822204B781B0203EB024224
:10FBF00089785218B518290C80F82210B4F85302ED
:10FC00000019290A80F82310B4F85302001980F86B
:10FC10002450334629460FF22450F2F717F8B4F86F
:10FC200053120819009590F8213090F820200FF217
:10FC30002050F2F70BF8D4F80200C4F87602002046
:10FC4000C4F87E02384604B0BDE8F081A04890F8C0
:10FC50004A12002904D0002180F84A12012070477E
:10FC6000002070479A480021A0F853127047984925
:10FC700001F22900B1F85322002A07D1002281F8AD
:10FC80002920114641708170C17001717047904800
:10FC9000B0F85302002802D0001F80B27047052040
:10FCA000704710B58B4CF6F703FF6060F1F753FF18
:10FCB000206060688B49C0F8201400F220408A4917
:10FCC00041608A4981600FF21101C1600FF2550154
:10FCD0000161012010BD00007E48406890F81104C9
:10FCE000002801D100207047794890F950027047F0
:10FCF000774A82F85002002808D092F84D0201237A
:10FD000003FA01F1084382F84D027047002082F89F
:10FD10004D02704780B500210846FFF7E9FF01203A
:10FD200002BD00007CB5002340F20D120C7812FBDE
:10FD30000404012525700C7812FB04041A25A57013
:10FD4000634C94F84D520326354214D00B7812FBC5
:10FD5000030301255D7094F84D32DD0603D503F0F1
:10FD6000EF0384F84D320B7812FB030394F84D52E5
:10FD7000DD70012313E0ED0611D50B7812FB0303B0
:10FD800035465D700B7812FB030301259D720B78DD
:10FD900012FB0303DD70002384F851322B46002B45
:10FDA00012D00B7812FB0303D4F802505D600B787D
:10FDB00012FB030325781D720B7812FB0300627897
:10FDC00042720878401C0870FFF7A4FF94F85102B3
:10FDD000012804D104210120BDE87C4088E773BDDF
:10FDE000884201D3401A7047414A1018401A7047A0
:10FDF0002DE9F0412DED028B82B005460C462046E0
:10FE0000F7F768F83B4A3C4B02F0A2F941EC180BBB
:10FE100000223A4BF7F76CF802F06CFA8DF800000C
:10FE20004FF461669DF8000016FB00F0F7F748F804
:10FE300002460B4651EC180B03F094F841EC180BFA
:10FE400000222F4BF7F754F802F054FA07468DF8CA
:10FE500001704FF03C08FFB218FB07F0F7F730F8DD
:10FE600002460B4651EC180B03F07CF802F042FA04
:10FE70008DF802009DF8001011FB06F117FB081128
:10FE800051FA80F04FF47A7101FB1040ADF8030095
:10FE9000284600A90522F3F7D9F802B0BDEC028B81
:10FEA000BDE8F0810A4981F85102887DC00709D573
:10FEB00091F85102012802D10421012018E7002005
:10FEC00081F85102704702490B22F3F7BFB80000D6
:10FED000E07D0020E4A90020804F12009A999999B2
:10FEE0009999C93FB3F2000853F400084FF5000890
:10FEF000005C2605FCA9F1D24D62503F0020AC40C9
:10FF000000004E4041542D5245563133313233308A
:10FF10000000000041542D414C2025642025642020
:10FF200025642025642C204154202564202564204C
:10FF300050442025642025640000000041542D52C7
:10FF40004D2D494E5400000041542D414C4C52451A
:10FF50004D4F56454400000041542D464F524345F5
:10FF60004452454D4F5645440000000041542D5227
:10FF70004C2025642025642025642025642C204104
:10FF800054202564202564205044202564202564C5
:10FF90000000000041542D524C204E756C6C000046
:10FFA000B80B00008813000041542D437572536153
:10FFB0006D706C6554696D653A25640041542D433C
:10FFC000757254696D653A256400000041542D54E2
:10FFD0003A256420413A4C4F5700000041542D61AE
:10FFE000636354696D653A2564204475723A2564EB
:10FFF0000000000041542D54696D6520533A25647A
:020000021000EC
:1000000020573A256420523A256420413A2564005D
:1000100041542D53656C3A25642D25642054696D37
:10002000653A25640000000041542D543A256420AF
:10003000413A4D494400000041542D543A25642072
:10004000413A48494748000041542D42415430202C
:10005000256420256400000041542D434845434B4E
:100060002025640041542D424154332054696D656C
:100070006F757420256420256400000041542D4EC6
:100080004F522025643A25643A25643A2564202598
:10009000642025640000000041542D494E54202561
:1000A000643A25643A25643A256420256420256451
:1000B0002C2025642025640041542D4346205742BE
:1000C000432025642025640041542D54433A25647F
:1000D0000000000041542D4E6F256420543A2564E1
:1000E00020413A256420443A2564000041542D45BE
:1000F000582025642025640041542D436C656172AD
:1001000042617463684461746100000041542D428F
:10011000415431204475723A2564202564202564B9
:100120000000000041542D424154322053503A25E2
:1001300064202564202564202564000041542D4E50
:1001400065774475723A25643D25642B256400006B
:1001500041542D424154342053503A2564202564A3
:10016000202564202564000080B5B648416891F8D8
:100170003914002901D1002002BD0121817005F050
:1001800058FC00280AD005F038FF01460FF2EC2099
:10019000F1F75CFD05F051FC012002BD002002BD1D
:1001A0000FB430B58BB005F0A5FBA6480021017057
:1001B000417081700161BDF83A40204600F029F994
:1001C000BDF83C50284600F022F90FF2C420F1F7A8
:1001D0003DFD2A4621460FF2C420F1F737FD0120EC
:1001E0008DF83C00AA208DF83A003C208DF83B00A9
:1001F00000208DF80000032001900DF109000EA9E8
:100200002122F2F723FF0A208DF8080000A8F6F754
:100210002FFD002805D10FF29420F1F717FD0220E1
:1002200000E001200BB030BC5DF814FB00B58BB0D2
:1002300005F09DFB01208DF80000032001900A20AD
:100240008DF8080000A8F6F713FD002801D103205F
:1002500000E001200BB000BD70B504460D4640F231
:100260000D16287816FB00400121017005F0C5FE2F
:1002700001281AD1287816FB004005214170287802
:1002800016FB00401B2181700FF23420F1F7DEFCD9
:10029000287816FB00400221C170287816FB004028
:1002A0001E21417105F0D1FB18E005F0AAFE0128DE
:1002B00014D1287816FB004001214170287816FBE4
:1002C00000401B2181700FF20820F1F7BFFC287855
:1002D00016FB00400121C17005F0BFFB2878401CCF
:1002E0002870BDE8704005F0A8BB70B59CB0564EB4
:1002F000304603F0A3FD3068524CA168411A89B220
:10030000012904DAE268B6F846309A4203D0A060C8
:10031000B6F84600E0606068D0F83C543160314681
:1003200083B068465422F2F7A1FE0EBCADB2284657
:1003300005F07CFF2061207801281CD112A8F1F77C
:1003400026FF16A80268436843EC122B14A8026823
:10035000436843EC112B12A80268436843EC102B4E
:100360009DF863209DF862109DF8610000F028F868
:100370000020207006E06078012803D100F045F8E5
:100380000020607001201CB070BD80B50FF25010CD
:10039000F1F75CFCF6F78CFB2A49486000228A6082
:1003A000CA602A49C0F8481400F248402849416010
:1003B000284981602849C16028490161012002BDA6
:1003C00030B52DED048B85B0B0EE408AF0EE608A3A
:1003D000B0EE419AF0EE619A04460D46D2B2C9B22F
:1003E000C0B205F04CFB05F040FBEDB20395E4B262
:1003F00002948DED009B53EC182B0FF2F000F1F7F7
:1004000025FC05B0BDEC048B30BD05F033BB05F019
:10041000CFBA05F0BCBA05F0D6BA05F0DCBA80B5A3
:1004200005F0EBFD002805D006488078002801D1B2
:10043000012002BD002002BD024801210170704769
:10044000000000005CA90020A8A20020A101010872
:100450002D020108EB020108690101085902010897
:1004600005F0E3BD05F0E5BDC9B205F0E7BD05F057
:10047000ECBA05F08BBA05F09BBE00004C5420434B
:100480006D6452656164795F5353202564000000F8
:100490004C54205374617274205353004C542053B5
:1004A000542025642C205754202564004C5420509F
:1004B00065646F4F70656E4661696C205353000030
:1004C0004C54205245515545535420504F53000031
:1004D0004C5420524551554553542041434B000044
:1004E0004C5420496E695353000000004C54205373
:1004F0005320536574506F73202566202566202590
:1005000064202564000000000FB480B5082200219B
:100510000846F6F7CFFA022801D1022004E0694824
:10052000002101704180012002BC5DF814FB654888
:10053000002101700120704738B501240020ADF87A
:100540000000604D95F90000002809D12046287070
:100550000020A880A86806F0CFF906F045FB29E046
:10056000012829D16888401C68800DF10101A86824
:1005700006F0E6FB002815D0082200212046F6F7F9
:1005800099FA032800D1032408220B210020F6F752
:1005900091FA022801D1022032BD0220287006F013
:1005A0009DFD07E0B5F90200962803DB05202870C1
:1005B00000F057F8204632BD0328FBD1A888401C24
:1005C000A88000B2FB28F1DA00A9A86806F0D0F9EB
:1005D0000028EFD004202870204600F033F800F007
:1005E00040F8E7E710B5374CF6F762FAE060F1F74C
:1005F0001BFEA060E0683449C0F8501100F5A870F7
:1006000032494160324981600FF20D01C1600FF241
:10061000C9010161012010BD01460020294AD268AC
:1006200092F84121002A02D0012900D106E070474A
:1006300080B5002000F006F8012002BD254890F9A1
:100640000000704723490870704780B508220021D8
:100650000846F6F72FFA022801D1022002BD012038
:1006600002BD80B517480021818041800822012009
:10067000F6F720FA032801D1032002BD012002BDB4
:1006800038B501240F4D95F90000022815D1082234
:100690000B212046F6F70EFA032800D10324FFF7BA
:1006A000D4FF022801D1022032BD032800D1032447
:1006B0000320287002A0F1F7C9FA204632BD0000DD
:1006C0005341490004AA0020090501082F0501082B
:1006D00039050108F5AB002018B440F20D120B7873
:1006E00012FB030301241C700B7812FB03035C70E4
:1006F0000B7812FB030308249C700B7812FB030099
:100700000122C2700878401C087011BC90E70000FC
:100710000FB480B5874801210170052200210846E9
:10072000F6F7C8F9022801D1022016E005220921B6
:100730000020F6F7BFF9022801D102200DE00522C2
:1007400007210020F6F7B6F9022801D1022004E0C3
:1007500000F0E8F806F0EAFC012002BC5DF814FBAA
:1007600038B50124052209212046F6F7A3F903280C
:1007700000D10324052207210120F6F79BF9032865
:1007800000D103246B4D95F90000032801D0012806
:1007900007D1052200210120F6F78CF9032800D1AA
:1007A00003240020287000F0BDF806F062FD20460A
:1007B00032BD80B5002000F03CF8022801D10220B3
:1007C00002BD032801D1032002BD012002BD10B5E6
:1007D000584CF6F76DF92061F1F726FDA060F1F7AE
:1007E000BAF9E06020695449C0F8D810D8305349AC
:1007F0004160534981600FF21101C1600FF249114C
:100800000161012010BD000001460020494A126923
:1008100092F8C920002A02D0012900D102E07047D5
:10082000002003E0474890F90000704745490870F0
:10083000704770B582B0064601253E4C94F9000021
:10084000012823D1A088401CA08000B24C280BDBDB
:100850000020A08002202070052200212846F6F703
:1008600029F9032800D10325012E59D1E068007D24
:10087000012807D1B4F904001F2851DB6078401C1F
:1008800060704DE0A078401CA07049E002281CD1A7
:10089000012E0AD1E068007D012803D16078401C58
:1008A000607002E0A078401CA07094F9010001285B
:1008B00036DB052200210846F6F7FCF8022801D1B4
:1008C000022076BD032020702AE0032828D10020D2
:1008D0008DF8000000A9A06806F04CFCC0B2022808
:1008E0000DD1052200212846F6F7E4F8032800D1AF
:1008F00003250120FFF79AFF0420207010E0032851
:100900000ED1052200212846F6F7D4F8032800D19D
:10091000032500206070A0700220207006F006FC05
:10092000284676BD03480021818041708170704760
:100930000000000034A90020110701086107010828
:10094000B3070108E6AB002010B50C4640F20D11CC
:10095000227811FB020201231370227811FB02029C
:100960005370227811FB020205239370227811FB49
:1009700002000121C170FFF753FF2078401C207056
:1009800010BD00000FB480B5022201210020F6F74F
:1009900091F8022801D102200EE002220721002056
:1009A000F6F788F8022801D1022005E006F06CFC79
:1009B000414800210170012002BC5DF814FB3E4853
:1009C000002101700120704700B58BB000A8F6F738
:1009D000D7F803A890EC030A06F08CFC364908709F
:1009E00001200BB000BD10B5334CF6F761F8A060E4
:1009F000F1F7B1F86060A06830490166304941669E
:100A0000304981660FF21D01C1660FF2690101676D
:100A1000012010BD80B528484068007D06F063FCC9
:100A2000012002BD002024498A6892F85120002A42
:100A300004D091F90010002900D0012070471E4811
:100A4000002101700120704710B50024012804D056
:100A500007D303280BD002D303E0012407E00224CC
:100A600005E0032401460FF26000F1F7EFF820469D
:100A700010BD000038B50C4640F20D11227811FB74
:100A8000020201231370227811FB020253702278B4
:100A900011FB020202239370227811FB0205064823
:100AA00090F90000FFF7D0FFE8702078401C20701C
:100AB000BDE83140C3E7000084AA00208509010891
:100AC000BF090108C90901084C4D4350532031208A
:100AD000256400004C48C168002903D54B490160DA
:100AE0004B49016070474B48016841F0004101608B
:100AF000704770B50446002600290BD0012902D1A9
:100B00004FF4807606E0022902D14FF4007601E02E
:100B10004FF4407600F082F809281ED13D4D286838
:100B200020F440702860286830432860286820F04E
:100B3000F8002860286844F002010843286028680B
:100B400040F48030286000F069F8296821F0020143
:100B50002960296821F0F801296070BD70B504464C
:100B60000D4600F05BF8092813D12A4E306820F4B6
:100B700040703060306840F400703060306840F0A1
:100B800001003060256000F049F8316849084900EB
:100B9000316070BD70B505460E4600F03FF809287B
:100BA00011D11C4C206820F4407020602068206027
:100BB000206840F0010020602E7000F02FF82168BE
:100BC00049084900216070BD134908607047092039
:100BD00011490A68D20301D5012070470A68D2067C
:100BE00001D5062070470A68D20501D5022070475A
:100BF0000A6812F0EF0F01D00720704709688907D3
:100C000000D5082070470000043C024023016745DE
:100C1000AB89EFCD103C02400C3C024080B509206E
:100C20008DF80000FFF7D3FF8DF8000003E0FFF719
:100C3000CEFF8DF800009DF800000128F7D09DF848
:100C4000000002BD7047000070B504463548364EBE
:100C50000568B5B1287A88B16868A0420ED1012034
:100C600028723078401C3070287A401E2872C0B23A
:100C700010B9284607F000FAF4F7B8F9ED68002D2E
:100C8000E8D170BD10B5044628482949016000200C
:100C90000021024603460FC4103CF4F704F9214832
:100CA0000168E160046020484078002804BFBDE886
:100CB0001040F4F7F2B810BD30B51B4D044628784B
:100CC00081B0401C2870A868217A11B960600125A4
:100CD0000DE06168814208D01021204602F076FACA
:100CE000207A0028F8D1A8686060207A451C257217
:100CF000F4F77CF9284601B030BD0B490A78521C44
:100D00000A70017A491E0172C9B2002918BFF4F7AE
:100D10006DB900B581B007F0AFF901B05DF804EB33
:100D2000F4F764B9C0AB00202437002068AB002082
:100D3000490C0108DFF82C0C016899B94FF4803197
:100D400081604FF4805141604FF0FF31C16001611B
:100D500004214161DFF8101C0422C1F8B821DFF83A
:100D60000C1C01600120704701F1080313F0070318
:100D700005D001F10803C3F1080303F00703591874
:100D8000D21A8161C26042F001034B6051182822DF
:100D90004A60DFF8D01B0969C16170472DE9F84F3F
:100DA000054601F1080010F0070005D001F1080028
:100DB000C0F1080000F0070000EB010A02F1080092
:100DC00010F0070005D002F10800C0F1080000F0A3
:100DD0000700841803EB0A07A4EB0A00A0EB030842
:100DE00043F00300CAF80400A74228BF07F05AF9ED
:100DF0002079C00758BF07F055F9B8F1100F38BF78
:100E000007F050F9A869844207D1E8684044E860D7
:100E1000AF6140F00100786048E16869844208D120
:100E2000A8684044A8606F6140F001017960C0513A
:100E30003CE1606800F00301012940F09F80C00898
:100E4000C00000904FEAD00BBBF1200F2FD2D4F896
:100E50000890E668B44208BF07F024F94C4508BF83
:100E600007F020F96068C008C000B0EBCB0F18BFD6
:100E700007F018F9B14506D12868012101FA0BF1F4
:100E80008843286077E005EBCB0000F12801894515
:100E900002D0296989456CD32830864202D028695E
:100EA000864266D3C9F80C60C6F8089063E0D4F8AF
:100EB0001890E668A64206D0A068296988421DD32A
:100EC000C660B0601CE004F11400066836B904F195
:100ED00010000668A6B101E00846066806F1140194
:100EE0000A68002A02BF06F110010A68002AF3D13D
:100EF0002969884202D30021016001E007F0D2F89D
:100F0000B9F1000F37D0E06905EB800000F598706B
:100F100001688C4209D10660300014D16868012153
:100F2000E26991408843686025E02869814508D3DB
:100F3000D9F81000A04214BFC9F81460C9F81060B5
:100F400001E007F0AFF8B6B12869864211D3C6F8C0
:100F50001890216929B1814226BF31618E6107F065
:100F6000A1F8606938B12969884202D3706186614D
:100F700001E007F097F80098041980446068400881
:100F80004000606048F00100786048F807804FEA50
:100F9000D806202E1FD205EBC60000F12804A1467A
:100FA000B8F1100F38BF07F07DF80120B040296874
:100FB000014202D10843286006E0A06829698842FE
:100FC0002CBF814607F06EF8A760C9F80C70C7F80F
:100FD0000890FC606AE05FEA182008BF002123D077
:100FE000B0F5803F28BF1F211ED2A0F58071090CEB
:100FF00001F008018840A0F58052120C02F00402B2
:101000009040A0F580431B0C03F00203C1F10E01D8
:10101000891AC91A984001EBD030C11D28FA01F194
:1010200001F0010101EB400105EB810000F5987230
:10103000F961002078613861012088406B680342C3
:1010400004D1184368601760BA611DE010681F2959
:101050000EBF00214908C1F1190108FA01F100E0B1
:1010600010464268D208D200424510D0CA0F00EBA9
:10107000820202F1100349001A68002AF0D129699E
:101080008B4211D31F60B861FF60BF600EE08168C2
:101090002A69904228BF914206D3CF608760B96029
:1010A000F8600020B86101E006F0FCFF0AF10800DA
:1010B000BDE8F28F2DE9FE4F0446A56904F5DE7008
:1010C00001688D4203D3426851188D4202D3806873
:1010D0000028F5D1416800680E18A6F12F0000F134
:1010E000080111F0070105D000F10801C1F1080164
:1010F00001F0070101EB000A05F11000824538BF3D
:10110000AA460AF1080B0AF1180900270198A0F174
:10111000280200992046FFF727FE1BF0070018BFA2
:1011200006F0C0FF1B20CAF8040004F5DE70B0E82A
:101130000E10ABE80E10ABF110010098C4F8BC0122
:101140000198C4F8C0010298C4F8C801C4F8C411D9
:1011500000E0814609F104000721C9F804107F1C52
:10116000011DB142F5D3022FB8BF06F09BFFAA457F
:1011700000F09C80AAEB050041194A685208520011
:101180004A6040F0010169604051C708202F1FD21A
:1011900004EBC70101F12806B046102838BF06F05D
:1011A00081FF012101FA07F02168014202D10843C1
:1011B000206006E0B068216988422CBF804606F0B6
:1011C00071FFB560C8F80C50C5F80880EE606DE09E
:1011D000010A08BF002223D0B1F5803F28BF1F229B
:1011E0001ED2A1F58072120C02F008029140A1F506
:1011F00080531B0C03F004039940A1F58046360C84
:1012000006F00206C2F10E02D21A921BB14002EBA6
:10121000D131CA1D20FA02F202F0010202EB4102B2
:1012200004EB820101F59873EA610021696129618B
:101230000121914066680E4205D141EA06006060D6
:101240001D60AB611DE019681F2A0EBF0022520805
:10125000C2F1190200FA02F200E019464B68DB08FD
:10126000DB00834210D0D30F01EB830303F11006A0
:1012700052003368002BF0D12069864211D33560CB
:10128000A961ED60AD6011E088682269914228BFD4
:10129000904206D3C5608D60A860E9600020A86117
:1012A00004E003B0BDE8F04F06F0FCBE03B0BDE8BB
:1012B000F08FF8B504460D46DFF8A866306808B927
:1012C000FFF738FD06F0F2FE01001CBF0A6811F1BD
:1012D000010F00F08A80D4F8B0011018C4F8B001F2
:1012E000D4F8B431834238BF0346C4F8B431A0699E
:1012F00058BB206908B1814200D22161C4F8BC11F9
:10130000C4F8C0210020C4F8C801306860624FF002
:10131000FF3020622046202300F12806F660B660E8
:1013200008305B1EF8D1DFF84006844208BF283A37
:1013300027D054F8040CC00814EBC000083851182A
:10134000091AA1F1280201461BE004F5DE700346EC
:1013500000E09B68CBB15E681F68F619B142F8D116
:101360001E7B360711D4A669BE420ED3D3F804C043
:101370006744BE4209D202EB0C005860E0681218C4
:10138000A1692046FFF7F0FC1EE02369994238BFAF
:1013900021610346501800E09B688BB11E688642AD
:1013A000FAD1187B00070BD4304619605E68921999
:1013B0005A602B460246204601B0BDE8F040EDE4FD
:1013C00000232046FFF776FEE06885420DD2401BE1
:1013D000E060A1696A18A26140F00100506045F028
:1013E0000300486001F10800F2BD0020F2BD2DE9C4
:1013F000F84F05468B460024CBF100085FEA1B201E
:1014000023D0B0F5803F28BF1F201ED2A0F58071E9
:10141000090C01F008018840A0F58052120C02F07E
:1014200004029040A0F580431B0C03F00203C1F1BD
:101430000E01891AC91A984001EBD030C11D2BFA50
:1014400001F101F0010101EB400005EB8001D1F851
:10145000301129B31F280EBF00224208C2F1190221
:101460000BFA02F2002300E052004E68F608F60084
:10147000A6EB0B06464503D20C465FEA06080BD0E6
:101480004E69D70F01EB87010969002E1CBF8E4200
:1014900033460029E8D1194600293BD1002C3BD125
:1014A000012101FA00F04000414208436968084008
:1014B00000F0578141420840411E080B00F0100027
:1014C00021FA00F2510901F00801CA40930803F023
:1014D0000403DA40560806F00206F240C2F3400761
:1014E000081818183018384422FA07F1081805EBC4
:1014F0008000D0F830110DE001464868C008C000F7
:10150000A0EB0B0040453CBF80460C460869002814
:10151000F2D149690029F0D1002C00F02281A8689D
:10152000A0EB0B00804580F01C8128698442C0F04C
:1015300016810BEB04060BEB08096068C008C000BD
:10154000484518BF06F0AEFDB44280F00881D4F8DB
:1015500018A0E768A74206D0A068296988421DD371
:10156000C760B8601CE004F11400076837B904F1E3
:1015700010000768A7B101E00846076807F11401E9
:101580000A68002A02BF07F110010A68002AF3D195
:101590002969884202D30021016001E006F082FD42
:1015A000BAF1000F38D0E06905EB800000F59870C3
:1015B00001688C4209D10760380014D168680121A4
:1015C000E26991408843686026E02869824508D333
:1015D000DAF81000A04214BFCAF81470CAF81070EC
:1015E00001E006F05FFDBFB12869874212D3C7F85A
:1015F00018A0206930B12969884226BF3861876107
:1016000006F050FD606938B12969884202D37861DB
:10161000876101E006F046FDB8F1100F09D249F0EC
:101620000300606009EB0400416841F00101416082
:1016300091E04BF00300606048F00100706048F8F2
:1016400006804FEAD80020281BD205EBC00101F12B
:101650002807B846012101FA00F02968014202D1A9
:101660000843286006E0B868296988422CBF804694
:1016700006F018FDBE60C8F80C60C6F80880F76078
:1016800069E05FEA182008BF002223D0B0F5803F50
:1016900028BF1F221ED2A0F58071090C01F008019D
:1016A0008840A0F58052120C02F004029040A0F590
:1016B00080431B0C03F00203C1F10E01891AC91A01
:1016C000984001EBD030C11D28FA01F101F0010171
:1016D00001EB400205EB820000F59870F2610021F9
:1016E00071613161012191406B680B4203D1194353
:1016F000696006601CE000681F2A0EBF00215108C7
:10170000C1F1190108FA01F100E010464268D2085F
:10171000D200424510D0CA0F00EB820202F1100342
:1017200049001A68002AF0D129698B4211D31E6042
:10173000B061F660B6600EE081682A69904228BF09
:10174000914206D3CE608660B160F0600020B06147
:1017500001E006F0A7FC04F10800BDE8F28F06F0F6
:10176000A1FCFBE02DE9F84F044688466068414241
:101770000840411E080B00F01000C1404A0902F069
:101780000802D1408B0803F00403D9404D0805F04E
:101790000205E940C1F34006101818182844301813
:1017A000F140081804EB8000D0F83001064641688B
:1017B000C908C900A1EB080A09E008464168C90840
:1017C000C900A1EB080151453CBF8A4606460169A4
:1017D0000029F2D140690028F0D120698642C0F08A
:1017E000BB8008EB060B08EB0A097068C008C00054
:1017F000484518BF06F056FC5E4580F0AD80B569DF
:10180000F768B74206D0B068216988421DD3C76027
:10181000B8601CE006F11400076837B906F1100043
:101820000768A7B101E00846076807F114010A68D4
:10183000002A02BF07F110010A68002AF3D12169CA
:10184000884202D30021016001E006F02BFC002D4C
:1018500034D0F06904EB800000F5987001688E4286
:1018600009D10760380011D160680121F269914007
:101870008843606022E02069854205D32869B04230
:1018800014BF6F612F6101E006F00CFCB7B1206955
:10189000874211D3BD61306930B12169884226BFCA
:1018A0003861876106F0FEFB706938B121698842B2
:1018B00002D37861876101E006F0F4FBBAF1100F02
:1018C00009D249F00300706009EB0600416841F05D
:1018D000010141603CE048F0030070604AF0010003
:1018E000CBF804004AF80BA0D4F80880B8F1000F38
:1018F0002AD0D4F814904FEAD805202D28BF06F03E
:10190000D1FB009504EBC50000F128052F46B8F186
:10191000100F38BF06F0C6FB0120009988402168EF
:10192000014202D10843206006E0A868216988428C
:101930002CBF074606F0B6FBC5F80890C7F80C9018
:10194000C9F80870C9F80C50C4F808A0C4F814B05D
:1019500006F10800BDE8F28F06F0A4FB0020BDE808
:10196000F28F0000F4A80020A88200206859883C6B
:101970002DE9F04F83B00546C046C046DFF87447F6
:10198000F52D80F0F4800B2D31BF102705F10B00F1
:10199000C008C700FE082068F04010F0030F3DD0DB
:1019A000C04300F00100861904EBC60000F12808CE
:1019B000D8F80850F7006868C008C000B84218BFDF
:1019C00006F070FBD5F80890454508BF06F06AFBA5
:1019D0004D4508BF06F066FB6868C008C000B84205
:1019E00018BF06F05FFBC84505D120680121B14052
:1019F0008843206008E02069814526BFC8F8089028
:101A0000C9F80C8006F04EFB47F0030068607819B7
:101A1000416841F0010141600835F0E0A168B94238
:101A200080F0B780002800F09980012505FA06F1C2
:101A30004900B0404A421143084041420840411E1B
:101A4000080B00F01000C1404A0902F00802D14022
:101A50008B0803F00403D9404E0806F00206F1405B
:101A6000C1F34008101818183018404421FA08F142
:101A700001EB000804EBC80000F12809D9F8086060
:101A80004FEAC80A7068C008C000504518BF06F089
:101A900009FBD6F808B04E4508BF06F003FB5E45CB
:101AA00008BF06F0FFFA7068C008C000504518BFB4
:101AB00006F0F8FAD94505D1206805FA08F18843FF
:101AC000206008E02069834526BFC9F808B0CBF83C
:101AD0000C9006F0E7FAAAEB070847F003007060E5
:101AE000B819009048F001014160009848F8008062
:101AF000A76867B3D4F814904FEAD70ABAF1200F59
:101B000028BF06F0CFFACDF804A004EBCA0000F11C
:101B1000280AD346102F38BF06F0C4FA019805FAF8
:101B200000F02168014202D10843206007E0DAF8A2
:101B30000800216988422CBF834606F0B3FACAF830
:101B40000890CBF80C90C9F808B0C9F80CA0C4F8FC
:101B500008800098606106F1080550E06068C0B335
:101B600039462046FFF7FEFD050012D047E015F18B
:101B7000400F28BF4FF0FF370BD205F10B00C00814
:101B8000C700606828B139462046FFF730FC0500E1
:101B900035D1A168B9421CD3CA1B6069102A0AD387
:101BA00039186161A26042F001034B60525047F066
:101BB000030141600AE00022A260626141F0030279
:101BC000426009184A6842F001024A6000F10805C3
:101BD00015E0E06887420DD2C01BE060A1697A1869
:101BE000A26140F00100506047F00300486001F13D
:101BF000080504E039462046FFF75BFB0546C04672
:101C0000C0462846FFF752BB00B970472DE9F047A0
